{
  "address": "0x9650F4A4ABd237659d1378415fddBdC17442efFd",
  "abi": [
    {
      "anonymous": false,
      "inputs": [
        {
          "indexed": true,
          "internalType": "uint256",
          "name": "index",
          "type": "uint256"
        },
        {
          "indexed": false,
          "internalType": "address",
          "name": "stakingAddress",
          "type": "address"
        },
        {
          "indexed": false,
          "internalType": "address",
          "name": "blockSelectorAddress",
          "type": "address"
        },
        {
          "indexed": false,
          "internalType": "address",
          "name": "workerAuthAddress",
          "type": "address"
        },
        {
          "indexed": false,
          "internalType": "uint256",
          "name": "minimumDifficulty",
          "type": "uint256"
        },
        {
          "indexed": false,
          "internalType": "uint256",
          "name": "initialDifficulty",
          "type": "uint256"
        },
        {
          "indexed": false,
          "internalType": "uint32",
          "name": "difficultyAdjustmentParameter",
          "type": "uint32"
        },
        {
          "indexed": false,
          "internalType": "uint32",
          "name": "targetInterval",
          "type": "uint32"
        },
        {
          "indexed": false,
          "internalType": "address",
          "name": "ctsiAddress",
          "type": "address"
        },
        {
          "indexed": false,
          "internalType": "uint256",
          "name": "maxReward",
          "type": "uint256"
        },
        {
          "indexed": false,
          "internalType": "uint256",
          "name": "minReward",
          "type": "uint256"
        },
        {
          "indexed": false,
          "internalType": "uint256",
          "name": "distNumerator",
          "type": "uint256"
        },
        {
          "indexed": false,
          "internalType": "uint256",
          "name": "distDenominator",
          "type": "uint256"
        }
      ],
      "name": "NewChain",
      "type": "event"
    },
    {
      "anonymous": false,
      "inputs": [
        {
          "indexed": true,
          "internalType": "address",
          "name": "previousOwner",
          "type": "address"
        },
        {
          "indexed": true,
          "internalType": "address",
          "name": "newOwner",
          "type": "address"
        }
      ],
      "name": "OwnershipTransferred",
      "type": "event"
    },
    {
      "anonymous": false,
      "inputs": [
        {
          "indexed": true,
          "internalType": "uint256",
          "name": "index",
          "type": "uint256"
        },
        {
          "indexed": true,
          "internalType": "address",
          "name": "worker",
          "type": "address"
        },
        {
          "indexed": true,
          "internalType": "address",
          "name": "user",
          "type": "address"
        },
        {
          "indexed": false,
          "internalType": "uint256",
          "name": "reward",
          "type": "uint256"
        }
      ],
      "name": "Rewarded",
      "type": "event"
    },
    {
      "inputs": [],
      "name": "currentIndex",
      "outputs": [
        {
          "internalType": "uint256",
          "name": "",
          "type": "uint256"
        }
      ],
      "stateMutability": "view",
      "type": "function"
    },
    {
      "inputs": [
        {
          "internalType": "uint256",
          "name": "_index",
          "type": "uint256"
        }
      ],
      "name": "getBlockSelectorAddress",
      "outputs": [
        {
          "internalType": "address",
          "name": "",
          "type": "address"
        }
      ],
      "stateMutability": "view",
      "type": "function"
    },
    {
      "inputs": [
        {
          "internalType": "uint256",
          "name": "_index",
          "type": "uint256"
        }
      ],
      "name": "getBlockSelectorIndex",
      "outputs": [
        {
          "internalType": "uint256",
          "name": "",
          "type": "uint256"
        }
      ],
      "stateMutability": "view",
      "type": "function"
    },
    {
      "inputs": [
        {
          "internalType": "uint256",
          "name": "_index",
          "type": "uint256"
        }
      ],
      "name": "getNonce",
      "outputs": [
        {
          "internalType": "uint256",
          "name": "currentNonce",
          "type": "uint256"
        }
      ],
      "stateMutability": "view",
      "type": "function"
    },
    {
      "inputs": [
        {
          "internalType": "uint256",
          "name": "_index",
          "type": "uint256"
        }
      ],
      "name": "getRewardManagerAddress",
      "outputs": [
        {
          "internalType": "address",
          "name": "",
          "type": "address"
        }
      ],
      "stateMutability": "view",
      "type": "function"
    },
    {
      "inputs": [
        {
          "internalType": "uint256",
          "name": "_index",
          "type": "uint256"
        }
      ],
      "name": "getStakingAddress",
      "outputs": [
        {
          "internalType": "address",
          "name": "",
          "type": "address"
        }
      ],
      "stateMutability": "view",
      "type": "function"
    },
    {
      "inputs": [
        {
          "internalType": "uint256",
          "name": "_index",
          "type": "uint256"
        },
        {
          "internalType": "address",
          "name": "_user",
          "type": "address"
        }
      ],
      "name": "getState",
      "outputs": [
        {
          "internalType": "bool",
          "name": "",
          "type": "bool"
        },
        {
          "internalType": "address",
          "name": "",
          "type": "address"
        },
        {
          "internalType": "uint256",
          "name": "",
          "type": "uint256"
        }
      ],
      "stateMutability": "view",
      "type": "function"
    },
    {
      "inputs": [
        {
          "internalType": "uint256",
          "name": "_index",
          "type": "uint256"
        },
        {
          "internalType": "address",
          "name": "",
          "type": "address"
        }
      ],
      "name": "getSubInstances",
      "outputs": [
        {
          "internalType": "address[]",
          "name": "_addresses",
          "type": "address[]"
        },
        {
          "internalType": "uint256[]",
          "name": "_indices",
          "type": "uint256[]"
        }
      ],
      "stateMutability": "view",
      "type": "function"
    },
    {
      "inputs": [
        {
          "internalType": "address",
          "name": "_stakingAddress",
          "type": "address"
        },
        {
          "internalType": "address",
          "name": "_blockSelectorAddress",
          "type": "address"
        },
        {
          "internalType": "address",
          "name": "_workerAuthAddress",
          "type": "address"
        },
        {
          "internalType": "uint256",
          "name": "_minimumDifficulty",
          "type": "uint256"
        },
        {
          "internalType": "uint256",
          "name": "_initialDifficulty",
          "type": "uint256"
        },
        {
          "internalType": "uint32",
          "name": "_difficultyAdjustmentParameter",
          "type": "uint32"
        },
        {
          "internalType": "uint32",
          "name": "_targetInterval",
          "type": "uint32"
        },
        {
          "internalType": "address",
          "name": "_ctsiAddress",
          "type": "address"
        },
        {
          "internalType": "uint256",
          "name": "_maxReward",
          "type": "uint256"
        },
        {
          "internalType": "uint256",
          "name": "_minReward",
          "type": "uint256"
        },
        {
          "internalType": "uint256",
          "name": "_distNumerator",
          "type": "uint256"
        },
        {
          "internalType": "uint256",
          "name": "_distDenominator",
          "type": "uint256"
        }
      ],
      "name": "instantiate",
      "outputs": [
        {
          "internalType": "uint256",
          "name": "",
          "type": "uint256"
        }
      ],
      "stateMutability": "nonpayable",
      "type": "function"
    },
    {
      "inputs": [
        {
          "internalType": "uint256",
          "name": "_index",
          "type": "uint256"
        }
      ],
      "name": "isActive",
      "outputs": [
        {
          "internalType": "bool",
          "name": "",
          "type": "bool"
        }
      ],
      "stateMutability": "view",
      "type": "function"
    },
    {
      "inputs": [
        {
          "internalType": "uint256",
          "name": "_index",
          "type": "uint256"
        },
        {
          "internalType": "address",
          "name": "_user",
          "type": "address"
        }
      ],
      "name": "isConcerned",
      "outputs": [
        {
          "internalType": "bool",
          "name": "",
          "type": "bool"
        }
      ],
      "stateMutability": "view",
      "type": "function"
    },
    {
      "inputs": [],
      "name": "owner",
      "outputs": [
        {
          "internalType": "address",
          "name": "",
          "type": "address"
        }
      ],
      "stateMutability": "view",
      "type": "function"
    },
    {
      "inputs": [
        {
          "internalType": "uint256",
          "name": "_index",
          "type": "uint256"
        }
      ],
      "name": "produceBlock",
      "outputs": [
        {
          "internalType": "bool",
          "name": "",
          "type": "bool"
        }
      ],
      "stateMutability": "nonpayable",
      "type": "function"
    },
    {
      "inputs": [],
      "name": "renounceOwnership",
      "outputs": [],
      "stateMutability": "nonpayable",
      "type": "function"
    },
    {
      "inputs": [
        {
          "internalType": "uint256",
          "name": "_index",
          "type": "uint256"
        }
      ],
      "name": "terminate",
      "outputs": [],
      "stateMutability": "nonpayable",
      "type": "function"
    },
    {
      "inputs": [
        {
          "internalType": "address",
          "name": "newOwner",
          "type": "address"
        }
      ],
      "name": "transferOwnership",
      "outputs": [],
      "stateMutability": "nonpayable",
      "type": "function"
    }
  ],
  "transactionHash": "0x277dcce9311f031703b611cbe4a9a20d5eb77364529f4e29fbe961d0a6f9a101",
  "args": [],
  "solcInputHash": "f5e6526d3c08f77b280dc4ca149f7d46",
  "bytecode": "0x6080604052600060015534801561001557600080fd5b50600061002061006f565b600080546001600160a01b0319166001600160a01b0383169081178255604051929350917f8be0079c531659141344cd1fd0a4f28419497f9722a3daafe3b4186f6b6457e0908290a350610073565b3390565b6119f4806100826000396000f3fe608060405234801561001057600080fd5b50600436106101005760003560e01c806385425f4f11610097578063a5a6cd0b11610066578063a5a6cd0b1461030e578063c526656c1461032b578063f2fde38b146103f0578063f8fe50da1461041657610100565b806385425f4f1461024d5780638da5cb5b1461026a578063902c0f0614610272578063930d2d471461028f57610100565b8063715018a6116100d3578063715018a6146101b557806373df1612146101bf5780637a828b281461021357806382afd23b1461023057610100565b806301ff62ab1461010557806326987b60146101455780633d46b8191461015f5780635c6b67821461017c575b600080fd5b6101316004803603604081101561011b57600080fd5b50803590602001356001600160a01b0316610433565b604080519115158252519081900360200190f35b61014d6104c6565b60408051918252519081900360200190f35b61014d6004803603602081101561017557600080fd5b50356104cc565b6101996004803603602081101561019257600080fd5b503561057d565b604080516001600160a01b039092168252519081900360200190f35b6101bd61059b565b005b6101eb600480360360408110156101d557600080fd5b50803590602001356001600160a01b031661063d565b6040805193151584526001600160a01b03909216602084015282820152519081900360600190f35b6101bd6004803603602081101561022957600080fd5b50356107dd565b6101316004803603602081101561024657600080fd5b5035610916565b6101996004803603602081101561026357600080fd5b503561092b565b610199610949565b6101996004803603602081101561028857600080fd5b5035610958565b61014d60048036036101808110156102a657600080fd5b506001600160a01b0381358116916020810135821691604082013581169160608101359160808201359163ffffffff60a082013581169260c08301359091169160e0810135909116906101008101359061012081013590610140810135906101600135610976565b6101316004803603602081101561032457600080fd5b5035610d58565b6103576004803603604081101561034157600080fd5b50803590602001356001600160a01b0316611119565b604051808060200180602001838103835285818151815260200191508051906020019060200280838360005b8381101561039b578181015183820152602001610383565b50505050905001838103825284818151815260200191508051906020019060200280838360005b838110156103da5781810151838201526020016103c2565b5050505090500194505050505060405180910390f35b6101bd6004803603602081101561040657600080fd5b50356001600160a01b03166111d8565b61014d6004803603602081101561042c57600080fd5b50356112d0565b600082815260046020818152604080842060028101548251633a02a42d60e01b81526001600160a01b0388811696820196909652925191948694911692633a02a42d9260248083019392829003018186803b15801561049157600080fd5b505afa1580156104a5573d6000803e3d6000fd5b505050506040513d60208110156104bb57600080fd5b505111949350505050565b60015481565b600081806001541161051e576040805162461bcd60e51b8152602060048201526016602482015275125b99195e081b9bdd081a5b9cdd185b9d1a585d195960521b604482015290519081900360640190fd5b61052781610916565b610569576040805162461bcd60e51b815260206004820152600e60248201526d496e64657820696e61637469766560901b604482015290519081900360640190fd5b505060009081526003602052604090205490565b6000908152600460205260409020600201546001600160a01b031690565b6105a36112e2565b6000546001600160a01b039081169116146105f3576040805162461bcd60e51b81526020600482018190526024820152600080516020611948833981519152604482015290519081900360640190fd5b600080546040516001600160a01b03909116907f8be0079c531659141344cd1fd0a4f28419497f9722a3daafe3b4186f6b6457e0908390a3600080546001600160a01b0319169055565b60008281526004602081815260408084206001810154815460028301548451633a02a42d60e01b81526001600160a01b038a8116988201989098529451889788979596948116956359dc826c958c9490921692633a02a42d926024808201939291829003018186803b1580156106b257600080fd5b505afa1580156106c6573d6000803e3d6000fd5b505050506040513d60208110156106dc57600080fd5b5051604080516001600160e01b031960e087901b16815260048101949094526001600160a01b0390921660248401526044830152516064808301926020929190829003018186803b15801561073057600080fd5b505afa158015610744573d6000803e3d6000fd5b505050506040513d602081101561075a57600080fd5b505160038201546040805163457642a160e11b8152905188926001600160a01b031691638aec8542916004808301926020929190829003018186803b1580156107a257600080fd5b505afa1580156107b6573d6000803e3d6000fd5b505050506040513d60208110156107cc57600080fd5b505191955093509150509250925092565b6107e56112e2565b6000546001600160a01b03908116911614610835576040805162461bcd60e51b81526020600482018190526024820152600080516020611948833981519152604482015290519081900360640190fd5b6000818152600460208181526040928390206003810154845163457642a160e11b8152945191946001600160a01b0390911693638aec854293828201939092909190829003018186803b15801561088b57600080fd5b505afa15801561089f573d6000803e3d6000fd5b505050506040513d60208110156108b557600080fd5b505115610909576040805162461bcd60e51b815260206004820152601f60248201527f5265776172644d616e61676572207374696c6c20686f6c64732066756e647300604482015290519081900360640190fd5b610912826112e6565b5050565b60009081526002602052604090205460ff1690565b6000908152600460205260409020600301546001600160a01b031690565b6000546001600160a01b031690565b6000908152600460205260409020600101546001600160a01b031690565b60006109806112e2565b6000546001600160a01b039081169116146109d0576040805162461bcd60e51b81526020600482018190526024820152600080516020611948833981519152604482015290519081900360640190fd5b6001600081548092919060010191905055508c600460006001805403815260200190815260200160002060020160006101000a8154816001600160a01b0302191690836001600160a01b031602179055508b600460006001805403815260200190815260200160002060010160006101000a8154816001600160a01b0302191690836001600160a01b031602179055508a600460006001805403815260200190815260200160002060040160006101000a8154816001600160a01b0302191690836001600160a01b031602179055506001600260006001805403815260200190815260200160002060006101000a81548160ff021916908315150217905550308686868686604051610ae190611309565b80876001600160a01b03168152602001866001600160a01b031681526020018581526020018481526020018381526020018281526020019650505050505050604051809103906000f080158015610b3c573d6000803e3d6000fd5b50600460006001805403815260200190815260200160002060030160006101000a8154816001600160a01b0302191690836001600160a01b03160217905550600460006001805403815260200190815260200160002060010160009054906101000a90046001600160a01b03166001600160a01b031663da1c71408b8b8b8b306040518663ffffffff1660e01b8152600401808681526020018581526020018463ffffffff1681526020018363ffffffff168152602001826001600160a01b0316815260200195505050505050602060405180830381600087803b158015610c2357600080fd5b505af1158015610c37573d6000803e3d6000fd5b505050506040513d6020811015610c4d57600080fd5b810190808051906020019092919050505060046000600180540381526020019081526020016000206000018190555060018054037f73204ace16a237658cf44ade5197c9b3831c2c556db46b646ad57ae71833fbab8e8e8e8e8e8e8e8e8e8e8e8e604051808d6001600160a01b031681526020018c6001600160a01b031681526020018b6001600160a01b031681526020018a81526020018981526020018863ffffffff1681526020018763ffffffff168152602001866001600160a01b031681526020018581526020018481526020018381526020018281526020019c5050505050505050505050505060405180910390a250600154600019019c9b505050505050505050505050565b60008181526004602081815260408084208084015482516332f256cf60e11b81523395810195909552306024860152915190936001600160a01b03909216926365e4ad9e9260448082019391829003018186803b158015610db857600080fd5b505afa158015610dcc573d6000803e3d6000fd5b505050506040513d6020811015610de257600080fd5b5051610e1f5760405162461bcd60e51b815260040180806020018281038252602e815260200180611968602e913960400191505060405180910390fd5b6004808201546040805163fa54416160e01b81523393810193909352516000926001600160a01b039092169163fa544161916024808301926020929190829003018186803b158015610e7057600080fd5b505afa158015610e84573d6000803e3d6000fd5b505050506040513d6020811015610e9a57600080fd5b505160018301548354600285015460408051633a02a42d60e01b81526001600160a01b038087166004830152915195965093811694635378014f94879390921691633a02a42d916024808301926020929190829003018186803b158015610f0057600080fd5b505afa158015610f14573d6000803e3d6000fd5b505050506040513d6020811015610f2a57600080fd5b5051604080516001600160e01b031960e087901b16815260048101949094526001600160a01b03909216602484015260448301525160648083019260209291908290030181600087803b158015610f8057600080fd5b505af1158015610f94573d6000803e3d6000fd5b505050506040513d6020811015610faa57600080fd5b5051610fe75760405162461bcd60e51b81526004018080602001828103825260298152602001806119966029913960400191505060405180910390fd5b60038201546040805163457642a160e11b815290516000926001600160a01b031691638aec8542916004808301926020929190829003018186803b15801561102e57600080fd5b505afa158015611042573d6000803e3d6000fd5b505050506040513d602081101561105857600080fd5b50516003840154604080516310b3879160e11b81526001600160a01b0386811660048301526024820185905291519394509116916321670f229160448082019260009290919082900301818387803b1580156110b357600080fd5b505af11580156110c7573d6000803e3d6000fd5b50506040805184815290516001600160a01b038616935033925088917f8879c88d0b8e3d79b781927b7436924020902eb1f952514b79e9889b870b576b919081900360200190a4506001949350505050565b600082815260046020526040908190208151600180825281840190935260609283929183918291908160200160208202803683375050604080516001808252818301909252929450905060208083019080368337505050600184015483519192506001600160a01b031690839060009061118f57fe5b60200260200101906001600160a01b031690816001600160a01b0316815250508260000154816000815181106111c157fe5b602090810291909101015290969095509350505050565b6111e06112e2565b6000546001600160a01b03908116911614611230576040805162461bcd60e51b81526020600482018190526024820152600080516020611948833981519152604482015290519081900360640190fd5b6001600160a01b0381166112755760405162461bcd60e51b81526004018080602001828103825260268152602001806119226026913960400191505060405180910390fd5b600080546040516001600160a01b03808516939216917f8be0079c531659141344cd1fd0a4f28419497f9722a3daafe3b4186f6b6457e091a3600080546001600160a01b0319166001600160a01b0392909216919091179055565b60009081526004602052604090205490565b3390565b6000908152600260209081526040808320805460ff191690556003909152812055565b61060b806113178339019056fe61014060405234801561001157600080fd5b5060405161060b38038061060b833981810160405260c081101561003457600080fd5b5080516020820151604083015160608085015160808087015160a0978801516001600160601b031997851b8816610100529590931b9095166101205290935290925260c05260e05260805160a05160c05160e0516101005160601c6101205160601c6105326100d960003980609a528061019f52508061014152508061024c5250806102705250806102f852806103255250806102a752806102ce52506105326000f3fe608060405234801561001057600080fd5b50600436106100415760003560e01c806312065fe01461004657806321670f22146100605780638aec85421461008e575b600080fd5b61004e610096565b60408051918252519081900360200190f35b61008c6004803603604081101561007657600080fd5b506001600160a01b038135169060200135610136565b005b61004e610244565b60007f00000000000000000000000000000000000000000000000000000000000000006001600160a01b03166370a08231306040518263ffffffff1660e01b815260040180826001600160a01b0316815260200191505060206040518083038186803b15801561010557600080fd5b505afa158015610119573d6000803e3d6000fd5b505050506040513d602081101561012f57600080fd5b5051905090565b336001600160a01b037f0000000000000000000000000000000000000000000000000000000000000000161461019d5760405162461bcd60e51b81526004018080602001828103825260318152602001806104ab6031913960400191505060405180910390fd5b7f00000000000000000000000000000000000000000000000000000000000000006001600160a01b031663a9059cbb83836040518363ffffffff1660e01b815260040180836001600160a01b0316815260200182815260200192505050602060405180830381600087803b15801561021457600080fd5b505af1158015610228573d6000803e3d6000fd5b505050506040513d602081101561023e57600080fd5b50505050565b6000806102a37f000000000000000000000000000000000000000000000000000000000000000061029d7f0000000000000000000000000000000000000000000000000000000000000000610297610096565b90610369565b906103cb565b90507f000000000000000000000000000000000000000000000000000000000000000081116102f2577f00000000000000000000000000000000000000000000000000000000000000006102f4565b805b90507f000000000000000000000000000000000000000000000000000000000000000081116103235780610345565b7f00000000000000000000000000000000000000000000000000000000000000005b905061034f610096565b811161035b5780610363565b610363610096565b91505090565b600082610378575060006103c5565b8282028284828161038557fe5b04146103c25760405162461bcd60e51b81526004018080602001828103825260218152602001806104dc6021913960400191505060405180910390fd5b90505b92915050565b60006103c283836040518060400160405280601a81526020017f536166654d6174683a206469766973696f6e206279207a65726f000000000000815250600081836104945760405162461bcd60e51b81526004018080602001828103825283818151815260200191508051906020019080838360005b83811015610459578181015183820152602001610441565b50505050905090810190601f1680156104865780820380516001836020036101000a031916815260200191505b509250505060405180910390fd5b5060008385816104a057fe5b049594505050505056fe4f6e6c7920746865206f70657261746f7220636f6e74726163742063616e2063616c6c20746869732066756e6374696f6e536166654d6174683a206d756c7469706c69636174696f6e206f766572666c6f77a2646970667358221220ed8f9504b736dec7bd6dac805c143ded9913843c68a27f4c23cdf4b430d66cf364736f6c634300070400334f776e61626c653a206e6577206f776e657220697320746865207a65726f20616464726573734f776e61626c653a2063616c6c6572206973206e6f7420746865206f776e65726d73672e73656e646572206973206e6f7420617574686f72697a656420746f206d616b6520746869732063616c6c5573657220636f756c646e742070726f64756365206120626c6f636b207375636365737366756c6c79a26469706673582212206162725aa9ceda8c2b9bcd75a9ee87bcf0315daf6dfe896b9d7c3d05deda52b664736f6c63430007040033",
  "devdoc": {
    "kind": "dev",
    "methods": {
      "getBlockSelectorAddress(uint256)": {
        "params": {
          "_index": "index of instance"
        },
        "returns": {
          "_0": "address of instance's block selector"
        }
      },
      "getBlockSelectorIndex(uint256)": {
        "params": {
          "_index": "index of instance"
        },
        "returns": {
          "_0": "index of instance's block selector"
        }
      },
      "getRewardManagerAddress(uint256)": {
        "params": {
          "_index": "index of instance"
        },
        "returns": {
          "_0": "address of instance's RewardManager"
        }
      },
      "getStakingAddress(uint256)": {
        "params": {
          "_index": "index of instance"
        },
        "returns": {
          "_0": "address of instance's staking contract"
        }
      },
      "getState(uint256,address)": {
        "params": {
          "_index": "index of instance",
          "_user": "address of user"
        },
        "returns": {
          "_0": "bool if user is eligible to produce next block",
          "_1": "address of user that was chosen to build the block",
          "_2": "current reward paid by the network for that block"
        }
      },
      "instantiate(address,address,address,uint256,uint256,uint32,uint32,address,uint256,uint256,uint256,uint256)": {
        "params": {
          "_blockSelectorAddress": "address of blockSelector contract",
          "_ctsiAddress": "address of token instance being used",
          "_difficultyAdjustmentParameter": "how quickly the difficulty gets updated according to the difference between time passed and desired draw time interval.",
          "_distDenominator": "dividing factor to define reward amount",
          "_distNumerator": "multiplier factor to define reward amount",
          "_maxReward": "maximum reward that this contract pays",
          "_minReward": "minimum reward that this contract pays",
          "_stakingAddress": "address of StakingInterface",
          "_targetInterval": "how often we want to elect a block producer",
          "_workerAuthAddress": "address of worker manager contract"
        }
      },
      "owner()": {
        "details": "Returns the address of the current owner."
      },
      "produceBlock(uint256)": {
        "details": "this function can only be called by a worker, user never calls it directly",
        "params": {
          "_index": "the index of the instance of pos you want to interact with"
        }
      },
      "renounceOwnership()": {
        "details": "Leaves the contract without owner. It will not be possible to call `onlyOwner` functions anymore. Can only be called by the current owner. NOTE: Renouncing ownership will leave the contract without an owner, thereby removing any functionality that is only available to the owner."
      },
      "transferOwnership(address)": {
        "details": "Transfers ownership of the contract to a new account (`newOwner`). Can only be called by the current owner."
      }
    },
    "version": 1
  },
  "userdoc": {
    "kind": "user",
    "methods": {
      "getBlockSelectorAddress(uint256)": {
        "notice": "Get block selector address"
      },
      "getBlockSelectorIndex(uint256)": {
        "notice": "Get block selector index"
      },
      "getRewardManagerAddress(uint256)": {
        "notice": "Get reward manager address"
      },
      "getStakingAddress(uint256)": {
        "notice": "Get staking address"
      },
      "getState(uint256,address)": {
        "notice": "Get state of a particular instance"
      },
      "instantiate(address,address,address,uint256,uint256,uint32,uint32,address,uint256,uint256,uint256,uint256)": {
        "notice": "Instantiates a Proof of Stake"
      },
      "produceBlock(uint256)": {
        "notice": "Produce a block"
      }
    },
    "version": 1
  },
  "storageLayout": {
    "storage": [
      {
        "astId": 1117,
        "contract": "contracts/PoS.sol:PoS",
        "label": "_owner",
        "offset": 0,
        "slot": "0",
        "type": "t_address"
      },
      {
        "astId": 927,
        "contract": "contracts/PoS.sol:PoS",
        "label": "currentIndex",
        "offset": 0,
        "slot": "1",
        "type": "t_uint256"
      },
      {
        "astId": 931,
        "contract": "contracts/PoS.sol:PoS",
        "label": "active",
        "offset": 0,
        "slot": "2",
        "type": "t_mapping(t_uint256,t_bool)"
      },
      {
        "astId": 935,
        "contract": "contracts/PoS.sol:PoS",
        "label": "nonce",
        "offset": 0,
        "slot": "3",
        "type": "t_mapping(t_uint256,t_uint256)"
      },
      {
        "astId": 2257,
        "contract": "contracts/PoS.sol:PoS",
        "label": "instance",
        "offset": 0,
        "slot": "4",
        "type": "t_mapping(t_uint256,t_struct(PoSCtx)2253_storage)"
      }
    ],
    "types": {
      "t_address": {
        "encoding": "inplace",
        "label": "address",
        "numberOfBytes": "20"
      },
      "t_bool": {
        "encoding": "inplace",
        "label": "bool",
        "numberOfBytes": "1"
      },
      "t_contract(BlockSelector)2223": {
        "encoding": "inplace",
        "label": "contract BlockSelector",
        "numberOfBytes": "20"
      },
      "t_contract(RewardManager)2895": {
        "encoding": "inplace",
        "label": "contract RewardManager",
        "numberOfBytes": "20"
      },
      "t_contract(Staking)2981": {
        "encoding": "inplace",
        "label": "contract Staking",
        "numberOfBytes": "20"
      },
      "t_contract(WorkerAuthManager)1086": {
        "encoding": "inplace",
        "label": "contract WorkerAuthManager",
        "numberOfBytes": "20"
      },
      "t_mapping(t_uint256,t_bool)": {
        "encoding": "mapping",
        "key": "t_uint256",
        "label": "mapping(uint256 => bool)",
        "numberOfBytes": "32",
        "value": "t_bool"
      },
      "t_mapping(t_uint256,t_struct(PoSCtx)2253_storage)": {
        "encoding": "mapping",
        "key": "t_uint256",
        "label": "mapping(uint256 => struct PoS.PoSCtx)",
        "numberOfBytes": "32",
        "value": "t_struct(PoSCtx)2253_storage"
      },
      "t_mapping(t_uint256,t_uint256)": {
        "encoding": "mapping",
        "key": "t_uint256",
        "label": "mapping(uint256 => uint256)",
        "numberOfBytes": "32",
        "value": "t_uint256"
      },
      "t_struct(PoSCtx)2253_storage": {
        "encoding": "inplace",
        "label": "struct PoS.PoSCtx",
        "members": [
          {
            "astId": 2244,
            "contract": "contracts/PoS.sol:PoS",
            "label": "blockSelectorIndex",
            "offset": 0,
            "slot": "0",
            "type": "t_uint256"
          },
          {
            "astId": 2246,
            "contract": "contracts/PoS.sol:PoS",
            "label": "blockSelector",
            "offset": 0,
            "slot": "1",
            "type": "t_contract(BlockSelector)2223"
          },
          {
            "astId": 2248,
            "contract": "contracts/PoS.sol:PoS",
            "label": "staking",
            "offset": 0,
            "slot": "2",
            "type": "t_contract(Staking)2981"
          },
          {
            "astId": 2250,
            "contract": "contracts/PoS.sol:PoS",
            "label": "rewardManager",
            "offset": 0,
            "slot": "3",
            "type": "t_contract(RewardManager)2895"
          },
          {
            "astId": 2252,
            "contract": "contracts/PoS.sol:PoS",
            "label": "workerAuth",
            "offset": 0,
            "slot": "4",
            "type": "t_contract(WorkerAuthManager)1086"
          }
        ],
        "numberOfBytes": "160"
      },
      "t_uint256": {
        "encoding": "inplace",
        "label": "uint256",
        "numberOfBytes": "32"
      }
    }
  }
}