{
  "address": "0xeb7fa967714953E2C493bFe033F7A02eF43B3c8A",
  "abi": [
    {
      "inputs": [
        {
          "internalType": "address",
          "name": "_ctsiAddress",
          "type": "address"
        },
        {
          "internalType": "uint256",
          "name": "_timeToStake",
          "type": "uint256"
        },
        {
          "internalType": "uint256",
          "name": "_timeToRelease",
          "type": "uint256"
        }
      ],
      "stateMutability": "nonpayable",
      "type": "constructor"
    },
    {
      "anonymous": false,
      "inputs": [
        {
          "indexed": true,
          "internalType": "address",
          "name": "user",
          "type": "address"
        },
        {
          "indexed": false,
          "internalType": "uint256",
          "name": "amount",
          "type": "uint256"
        },
        {
          "indexed": false,
          "internalType": "uint256",
          "name": "maturationDate",
          "type": "uint256"
        }
      ],
      "name": "Stake",
      "type": "event"
    },
    {
      "anonymous": false,
      "inputs": [
        {
          "indexed": true,
          "internalType": "address",
          "name": "user",
          "type": "address"
        },
        {
          "indexed": false,
          "internalType": "uint256",
          "name": "amount",
          "type": "uint256"
        },
        {
          "indexed": false,
          "internalType": "uint256",
          "name": "maturationDate",
          "type": "uint256"
        }
      ],
      "name": "Unstake",
      "type": "event"
    },
    {
      "anonymous": false,
      "inputs": [
        {
          "indexed": true,
          "internalType": "address",
          "name": "user",
          "type": "address"
        },
        {
          "indexed": false,
          "internalType": "uint256",
          "name": "amount",
          "type": "uint256"
        }
      ],
      "name": "Withdraw",
      "type": "event"
    },
    {
      "inputs": [
        {
          "internalType": "address",
          "name": "_userAddress",
          "type": "address"
        }
      ],
      "name": "getMaturingBalance",
      "outputs": [
        {
          "internalType": "uint256",
          "name": "",
          "type": "uint256"
        }
      ],
      "stateMutability": "view",
      "type": "function"
    },
    {
      "inputs": [
        {
          "internalType": "address",
          "name": "_userAddress",
          "type": "address"
        }
      ],
      "name": "getMaturingTimestamp",
      "outputs": [
        {
          "internalType": "uint256",
          "name": "",
          "type": "uint256"
        }
      ],
      "stateMutability": "view",
      "type": "function"
    },
    {
      "inputs": [
        {
          "internalType": "address",
          "name": "_userAddress",
          "type": "address"
        }
      ],
      "name": "getReleasingBalance",
      "outputs": [
        {
          "internalType": "uint256",
          "name": "",
          "type": "uint256"
        }
      ],
      "stateMutability": "view",
      "type": "function"
    },
    {
      "inputs": [
        {
          "internalType": "address",
          "name": "_userAddress",
          "type": "address"
        }
      ],
      "name": "getReleasingTimestamp",
      "outputs": [
        {
          "internalType": "uint256",
          "name": "",
          "type": "uint256"
        }
      ],
      "stateMutability": "view",
      "type": "function"
    },
    {
      "inputs": [
        {
          "internalType": "address",
          "name": "_userAddress",
          "type": "address"
        }
      ],
      "name": "getStakedBalance",
      "outputs": [
        {
          "internalType": "uint256",
          "name": "",
          "type": "uint256"
        }
      ],
      "stateMutability": "view",
      "type": "function"
    },
    {
      "inputs": [
        {
          "internalType": "uint256",
          "name": "_amount",
          "type": "uint256"
        }
      ],
      "name": "stake",
      "outputs": [],
      "stateMutability": "nonpayable",
      "type": "function"
    },
    {
      "inputs": [
        {
          "internalType": "uint256",
          "name": "_amount",
          "type": "uint256"
        }
      ],
      "name": "unstake",
      "outputs": [],
      "stateMutability": "nonpayable",
      "type": "function"
    },
    {
      "inputs": [
        {
          "internalType": "uint256",
          "name": "_amount",
          "type": "uint256"
        }
      ],
      "name": "withdraw",
      "outputs": [],
      "stateMutability": "nonpayable",
      "type": "function"
    }
  ],
  "transactionHash": "0xe22edc25fe593ede7496a54efbd5c70f191f9adb0a76f393f799e24b7a6542ac",
  "args": [
    "0x20d9Fe4FbE713500EeE487B828576A8c7A0522B9",
    120,
    120
  ],
  "solcInputHash": "f5e6526d3c08f77b280dc4ca149f7d46",
  "bytecode": "0x608060405234801561001057600080fd5b5060405161099b38038061099b8339818101604052606081101561003357600080fd5b5080516020820151604090920151600080546001600160a01b039093166001600160a01b0319909316929092179091556001919091556002556109208061007b6000396000f3fe608060405234801561001057600080fd5b50600436106100885760003560e01c806367ba9b911161005b57806367ba9b91146101275780638e9f04b51461014d5780639a05154514610173578063a694fc3a1461019957610088565b80632e17de781461008d5780632e1a7d4d146100ac5780633a02a42d146100c9578063419be62414610101575b600080fd5b6100aa600480360360208110156100a357600080fd5b50356101b6565b005b6100aa600480360360208110156100c257600080fd5b50356102da565b6100ef600480360360208110156100df57600080fd5b50356001600160a01b031661046b565b60408051918252519081900360200190f35b6100ef6004803603602081101561011757600080fd5b50356001600160a01b03166104e9565b6100ef6004803603602081101561013d57600080fd5b50356001600160a01b031661052b565b6100ef6004803603602081101561016357600080fd5b50356001600160a01b031661055c565b6100ef6004803603602081101561018957600080fd5b50356001600160a01b0316610577565b6100aa600480360360208110156101af57600080fd5b50356105a0565b60008111610201576040805162461bcd60e51b8152602060048201526013602482015272616d6f756e742063616e74206265207a65726f60681b604482015290519081900360640190fd5b33600090815260056020908152604080832060049092529091208054831161023657805461022f9084610760565b8155610273565b805461025d90610247908590610760565b3360009081526003602052604090205490610760565b3360009081526003602052604081209190915581555b815461027f90846107a9565b808355426001840181905560025433927ff960dbf9e5d0682f7a298ed974e33a28b4464914b7a2bfac12ae419a9afeb2809290916102bd91906107a9565b6040805192835260208301919091528051918290030190a2505050565b33600090815260056020526040902081610331576040805162461bcd60e51b8152602060048201526013602482015272616d6f756e742063616e74206265207a65726f60681b604482015290519081900360640190fd5b4261034b60025483600101546107a990919063ffffffff16565b11156103885760405162461bcd60e51b815260040180806020018281038252602781526020018061089b6027913960400191505060405180910390fd5b6103ae826040518060600160405280602981526020016108c26029913983549190610803565b8155600080546040805163a9059cbb60e01b81523360048201526024810186905290516001600160a01b039092169263a9059cbb926044808401936020939083900390910190829087803b15801561040557600080fd5b505af1158015610419573d6000803e3d6000fd5b505050506040513d602081101561042f57600080fd5b505060408051838152905133917f884edad9ce6fa2440d8a54cc123490eb96d2768479d49ff9c7366125a9424364919081900360200190a25050565b6001600160a01b03811660009081526004602052604081206001805490820154429161049791906107a9565b116104c85780546001600160a01b0384166000908152600360205260409020546104c0916107a9565b9150506104e4565b50506001600160a01b0381166000908152600360205260409020545b919050565b6001600160a01b03811660009081526004602052604081206001805490820154429161051591906107a9565b116105245760009150506104e4565b5492915050565b6002546001600160a01b038216600090815260056020526040812060010154909161055691906107a9565b92915050565b6001600160a01b031660009081526005602052604090205490565b600180546001600160a01b038316600090815260046020526040812090920154610556916107a9565b600081116105eb576040805162461bcd60e51b8152602060048201526013602482015272616d6f756e742063616e74206265207a65726f60681b604482015290519081900360640190fd5b33600090815260056020908152604080832060049092529091206001805490820154429161061991906107a9565b1161064f57805433600090815260036020526040902054610639916107a9565b3360009081526003602052604081209190915581555b8154831161066a5781546106639084610760565b8255610717565b60005482546001600160a01b03909116906323b872dd9033903090610690908890610760565b6040518463ffffffff1660e01b815260040180846001600160a01b03168152602001836001600160a01b031681526020018281526020019350505050602060405180830381600087803b1580156106e657600080fd5b505af11580156106fa573d6000803e3d6000fd5b505050506040513d602081101561071057600080fd5b5050600082555b805461072390846107a9565b8082554260018084018290555433927f5af417134f72a9d41143ace85b0a26dce6f550f894f2cbc1eeee8810603d91b69290916102bd91906107a9565b60006107a283836040518060400160405280601e81526020017f536166654d6174683a207375627472616374696f6e206f766572666c6f770000815250610803565b9392505050565b6000828201838110156107a2576040805162461bcd60e51b815260206004820152601b60248201527f536166654d6174683a206164646974696f6e206f766572666c6f770000000000604482015290519081900360640190fd5b600081848411156108925760405162461bcd60e51b81526004018080602001828103825283818151815260200191508051906020019080838360005b8381101561085757818101518382015260200161083f565b50505050905090810190601f1680156108845780820380516001836020036101000a031916815260200191505b509250505060405180910390fd5b50505090039056fe746f6b656e7320617265206e6f742079657420726561647920746f2062652072656c65617365646e6f7420656e6f75676820746f6b656e732077616974696e6720746f2062652072656c65617365643ba2646970667358221220367bc7cf46a969a3ec5e9382167315f2b2a6addc1b34b11dca969db22c0ae13364736f6c63430007040033",
  "devdoc": {
    "kind": "dev",
    "methods": {
      "constructor": {
        "params": {
          "_ctsiAddress": "address of compatible ERC20",
          "_timeToRelease": "time it takes from unstake to tokens being unlocked.",
          "_timeToStake": "time it takes for deposited tokens to become staked."
        }
      },
      "getMaturingBalance(address)": {
        "returns": {
          "_0": "amount that will get staked after finalization"
        }
      },
      "getMaturingTimestamp(address)": {
        "returns": {
          "_0": "timestamp of when finalizeStakes() is callable"
        }
      },
      "getReleasingBalance(address)": {
        "returns": {
          "_0": "amount that will get withdrew after finalization"
        }
      },
      "getReleasingTimestamp(address)": {
        "returns": {
          "_0": "timestamp of when finalizeWithdraw() is callable"
        }
      },
      "getStakedBalance(address)": {
        "params": {
          "_userAddress": "user to retrieve staked balance from"
        },
        "returns": {
          "_0": "finalized staked of _userAddress"
        }
      },
      "stake(uint256)": {
        "params": {
          "_amount": "The amount of tokens that are gonna be deposited."
        }
      },
      "unstake(uint256)": {
        "params": {
          "_amount": "The amount of tokens that are gonna be unstaked."
        }
      },
      "withdraw(uint256)": {
        "params": {
          "_amount": "The amount of tokens that are gonna be transferred."
        }
      }
    },
    "version": 1
  },
  "userdoc": {
    "events": {
      "Stake(address,uint256,uint256)": {
        "notice": "CTSI tokens were deposited, they count as stake after _maturationDate"
      },
      "Unstake(address,uint256,uint256)": {
        "notice": "Unstake tokens, moving them to releasing structure"
      },
      "Withdraw(address,uint256)": {
        "notice": "Withdraw process was finalized"
      }
    },
    "kind": "user",
    "methods": {
      "constructor": {
        "notice": "constructor"
      },
      "getMaturingBalance(address)": {
        "notice": "Returns the balance waiting/ready to be matured"
      },
      "getMaturingTimestamp(address)": {
        "notice": "Returns the timestamp when next deposit can be finalized"
      },
      "getReleasingBalance(address)": {
        "notice": "Returns the balance waiting/ready to be released"
      },
      "getReleasingTimestamp(address)": {
        "notice": "Returns the timestamp when next withdraw can be finalized"
      },
      "getStakedBalance(address)": {
        "notice": "Returns total amount of tokens counted as stake"
      },
      "stake(uint256)": {
        "notice": "Deposit CTSI to be staked. The money will turn into staked         balance after timeToStake days"
      },
      "unstake(uint256)": {
        "notice": "Remove tokens from staked balance. The money can         be released after timeToRelease seconds, if the         function withdraw is called."
      },
      "withdraw(uint256)": {
        "notice": "Transfer tokens to user's wallet."
      }
    },
    "version": 1
  },
  "storageLayout": {
    "storage": [
      {
        "astId": 2993,
        "contract": "contracts/StakingImpl.sol:StakingImpl",
        "label": "ctsi",
        "offset": 0,
        "slot": "0",
        "type": "t_contract(IERC20)1492"
      },
      {
        "astId": 2995,
        "contract": "contracts/StakingImpl.sol:StakingImpl",
        "label": "timeToStake",
        "offset": 0,
        "slot": "1",
        "type": "t_uint256"
      },
      {
        "astId": 2997,
        "contract": "contracts/StakingImpl.sol:StakingImpl",
        "label": "timeToRelease",
        "offset": 0,
        "slot": "2",
        "type": "t_uint256"
      },
      {
        "astId": 3001,
        "contract": "contracts/StakingImpl.sol:StakingImpl",
        "label": "staked",
        "offset": 0,
        "slot": "3",
        "type": "t_mapping(t_address,t_uint256)"
      },
      {
        "astId": 3005,
        "contract": "contracts/StakingImpl.sol:StakingImpl",
        "label": "maturing",
        "offset": 0,
        "slot": "4",
        "type": "t_mapping(t_address,t_struct(MaturationStruct)3014_storage)"
      },
      {
        "astId": 3009,
        "contract": "contracts/StakingImpl.sol:StakingImpl",
        "label": "releasing",
        "offset": 0,
        "slot": "5",
        "type": "t_mapping(t_address,t_struct(MaturationStruct)3014_storage)"
      }
    ],
    "types": {
      "t_address": {
        "encoding": "inplace",
        "label": "address",
        "numberOfBytes": "20"
      },
      "t_contract(IERC20)1492": {
        "encoding": "inplace",
        "label": "contract IERC20",
        "numberOfBytes": "20"
      },
      "t_mapping(t_address,t_struct(MaturationStruct)3014_storage)": {
        "encoding": "mapping",
        "key": "t_address",
        "label": "mapping(address => struct StakingImpl.MaturationStruct)",
        "numberOfBytes": "32",
        "value": "t_struct(MaturationStruct)3014_storage"
      },
      "t_mapping(t_address,t_uint256)": {
        "encoding": "mapping",
        "key": "t_address",
        "label": "mapping(address => uint256)",
        "numberOfBytes": "32",
        "value": "t_uint256"
      },
      "t_struct(MaturationStruct)3014_storage": {
        "encoding": "inplace",
        "label": "struct StakingImpl.MaturationStruct",
        "members": [
          {
            "astId": 3011,
            "contract": "contracts/StakingImpl.sol:StakingImpl",
            "label": "amount",
            "offset": 0,
            "slot": "0",
            "type": "t_uint256"
          },
          {
            "astId": 3013,
            "contract": "contracts/StakingImpl.sol:StakingImpl",
            "label": "timestamp",
            "offset": 0,
            "slot": "1",
            "type": "t_uint256"
          }
        ],
        "numberOfBytes": "64"
      },
      "t_uint256": {
        "encoding": "inplace",
        "label": "uint256",
        "numberOfBytes": "32"
      }
    }
  }
}