{
  "contractName": "BlockSelector",
  "sourceName": "contracts/BlockSelector.sol",
  "abi": [
    {
      "anonymous": false,
      "inputs": [
        {
          "indexed": true,
          "internalType": "uint256",
          "name": "index",
          "type": "uint256"
        },
        {
          "indexed": true,
          "internalType": "address",
          "name": "producer",
          "type": "address"
        },
        {
          "indexed": false,
          "internalType": "uint32",
          "name": "blockNumber",
          "type": "uint32"
        },
        {
          "indexed": false,
          "internalType": "uint256",
          "name": "roundDuration",
          "type": "uint256"
        },
        {
          "indexed": false,
          "internalType": "uint256",
          "name": "difficulty",
          "type": "uint256"
        }
      ],
      "name": "BlockProduced",
      "type": "event"
    },
    {
      "inputs": [
        {
          "internalType": "uint256",
          "name": "_index",
          "type": "uint256"
        },
        {
          "internalType": "address",
          "name": "_user",
          "type": "address"
        },
        {
          "internalType": "uint256",
          "name": "_weight",
          "type": "uint256"
        }
      ],
      "name": "canProduceBlock",
      "outputs": [
        {
          "internalType": "bool",
          "name": "",
          "type": "bool"
        }
      ],
      "stateMutability": "view",
      "type": "function"
    },
    {
      "inputs": [],
      "name": "currentIndex",
      "outputs": [
        {
          "internalType": "uint256",
          "name": "",
          "type": "uint256"
        }
      ],
      "stateMutability": "view",
      "type": "function"
    },
    {
      "inputs": [
        {
          "internalType": "uint256",
          "name": "_index",
          "type": "uint256"
        }
      ],
      "name": "getBlockCount",
      "outputs": [
        {
          "internalType": "uint32",
          "name": "",
          "type": "uint32"
        }
      ],
      "stateMutability": "view",
      "type": "function"
    },
    {
      "inputs": [
        {
          "internalType": "uint256",
          "name": "_index",
          "type": "uint256"
        }
      ],
      "name": "getDifficulty",
      "outputs": [
        {
          "internalType": "uint256",
          "name": "",
          "type": "uint256"
        }
      ],
      "stateMutability": "view",
      "type": "function"
    },
    {
      "inputs": [
        {
          "internalType": "uint256",
          "name": "_index",
          "type": "uint256"
        }
      ],
      "name": "getDifficultyAdjustmentParameter",
      "outputs": [
        {
          "internalType": "uint32",
          "name": "",
          "type": "uint32"
        }
      ],
      "stateMutability": "view",
      "type": "function"
    },
    {
      "inputs": [
        {
          "internalType": "uint256",
          "name": "_index",
          "type": "uint256"
        }
      ],
      "name": "getMinDifficulty",
      "outputs": [
        {
          "internalType": "uint256",
          "name": "",
          "type": "uint256"
        }
      ],
      "stateMutability": "view",
      "type": "function"
    },
    {
      "inputs": [
        {
          "internalType": "uint256",
          "name": "_index",
          "type": "uint256"
        }
      ],
      "name": "getNonce",
      "outputs": [
        {
          "internalType": "uint256",
          "name": "currentNonce",
          "type": "uint256"
        }
      ],
      "stateMutability": "view",
      "type": "function"
    },
    {
      "inputs": [
        {
          "internalType": "uint256",
          "name": "_index",
          "type": "uint256"
        }
      ],
      "name": "getSelectionBlockDuration",
      "outputs": [
        {
          "internalType": "uint256",
          "name": "",
          "type": "uint256"
        }
      ],
      "stateMutability": "view",
      "type": "function"
    },
    {
      "inputs": [
        {
          "internalType": "uint256",
          "name": "_index",
          "type": "uint256"
        },
        {
          "internalType": "address",
          "name": "_user",
          "type": "address"
        }
      ],
      "name": "getState",
      "outputs": [
        {
          "internalType": "uint256[5]",
          "name": "_uintValues",
          "type": "uint256[5]"
        }
      ],
      "stateMutability": "view",
      "type": "function"
    },
    {
      "inputs": [
        {
          "internalType": "uint256",
          "name": "",
          "type": "uint256"
        },
        {
          "internalType": "address",
          "name": "",
          "type": "address"
        }
      ],
      "name": "getSubInstances",
      "outputs": [
        {
          "internalType": "address[]",
          "name": "_addresses",
          "type": "address[]"
        },
        {
          "internalType": "uint256[]",
          "name": "_indices",
          "type": "uint256[]"
        }
      ],
      "stateMutability": "pure",
      "type": "function"
    },
    {
      "inputs": [
        {
          "internalType": "uint256",
          "name": "_index",
          "type": "uint256"
        }
      ],
      "name": "getTargetInterval",
      "outputs": [
        {
          "internalType": "uint32",
          "name": "",
          "type": "uint32"
        }
      ],
      "stateMutability": "view",
      "type": "function"
    },
    {
      "inputs": [
        {
          "internalType": "uint256",
          "name": "_minDifficulty",
          "type": "uint256"
        },
        {
          "internalType": "uint256",
          "name": "_initialDifficulty",
          "type": "uint256"
        },
        {
          "internalType": "uint32",
          "name": "_difficultyAdjustmentParameter",
          "type": "uint32"
        },
        {
          "internalType": "uint32",
          "name": "_targetInterval",
          "type": "uint32"
        },
        {
          "internalType": "address",
          "name": "_posManagerAddress",
          "type": "address"
        }
      ],
      "name": "instantiate",
      "outputs": [
        {
          "internalType": "uint256",
          "name": "",
          "type": "uint256"
        }
      ],
      "stateMutability": "nonpayable",
      "type": "function"
    },
    {
      "inputs": [
        {
          "internalType": "uint256",
          "name": "_index",
          "type": "uint256"
        }
      ],
      "name": "isActive",
      "outputs": [
        {
          "internalType": "bool",
          "name": "",
          "type": "bool"
        }
      ],
      "stateMutability": "view",
      "type": "function"
    },
    {
      "inputs": [
        {
          "internalType": "uint256",
          "name": "",
          "type": "uint256"
        },
        {
          "internalType": "address",
          "name": "",
          "type": "address"
        }
      ],
      "name": "isConcerned",
      "outputs": [
        {
          "internalType": "bool",
          "name": "",
          "type": "bool"
        }
      ],
      "stateMutability": "pure",
      "type": "function"
    },
    {
      "inputs": [
        {
          "internalType": "uint256",
          "name": "_num",
          "type": "uint256"
        }
      ],
      "name": "log2ApproxTimes1M",
      "outputs": [
        {
          "internalType": "uint256",
          "name": "",
          "type": "uint256"
        }
      ],
      "stateMutability": "view",
      "type": "function"
    },
    {
      "inputs": [
        {
          "internalType": "uint256",
          "name": "_index",
          "type": "uint256"
        },
        {
          "internalType": "address",
          "name": "_user",
          "type": "address"
        },
        {
          "internalType": "uint256",
          "name": "_weight",
          "type": "uint256"
        }
      ],
      "name": "produceBlock",
      "outputs": [
        {
          "internalType": "bool",
          "name": "",
          "type": "bool"
        }
      ],
      "stateMutability": "nonpayable",
      "type": "function"
    }
  ],
  "bytecode": "0x60806040526000805534801561001457600080fd5b50600360205260007fa15bc60c955c405d20d9149c709e2460f1c2d9a497496a7f46004d1772c3054c819055620f42407fc3a24b0501bd2c13a7e57f2db4369ec4c223447539fc0724a9d55ac4a06ebd4d5562182f427fcbc4e5fb02c3d1de23a9f1e014b4d2ee5aeaea9505df5e855c9210bf472495af55621e84807f83ec6a1f0257b830b5e016457c9cf1435391bf56cc98f369a58a54fe937724655562236e087f405aad32e1adbac89bb7f176e338b8fc6e994ca210c9bb7bdca249b46594225055622771827fc69056f16cbaa3c616b828e333ab7d3a32310765507f8f58359e99ebb7a885f355622ad63a7ff2c49132ed1cee2a7e75bde50d332a2f81f1d01e5456d8a19d1df09bd561dbd255622dc6c07f85aaa47b6dc46495bb8824fad4583769726fea36efd831a35556690b830a8fbe5562305e857f8a8dc4e5242ea8b1ab1d60606dae757e6c2cca9f92a2cced9f72c19960bcb458556232b0487f9dcb9783ba5cd0b54745f65f4f918525e461e91888c334e5342cb380ac558d53556234c9677f2d72af3c1b2b2956e6f694fb741556d5ca9524373974378cdbec16afa8b84164556236b3c27fd56a60595ebefebed7f22dcee6c2acc61b06cf8c68e84c88677840365d1ff92b55623876d77fa8f2d96126c6d0ad63adabaef7bf5cf47f163fb0c218a473d28f62312d197bcf55623a187a7fd6ebcc64c739277b117ce359e436534b234b76e914c80ad276abf5b56207893955623b9d4a7ff60b7f6a315ec68a6ac240e69dca53652b38627f709a2caa217d9e18af4d7a6055623d09007f47d4745e02b343689a5e7ac121d2a352b7a15c10328a8759fd7d4cf0999002bb55623e5ea67ffc111d09a6e2f0958402cbe16a5aef32c9d8ddb9a4df7271140de57bfed6525a55623fa0c57f6a2b6bffaca788160f671fa62d34758b717f75a90ad5a468757c50d61f33c443556240d1777f8a8166be5f30abeb6c91ee2f07eeb0b2eb14b4d59534d10a1c143964bd617919556241f2887f0ffe031ee7f67944a037276fd51f48fcc2fe05a729c43144606bc8777da8014f556243057d7f94f2575c7592b1dfd5a8846a17482da7b0e38fb10c93880d74916c5f167924645562440ba77f370c8c7c6215b209793aa720f65163fbeecd5f5114008532ba0649ee2340540255624506297f0f0519a40093d7edad68f12e2ec868fdf92a03df1cbec3e035c987d6b218f2f4556245f6027fa3ddc4e8d053be09ec661eb04964a206cbd921c2c11fc03088857923bed1485a556246dc107fad96411afed98a37aa585ce71717b0782fa4bee47da09d8f483e532128238611556247b9177f68fc0e82119a780903c8e97d959a36d433d1e401ad7b7a461ff2087e524d54a85562488dc77f925be0b447003e4366d6addf976a9e5448b14e56ca3733fe4a9ca6f86b0dcbd55562495aba7f57023ef7fe58b878582140ea36f22723905ad724896eaf74090fba76c229bd2255624a207c7f4ba0d371c59a4c8176901cb7799ecdd8b41b974be3a1349b5d0a9ff9aaa230d955624adf8a7f6117fee2f1274e1b392d2c3fe842478040a980d896757f38cbfe2ceebfa9f55f55624b98547fbb7ea1d025e27e153f156855239b4b128e9da3a64a6f0a0270f892098958814255624c4b407fe0033292d8349127dd6b6fa9c34f6f3d290151b2785dbcbf18fa2c3985d1f74355624cf8aa7fb79c508b45d95db38395ed273cca5afa4bcb8f1225ec7e9c849430db27d6f0fe55624da0e67f9f4e12e393433b9749089d7660b578840ae05c9423ce1aefceb0c80c340a21c655624e44437f4f8c9d329171a3577e6beb939d329b1f26da4c7a51f25bbe134c866f0feee94555624ee3057f10f5232ee9f6343d8bf0b7c9043a31ee616d8f028dcf3d2e9033ff8e0ce0ef0f55624f7d6d7f37e56e4c2b6ed73b31a7a63e641bfee67245b50921806a650aa65bb58a213ba755625013b77f6e80044b428a86ddb5f7277680f16ac528219bbc3f477f367a023fd1680fef05556250a61a7f10f3a17841c6d818ccbb16e4596978865bb77ba586b583c9de26b166e55de86455625134c87ff787d5ff306ee7ea1d7b35b5cacd5a837646921c113945dbc3a3b6329ce40033556251bff07fa6d60d4ff1c38ae572157a43d1b8579039e4b4cc96e22c75c07379751785fe5155625247bd7ffbefd6df65b5da21e9f0dc3da2df6dc37be71551086f5aba2b0ad548c4758150556252cc587f47bd603b2672149df187087e649a417345c22ebc601af252344b2472b5a5fea85562534de77f181ec19a0f957384e4ecbe9410e516ad0fe8cc3e53caac5ffc50eb11e64bf488556253cc8d7fa4b6f6c87384a4c75064343ffd6646b01b98a7d0701dec60343872fe39d7889455625448697fa7d0f7195d52522be008ca0e9c182cb8d5cdec7c4327b16f8f80417732546566556254c19c7f8a3a0b6f6fa9438554c4aa5bdaf7838f6c90507836aabb33d6ebaeb414e248f955625538427f5f3ffac152518418b730c1b4427b48de47a050e582434504c9ffd15088f0d196556255ac757f28eef39a072497d2105dcb780594e4ed840d3beb94e2ea31a78a935b50a4ae2e5562561e507f3ba015d6b845e102ce2f76836007be82508e3543856f2a3c2ff4b56eb46d920e5562568de97f308b08755ec965f49e4d58d22ebbf80dc425791b553f8567a173e85e1abb76c3556256fb577fda4c88cb8422456e6dbc87bdc0d70fdf69c0f9f7d6833899744759615d2d4cc555625766b07f6a4c132bb6958029ac3595112f46988f11d4ebbbea74e0a2100963f772df62e2556257d0077f1c5556a54fe414bb73b8e027c2ff4bb044a11e7ca4f73a8463fd263d06b76aa6556258376f7f2bb318060b44525c3d947c00393e6d416e9d457a7e83b67b8daab0973739b0fa5562589cfa7f22848320af6c4894685e387cf97d56ba798f5dabcd8f3a2db70374776f0f2f9355625900ba7f7328c223b526ac18a2ca34e3cc928d22c174fde8c81d65ae5d17c01763d134b155625962bc7f4e68cda4a6128fdfebaae69af59e96a318b50754e0da27477d282f3d224cc4fd556259c3137f9c0ea5b0ac1441361bd97a1871d83799b2d794cf29a9954ddc2e33262e005d6755625a21ca7f01c8d1bf01472944f62fa726559c57c955f3535856e865cee78082252c0dbe6555625a7ef17fa171e6dff2e291b2403638b36fa1900bfb6d28056b9cc28339adf04ff3e24b8855625ada947f7bfa808024a5334b0a1e191d8e95f6724ea40d1a03d1286b6934e670f8c6924b55625b34bf7f163a647ba7edd41caabec3eace9ce83f1a89ebea06fc099aa7fb98088da7513155625b8d807f13e779bc7ec8e84a68157fc5c2caa579dc0ee0b80d83944c270539b94cac271f55625be4df7fc20be026ae5ea792bd28b5908d1dfcfd8c2e447d9276607ddf6143e7dddc0fe855625c3aea7ffc869d08d1790d4602743c5b6e4adb33c74c1d0d7c8c47359779d859193dcb0555625c8fa97f682542400590cecd25f82cad25103b4dc125cd3511d319539197c8bb9765a74f55625ce3267fd5310f85f4460a57771b0ba7c922e1273458411836157e863377c3ceba09ccc555625d356c7f885ce2cbc289e24b266643f1b3bd713351837e3869b2fe1821204bfb89df835555625d86837fdd629e5d55690c61d87bb2283f8033a4ed0c9727f0b3cc897e051f7afda800a555625dd6737fbf2d989c23a487b38b309e949c76d08bdddf97e9ae5fc829f5fc1d9822c0dd1955625e25457f8195e934be8e1e1e67e36670679242f3eb3fe013d19203686902c1dc42dff3e455625e73007fea1c8d9962659d05b79d2a74379c386e592caf47911721f070f5587a9f030ffa55625ebfad7f4527180e78e4a6462bf9deb3d847e2025103f904bac3cb89e4a58cffdf5fa00455625f0b527f58c60c4a0bb2d3f34cbaba1a0b564f51356f6627445683dc231bf6b72193af3c55625f55f77fd899c8b99c107ebd126158f0533ed068d266f28a5afc25749942d7d708638c6d55625f9fa27ff2222d92a706d2b36524284936563927b6d77fb3761e96fdbe8143f444bd785b55625fe85a7fd59eb1c08df610a2d207db4db91372b9fa60f3de2255ec3b0fbfc33ac859314955626030247f35cf9ccc5fb50786824d0efe505d33216d9658f34614e7c25f0d5baeb2b0c67255626077087fe7defe1a9ee2663e7f593684ebe15b56452e1fa833a7efa12070ad6443b10819556260bd0a7f0cc2e7a263101f3ec4cff7d64ef5961ae18d1d70e854cb40c5302bf7c043d7b955626102307f21a96d7401b4330badc55cca6afdb5531f4ba2a6923da027f434c4639f5c1d71556261467f7fef8374c201f52e9cadf0358fa9fe81d3b5dc6cfd55611ff392a0f6af5d359a1b55626189fd7ffd55fc2e9ef63e16e696580fa41a16b1359de042d9d894f9176ffec1c194a986556261ccae7f2306dd40301e71102649086fa4506190474e93c93807bd630a59f18e25c479655562620e987fc201016ffcff91372d8b487e0ff78ba4e7738ee54ab48b285b35d264809991125562624fbf7fa484bdabb1b1f1b9f179449ca8abb8e46314b53c02f491f47dc3b425cdc5c27255626290277fca1941ffd2876354dca11a76468fb85895321380bff6312dcbd61b110f22031e556262cfd57f2642cbfa046d8004053cd054e488df5b74257ae1e497e38d227e7244ef11bf2d5562630ecd7f3219ed562b3fd9188a49dd9a57bec5aecadcb61ea33f29053262442c210d825f5562634d127f0913d404e020f0557f3aea1dc8fd0190ea3453f59952e2c41e4746bdfcd39c785562638aa97f81df324fbe7ec2f6d6affc089132b5517e4c091511c539ecfb5003bac7e24648556263c7967f0d4058d6b6bac28a1c06101425f18eb1ca62098acfc503f321647be92939156d55626403dc7f2023c3bd05b942cf6cbd5cd645de4d3fea19926fd4838b16303d2ed6275084725562643f7f7fb9c7405fdb60827a063770d15a9163cf3257eafb54d63ebc3245e8170763b9ae5562647a827f6b9240d7ade1f051aed76811ad8dd613b8df4c244b38ce53081de0fea8fec673556264b4e87f767e32fd18349f6756b14c9960d71c7fab8d03be981e4c9c8d4aa06a28b66047556264eeb57f95505a17747b834552dc9f252b9911e949b8ffdf7a51d678a6bd11af986b15de55626527ec7f60193afc785b329e0409b25280ddad469386cea4adcdaee645046ba068f899a555626560907f6b16ef514f22b74729cbea5cc7babfecbdc2309e530ca716643d11fe929eed2e55626598a37f5ed25f7f90ee98fc55a6c59d7b052a857d4bf613ad8f5f7fd8077c1e252c6c1a556265d0297feaaacae94bbfc90c56bc9f09c078e38d09be79409287043ed56adc78213c210955626607247fd3f86b308abd5a5ac58ed63770d3a598e1ef2fea81b795d05851b62b55f860e15562663d977fc7f3482db4b48d5b39d680ce04da2e80d893166f9e18fa49855f2d75c8538dc955626673857f8bd72d705e704e96ab1fa5baf1ac8053f4ec008dca8cf0376ca60a5648fa9532556266a8f07f7b2f1db823434eb2c3257b921622f3b73c33ed78ab6344072b7d0d89829cce01556266ddda7f296cfac21069339fcd7b6795214eac09a46f358e68cba56520ec496c3c1f4ad555626712477fb567f360362dc4a027220042f6ee0433026937822e3fc3bc268ec5f820d029fa55626746387fbca97d98b7da2037de81c9a55b229109649fd288e0c478a01cd149c3609ae90b55626779af7f0de2b21138735878e0660eef23d1131fad23d66157bfa1c473a82b60c5169926556267acaf7e4ef3f825c8849c73999f6e84fcb0332c1597fa3afbd85f7f1f35c7ac696bc2556267df3a7f9ff053d1d05d615e9da14e487ea593a41d5f35a8cc975b547dec50b34f0a1fc355626811527fbb4ac5d7b238e09f0346251f5f12e6fe98711019a88910e6a64f47bf73e6c3c255626842fa7f934d131d2cde113c982d8c5aa4cd3a36418695634bde518aa36ccc61a54277a455626874327f171401a72e6158e4ccfac50451ab80b54a8a49fb38ddbe4a9fa1dc4621db11df556268a4fc7f158cf96e390593ec3d9db70f55562909ef65f4603e50b9bf4a3df75ee2795f30556268d55c7f8a6b747e4193754f5887d456542feeee62a909f5cc32e46553fc5e84632ffaaf55626905537fbaba906220955b09fec23b575e20afa7d08161b8520bb9d5ec850371b93edf9855626934e17fb5a42588d5297c2c9a9751ba5ae38977af4907b8f80318e93daca5c46498c2f2556269640a7fe372c44748f4c2908ae7c0a1dc553464478b0394f70953faecd55173b039317c55626992cf7fb8ffc108b5770692dc6f82cd58a35d7f10f432156bbe6b494657d1d60f3c1122556269c1317f0c91243f75e216cf1d80d738f653c23abf15a7e3590b83c6e4772e2ddcffe533556269ef327fc6c1f2eeb875766781b69c94cb973ac6e9b00bb16318d283df0af503db0f700d55626a1cd47feed16813d2f65d55dfcd646492ebe0107b86489aa89e1ee58b4c544f69fec4ae55626a4a187fc0731efbb8e22f33f65c29aab21810b779ac375fa7bc4012aa97121e576839e055626a76ff7f4f927caeb3971f91fa48df6c469df5f4f4dedc93d1908f816f25a660193dc17155626aa38c7fbb77812a8fa7fa6a572953fea9126358f3aec9cde938b0c1788d783c38ffd2cb5560809052626acfc07f3429d6fa9db26e5631128d8185584d24f10323af033be7ff252ec8822b07bae155610f058061132c6000396000f3fe608060405234801561001057600080fd5b50600436106101005760003560e01c806383f6f5ca11610097578063d0aeade711610066578063d0aeade7146103b3578063da1c7140146103d0578063e3581b6814610419578063f90700441461043657610100565b806383f6f5ca14610297578063983ef725146102b4578063c526656c146102d1578063c67ddc381461039657610100565b80635378014f116100d35780635378014f146101b257806359dc826c146101e457806373df16121461021657806382afd23b1461027a57610100565b806301ff62ab1461010557806326987b60146101455780633d46b8191461015f5780634e58fdca1461017c575b600080fd5b6101316004803603604081101561011b57600080fd5b50803590602001356001600160a01b0316610453565b604080519115158252519081900360200190f35b61014d61045c565b60408051918252519081900360200190f35b61014d6004803603602081101561017557600080fd5b5035610462565b6101996004803603602081101561019257600080fd5b5035610513565b6040805163ffffffff9092168252519081900360200190f35b610131600480360360608110156101c857600080fd5b508035906001600160a01b036020820135169060400135610538565b610131600480360360608110156101fa57600080fd5b508035906001600160a01b03602082013516906040013561066e565b6102426004803603604081101561022c57600080fd5b50803590602001356001600160a01b03166106dd565b604051808260a080838360005b8381101561026757818101518382015260200161024f565b5050505090500191505060405180910390f35b6101316004803603602081101561029057600080fd5b503561075c565b61014d600480360360208110156102ad57600080fd5b5035610771565b61014d600480360360208110156102ca57600080fd5b5035610783565b6102fd600480360360408110156102e757600080fd5b50803590602001356001600160a01b0316610798565b604051808060200180602001838103835285818151815260200191508051906020019060200280838360005b83811015610341578181015183820152602001610329565b50505050905001838103825284818151815260200191508051906020019060200280838360005b83811015610380578181015183820152602001610368565b5050505090500194505050505060405180910390f35b61014d600480360360208110156103ac57600080fd5b50356107e5565b610199600480360360208110156103c957600080fd5b503561080d565b61014d600480360360a08110156103e657600080fd5b50803590602081013590604081013563ffffffff90811691606081013590911690608001356001600160a01b031661082f565b61014d6004803603602081101561042f57600080fd5b503561090a565b6101996004803603602081101561044c57600080fd5b50356109a9565b60005b92915050565b60005481565b60008180600054116104b4576040805162461bcd60e51b8152602060048201526016602482015275125b99195e081b9bdd081a5b9cdd185b9d1a585d195960521b604482015290519081900360640190fd5b6104bd8161075c565b6104ff576040805162461bcd60e51b815260206004820152600e60248201526d496e64657820696e61637469766560901b604482015290519081900360640190fd5b505060009081526002602052604090205490565b600081815260046020526040902060020154600160a01b900463ffffffff165b919050565b6000838152600460205260408120826105825760405162461bcd60e51b8152600401808060200182810382526024815260200180610eac6024913960400191505060405180910390fd5b60028101546001600160a01b031633146105cd5760405162461bcd60e51b815260040180806020018281038252602a815260200180610e61602a913960400191505060405180910390fd5b6105d885858561066e565b1561066157836001600160a01b0316857f14aa79ee14fcd694c30b9c3f6d41247d2e0c87bfefec35a6864d124e8086467283600201601c9054906101000a900463ffffffff16610627896107e5565b60018601546040805163ffffffff9094168452602084019290925282820152519081900360600190a3610659856109cb565b915050610667565b60009150505b9392505050565b6000838152600460205260408120600381015463ffffffff90811660010116431161069d576000915050610667565b60006106a8866107e5565b90506106c86106b78787610a38565b600184015490630f42400003610ad7565b6106d28583610ad7565b119695505050505050565b6106e5610e42565b60008381526004602052604090206106fb610e42565b6040518060a001604052804381526020018360030160009054906101000a900463ffffffff1660010163ffffffff16815260200183600101548152602001610742876107e5565b81526020016107518787610a38565b905295945050505050565b60009081526001602052604090205460ff1690565b60009081526004602052604090205490565b60009081526004602052604090206001015490565b606080808060006040519080825280602002602001820160405280156107c8578160200160208202803683370190505b506040805160008152602081019091529097909650945050505050565b6000818152600460205260408120600381015461066790439063ffffffff90811690610b3016565b600090815260046020526040902060020154600160e01b900463ffffffff1690565b600080548152600460209081526040808320889055825483528083206001908101889055835484528184206002908101805463ffffffff60a01b1916600160a01b63ffffffff8b81169190910291909117909155855486528386208201805463ffffffff60c01b1916600160c01b8a8416021790558554865283862090910180546001600160a01b0319166001600160a01b03881617905584548552828520600301805463ffffffff19164390921691909117905583548452918290528220805460ff19168217905581549081019091555b95945050505050565b6000808211610958576040805162461bcd60e51b81526020600482015260156024820152744e756d6265722063616e6e6f74206265207a65726f60581b604482015290519081900360640190fd5b6000826001141561096d576000915050610533565b5b608083111561098357600192831c920161096e565b600083815260036020526040902054610667906109a383620f4240610ad7565b90610b72565b600090815260046020526040902060020154600160c01b900463ffffffff1690565b6000818152600460205260408120805460018201546003830154610a21929190610a0090439063ffffffff90811690610b3016565b600285015463ffffffff600160c01b8204811691600160a01b900416610bcc565b6001820155610a2f83610c5a565b50600192915050565b6000828152600460205260408120600301548190610a629063ffffffff9081166001011643610caf565b604080516bffffffffffffffffffffffff19606087901b166020808301919091528251808303601401815260348301845280519082012060548301819052934060748084018290528451808503909101815260949093019093528151910120909250610acd8161090a565b9695505050505050565b600082610ae657506000610456565b82820282848281610af357fe5b04146106675760405162461bcd60e51b8152600401808060200182810382526021815260200180610e8b6021913960400191505060405180910390fd5b600061066783836040518060400160405280601e81526020017f536166654d6174683a207375627472616374696f6e206f766572666c6f770000815250610d09565b600082820183811015610667576040805162461bcd60e51b815260206004820152601b60248201527f536166654d6174683a206164646974696f6e206f766572666c6f770000000000604482015290519081900360640190fd5b60008263ffffffff168463ffffffff1611610c1557610c0e610c04620f4240610bfe8863ffffffff80881690610ad716565b90610da0565b8690600101610b72565b9050610901565b6000610c3e610c34620f4240610bfe8963ffffffff80891690610ad716565b8790600101610b30565b9050868111610c4d5786610c4f565b805b979650505050505050565b60009081526004602052604090206002810180546001600160e01b038116600160e01b9182900463ffffffff9081166001018116909202179091556003909101805463ffffffff191643909216919091179055565b600080610cbc8385610b30565b90506000610ccc82610100610da0565b90506101008206610cfa57610cf1610cea6000198301610100610ad7565b8690610b72565b92505050610456565b610901610cea82610100610ad7565b60008184841115610d985760405162461bcd60e51b81526004018080602001828103825283818151815260200191508051906020019080838360005b83811015610d5d578181015183820152602001610d45565b50505050905090810190601f168015610d8a5780820380516001836020036101000a031916815260200191505b509250505060405180910390fd5b505050900390565b600061066783836040518060400160405280601a81526020017f536166654d6174683a206469766973696f6e206279207a65726f00000000000081525060008183610e2c5760405162461bcd60e51b8152602060048201818152835160248401528351909283926044909101919085019080838360008315610d5d578181015183820152602001610d45565b506000838581610e3857fe5b0495945050505050565b6040518060a00160405280600590602082028036833750919291505056fe46756e6374696f6e2063616e206f6e6c792062652063616c6c656420627920706f732061646472657373536166654d6174683a206d756c7469706c69636174696f6e206f766572666c6f7743616c6c65722063616e27742068617665207a65726f207374616b656420746f6b656e73a2646970667358221220f7e6968af6241c136c3165364d5b4833208b0fa31bca090cc0712c911fba89bc64736f6c63430007040033",
  "linkReferences": {},
  "deployedLinkReferences": {},
  "devdoc": {
    "kind": "dev",
    "methods": {
      "canProduceBlock(uint256,address,uint256)": {
        "params": {
          "_index": "the index of the instance of block selector you want to interact with",
          "_user": "the address that is gonna get checked",
          "_weight": "number that will weight the random number, most likely will be the number of staked tokens"
        }
      },
      "getBlockCount(uint256)": {
        "params": {
          "_index": "the index of the instance of block selector to be interact with"
        },
        "returns": {
          "_0": "number of blocks"
        }
      },
      "getDifficulty(uint256)": {
        "params": {
          "_index": "the index of the instance of block selector to be interact with"
        },
        "returns": {
          "_0": "difficulty of current selection"
        }
      },
      "getDifficultyAdjustmentParameter(uint256)": {
        "params": {
          "_index": "the index of the instance of block selector to be interact with"
        },
        "returns": {
          "_0": "difficulty adjustment parameter"
        }
      },
      "getMinDifficulty(uint256)": {
        "params": {
          "_index": "the index of the instance of block selector to be interact with"
        },
        "returns": {
          "_0": "min difficulty of instance"
        }
      },
      "getSelectionBlockDuration(uint256)": {
        "params": {
          "_index": "the index of the instance of block selector to be interact with"
        },
        "returns": {
          "_0": "number of etheereum blocks passed since last selection started"
        }
      },
      "getTargetInterval(uint256)": {
        "params": {
          "_index": "the index of the instance of block selector to be interact with"
        },
        "returns": {
          "_0": "target interval"
        }
      },
      "instantiate(uint256,uint256,uint32,uint32,address)": {
        "params": {
          "_difficultyAdjustmentParameter": "how quickly the difficulty gets updated according to the difference between time passed and target interval.",
          "_initialDifficulty": "starting difficulty",
          "_minDifficulty": "lower bound for difficulty parameter",
          "_posManagerAddress": "address of ProofOfStake that will use this instance",
          "_targetInterval": "how often we want produce noether blocks, in ethereum blocks"
        }
      },
      "log2ApproxTimes1M(uint256)": {
        "params": {
          "_num": "number to take log2 * 1M of"
        }
      },
      "produceBlock(uint256,address,uint256)": {
        "params": {
          "_index": "the index of the instance of block selector you want to interact with",
          "_user": "address that has the right to produce block",
          "_weight": "number that will weight the random number, will be the number of staked tokens"
        }
      }
    },
    "version": 1
  },
  "evm": {
    "bytecode": {
      "linkReferences": {},
      "opcodes": "PUSH1 0x80 PUSH1 0x40 MSTORE PUSH1 0x0 DUP1 SSTORE CALLVALUE DUP1 ISZERO PUSH2 0x14 JUMPI PUSH1 0x0 DUP1 REVERT JUMPDEST POP PUSH1 0x3 PUSH1 0x20 MSTORE PUSH1 0x0 PUSH32 0xA15BC60C955C405D20D9149C709E2460F1C2D9A497496A7F46004D1772C3054C DUP2 SWAP1 SSTORE PUSH3 0xF4240 PUSH32 0xC3A24B0501BD2C13A7E57F2DB4369EC4C223447539FC0724A9D55AC4A06EBD4D SSTORE PUSH3 0x182F42 PUSH32 0xCBC4E5FB02C3D1DE23A9F1E014B4D2EE5AEAEA9505DF5E855C9210BF472495AF SSTORE PUSH3 0x1E8480 PUSH32 0x83EC6A1F0257B830B5E016457C9CF1435391BF56CC98F369A58A54FE93772465 SSTORE PUSH3 0x236E08 PUSH32 0x405AAD32E1ADBAC89BB7F176E338B8FC6E994CA210C9BB7BDCA249B465942250 SSTORE PUSH3 0x277182 PUSH32 0xC69056F16CBAA3C616B828E333AB7D3A32310765507F8F58359E99EBB7A885F3 SSTORE PUSH3 0x2AD63A PUSH32 0xF2C49132ED1CEE2A7E75BDE50D332A2F81F1D01E5456D8A19D1DF09BD561DBD2 SSTORE PUSH3 0x2DC6C0 PUSH32 0x85AAA47B6DC46495BB8824FAD4583769726FEA36EFD831A35556690B830A8FBE SSTORE PUSH3 0x305E85 PUSH32 0x8A8DC4E5242EA8B1AB1D60606DAE757E6C2CCA9F92A2CCED9F72C19960BCB458 SSTORE PUSH3 0x32B048 PUSH32 0x9DCB9783BA5CD0B54745F65F4F918525E461E91888C334E5342CB380AC558D53 SSTORE PUSH3 0x34C967 PUSH32 0x2D72AF3C1B2B2956E6F694FB741556D5CA9524373974378CDBEC16AFA8B84164 SSTORE PUSH3 0x36B3C2 PUSH32 0xD56A60595EBEFEBED7F22DCEE6C2ACC61B06CF8C68E84C88677840365D1FF92B SSTORE PUSH3 0x3876D7 PUSH32 0xA8F2D96126C6D0AD63ADABAEF7BF5CF47F163FB0C218A473D28F62312D197BCF SSTORE PUSH3 0x3A187A PUSH32 0xD6EBCC64C739277B117CE359E436534B234B76E914C80AD276ABF5B562078939 SSTORE PUSH3 0x3B9D4A PUSH32 0xF60B7F6A315EC68A6AC240E69DCA53652B38627F709A2CAA217D9E18AF4D7A60 SSTORE PUSH3 0x3D0900 PUSH32 0x47D4745E02B343689A5E7AC121D2A352B7A15C10328A8759FD7D4CF0999002BB SSTORE PUSH3 0x3E5EA6 PUSH32 0xFC111D09A6E2F0958402CBE16A5AEF32C9D8DDB9A4DF7271140DE57BFED6525A SSTORE PUSH3 0x3FA0C5 PUSH32 0x6A2B6BFFACA788160F671FA62D34758B717F75A90AD5A468757C50D61F33C443 SSTORE PUSH3 0x40D177 PUSH32 0x8A8166BE5F30ABEB6C91EE2F07EEB0B2EB14B4D59534D10A1C143964BD617919 SSTORE PUSH3 0x41F288 PUSH32 0xFFE031EE7F67944A037276FD51F48FCC2FE05A729C43144606BC8777DA8014F SSTORE PUSH3 0x43057D PUSH32 0x94F2575C7592B1DFD5A8846A17482DA7B0E38FB10C93880D74916C5F16792464 SSTORE PUSH3 0x440BA7 PUSH32 0x370C8C7C6215B209793AA720F65163FBEECD5F5114008532BA0649EE23405402 SSTORE PUSH3 0x450629 PUSH32 0xF0519A40093D7EDAD68F12E2EC868FDF92A03DF1CBEC3E035C987D6B218F2F4 SSTORE PUSH3 0x45F602 PUSH32 0xA3DDC4E8D053BE09EC661EB04964A206CBD921C2C11FC03088857923BED1485A SSTORE PUSH3 0x46DC10 PUSH32 0xAD96411AFED98A37AA585CE71717B0782FA4BEE47DA09D8F483E532128238611 SSTORE PUSH3 0x47B917 PUSH32 0x68FC0E82119A780903C8E97D959A36D433D1E401AD7B7A461FF2087E524D54A8 SSTORE PUSH3 0x488DC7 PUSH32 0x925BE0B447003E4366D6ADDF976A9E5448B14E56CA3733FE4A9CA6F86B0DCBD5 SSTORE PUSH3 0x495ABA PUSH32 0x57023EF7FE58B878582140EA36F22723905AD724896EAF74090FBA76C229BD22 SSTORE PUSH3 0x4A207C PUSH32 0x4BA0D371C59A4C8176901CB7799ECDD8B41B974BE3A1349B5D0A9FF9AAA230D9 SSTORE PUSH3 0x4ADF8A PUSH32 0x6117FEE2F1274E1B392D2C3FE842478040A980D896757F38CBFE2CEEBFA9F55F SSTORE PUSH3 0x4B9854 PUSH32 0xBB7EA1D025E27E153F156855239B4B128E9DA3A64A6F0A0270F8920989588142 SSTORE PUSH3 0x4C4B40 PUSH32 0xE0033292D8349127DD6B6FA9C34F6F3D290151B2785DBCBF18FA2C3985D1F743 SSTORE PUSH3 0x4CF8AA PUSH32 0xB79C508B45D95DB38395ED273CCA5AFA4BCB8F1225EC7E9C849430DB27D6F0FE SSTORE PUSH3 0x4DA0E6 PUSH32 0x9F4E12E393433B9749089D7660B578840AE05C9423CE1AEFCEB0C80C340A21C6 SSTORE PUSH3 0x4E4443 PUSH32 0x4F8C9D329171A3577E6BEB939D329B1F26DA4C7A51F25BBE134C866F0FEEE945 SSTORE PUSH3 0x4EE305 PUSH32 0x10F5232EE9F6343D8BF0B7C9043A31EE616D8F028DCF3D2E9033FF8E0CE0EF0F SSTORE PUSH3 0x4F7D6D PUSH32 0x37E56E4C2B6ED73B31A7A63E641BFEE67245B50921806A650AA65BB58A213BA7 SSTORE PUSH3 0x5013B7 PUSH32 0x6E80044B428A86DDB5F7277680F16AC528219BBC3F477F367A023FD1680FEF05 SSTORE PUSH3 0x50A61A PUSH32 0x10F3A17841C6D818CCBB16E4596978865BB77BA586B583C9DE26B166E55DE864 SSTORE PUSH3 0x5134C8 PUSH32 0xF787D5FF306EE7EA1D7B35B5CACD5A837646921C113945DBC3A3B6329CE40033 SSTORE PUSH3 0x51BFF0 PUSH32 0xA6D60D4FF1C38AE572157A43D1B8579039E4B4CC96E22C75C07379751785FE51 SSTORE PUSH3 0x5247BD PUSH32 0xFBEFD6DF65B5DA21E9F0DC3DA2DF6DC37BE71551086F5ABA2B0AD548C4758150 SSTORE PUSH3 0x52CC58 PUSH32 0x47BD603B2672149DF187087E649A417345C22EBC601AF252344B2472B5A5FEA8 SSTORE PUSH3 0x534DE7 PUSH32 0x181EC19A0F957384E4ECBE9410E516AD0FE8CC3E53CAAC5FFC50EB11E64BF488 SSTORE PUSH3 0x53CC8D PUSH32 0xA4B6F6C87384A4C75064343FFD6646B01B98A7D0701DEC60343872FE39D78894 SSTORE PUSH3 0x544869 PUSH32 0xA7D0F7195D52522BE008CA0E9C182CB8D5CDEC7C4327B16F8F80417732546566 SSTORE PUSH3 0x54C19C PUSH32 0x8A3A0B6F6FA9438554C4AA5BDAF7838F6C90507836AABB33D6EBAEB414E248F9 SSTORE PUSH3 0x553842 PUSH32 0x5F3FFAC152518418B730C1B4427B48DE47A050E582434504C9FFD15088F0D196 SSTORE PUSH3 0x55AC75 PUSH32 0x28EEF39A072497D2105DCB780594E4ED840D3BEB94E2EA31A78A935B50A4AE2E SSTORE PUSH3 0x561E50 PUSH32 0x3BA015D6B845E102CE2F76836007BE82508E3543856F2A3C2FF4B56EB46D920E SSTORE PUSH3 0x568DE9 PUSH32 0x308B08755EC965F49E4D58D22EBBF80DC425791B553F8567A173E85E1ABB76C3 SSTORE PUSH3 0x56FB57 PUSH32 0xDA4C88CB8422456E6DBC87BDC0D70FDF69C0F9F7D6833899744759615D2D4CC5 SSTORE PUSH3 0x5766B0 PUSH32 0x6A4C132BB6958029AC3595112F46988F11D4EBBBEA74E0A2100963F772DF62E2 SSTORE PUSH3 0x57D007 PUSH32 0x1C5556A54FE414BB73B8E027C2FF4BB044A11E7CA4F73A8463FD263D06B76AA6 SSTORE PUSH3 0x58376F PUSH32 0x2BB318060B44525C3D947C00393E6D416E9D457A7E83B67B8DAAB0973739B0FA SSTORE PUSH3 0x589CFA PUSH32 0x22848320AF6C4894685E387CF97D56BA798F5DABCD8F3A2DB70374776F0F2F93 SSTORE PUSH3 0x5900BA PUSH32 0x7328C223B526AC18A2CA34E3CC928D22C174FDE8C81D65AE5D17C01763D134B1 SSTORE PUSH3 0x5962BC PUSH32 0x4E68CDA4A6128FDFEBAAE69AF59E96A318B50754E0DA27477D282F3D224CC4FD SSTORE PUSH3 0x59C313 PUSH32 0x9C0EA5B0AC1441361BD97A1871D83799B2D794CF29A9954DDC2E33262E005D67 SSTORE PUSH3 0x5A21CA PUSH32 0x1C8D1BF01472944F62FA726559C57C955F3535856E865CEE78082252C0DBE65 SSTORE PUSH3 0x5A7EF1 PUSH32 0xA171E6DFF2E291B2403638B36FA1900BFB6D28056B9CC28339ADF04FF3E24B88 SSTORE PUSH3 0x5ADA94 PUSH32 0x7BFA808024A5334B0A1E191D8E95F6724EA40D1A03D1286B6934E670F8C6924B SSTORE PUSH3 0x5B34BF PUSH32 0x163A647BA7EDD41CAABEC3EACE9CE83F1A89EBEA06FC099AA7FB98088DA75131 SSTORE PUSH3 0x5B8D80 PUSH32 0x13E779BC7EC8E84A68157FC5C2CAA579DC0EE0B80D83944C270539B94CAC271F SSTORE PUSH3 0x5BE4DF PUSH32 0xC20BE026AE5EA792BD28B5908D1DFCFD8C2E447D9276607DDF6143E7DDDC0FE8 SSTORE PUSH3 0x5C3AEA PUSH32 0xFC869D08D1790D4602743C5B6E4ADB33C74C1D0D7C8C47359779D859193DCB05 SSTORE PUSH3 0x5C8FA9 PUSH32 0x682542400590CECD25F82CAD25103B4DC125CD3511D319539197C8BB9765A74F SSTORE PUSH3 0x5CE326 PUSH32 0xD5310F85F4460A57771B0BA7C922E1273458411836157E863377C3CEBA09CCC5 SSTORE PUSH3 0x5D356C PUSH32 0x885CE2CBC289E24B266643F1B3BD713351837E3869B2FE1821204BFB89DF8355 SSTORE PUSH3 0x5D8683 PUSH32 0xDD629E5D55690C61D87BB2283F8033A4ED0C9727F0B3CC897E051F7AFDA800A5 SSTORE PUSH3 0x5DD673 PUSH32 0xBF2D989C23A487B38B309E949C76D08BDDDF97E9AE5FC829F5FC1D9822C0DD19 SSTORE PUSH3 0x5E2545 PUSH32 0x8195E934BE8E1E1E67E36670679242F3EB3FE013D19203686902C1DC42DFF3E4 SSTORE PUSH3 0x5E7300 PUSH32 0xEA1C8D9962659D05B79D2A74379C386E592CAF47911721F070F5587A9F030FFA SSTORE PUSH3 0x5EBFAD PUSH32 0x4527180E78E4A6462BF9DEB3D847E2025103F904BAC3CB89E4A58CFFDF5FA004 SSTORE PUSH3 0x5F0B52 PUSH32 0x58C60C4A0BB2D3F34CBABA1A0B564F51356F6627445683DC231BF6B72193AF3C SSTORE PUSH3 0x5F55F7 PUSH32 0xD899C8B99C107EBD126158F0533ED068D266F28A5AFC25749942D7D708638C6D SSTORE PUSH3 0x5F9FA2 PUSH32 0xF2222D92A706D2B36524284936563927B6D77FB3761E96FDBE8143F444BD785B SSTORE PUSH3 0x5FE85A PUSH32 0xD59EB1C08DF610A2D207DB4DB91372B9FA60F3DE2255EC3B0FBFC33AC8593149 SSTORE PUSH3 0x603024 PUSH32 0x35CF9CCC5FB50786824D0EFE505D33216D9658F34614E7C25F0D5BAEB2B0C672 SSTORE PUSH3 0x607708 PUSH32 0xE7DEFE1A9EE2663E7F593684EBE15B56452E1FA833A7EFA12070AD6443B10819 SSTORE PUSH3 0x60BD0A PUSH32 0xCC2E7A263101F3EC4CFF7D64EF5961AE18D1D70E854CB40C5302BF7C043D7B9 SSTORE PUSH3 0x610230 PUSH32 0x21A96D7401B4330BADC55CCA6AFDB5531F4BA2A6923DA027F434C4639F5C1D71 SSTORE PUSH3 0x61467F PUSH32 0xEF8374C201F52E9CADF0358FA9FE81D3B5DC6CFD55611FF392A0F6AF5D359A1B SSTORE PUSH3 0x6189FD PUSH32 0xFD55FC2E9EF63E16E696580FA41A16B1359DE042D9D894F9176FFEC1C194A986 SSTORE PUSH3 0x61CCAE PUSH32 0x2306DD40301E71102649086FA4506190474E93C93807BD630A59F18E25C47965 SSTORE PUSH3 0x620E98 PUSH32 0xC201016FFCFF91372D8B487E0FF78BA4E7738EE54AB48B285B35D26480999112 SSTORE PUSH3 0x624FBF PUSH32 0xA484BDABB1B1F1B9F179449CA8ABB8E46314B53C02F491F47DC3B425CDC5C272 SSTORE PUSH3 0x629027 PUSH32 0xCA1941FFD2876354DCA11A76468FB85895321380BFF6312DCBD61B110F22031E SSTORE PUSH3 0x62CFD5 PUSH32 0x2642CBFA046D8004053CD054E488DF5B74257AE1E497E38D227E7244EF11BF2D SSTORE PUSH3 0x630ECD PUSH32 0x3219ED562B3FD9188A49DD9A57BEC5AECADCB61EA33F29053262442C210D825F SSTORE PUSH3 0x634D12 PUSH32 0x913D404E020F0557F3AEA1DC8FD0190EA3453F59952E2C41E4746BDFCD39C78 SSTORE PUSH3 0x638AA9 PUSH32 0x81DF324FBE7EC2F6D6AFFC089132B5517E4C091511C539ECFB5003BAC7E24648 SSTORE PUSH3 0x63C796 PUSH32 0xD4058D6B6BAC28A1C06101425F18EB1CA62098ACFC503F321647BE92939156D SSTORE PUSH3 0x6403DC PUSH32 0x2023C3BD05B942CF6CBD5CD645DE4D3FEA19926FD4838B16303D2ED627508472 SSTORE PUSH3 0x643F7F PUSH32 0xB9C7405FDB60827A063770D15A9163CF3257EAFB54D63EBC3245E8170763B9AE SSTORE PUSH3 0x647A82 PUSH32 0x6B9240D7ADE1F051AED76811AD8DD613B8DF4C244B38CE53081DE0FEA8FEC673 SSTORE PUSH3 0x64B4E8 PUSH32 0x767E32FD18349F6756B14C9960D71C7FAB8D03BE981E4C9C8D4AA06A28B66047 SSTORE PUSH3 0x64EEB5 PUSH32 0x95505A17747B834552DC9F252B9911E949B8FFDF7A51D678A6BD11AF986B15DE SSTORE PUSH3 0x6527EC PUSH32 0x60193AFC785B329E0409B25280DDAD469386CEA4ADCDAEE645046BA068F899A5 SSTORE PUSH3 0x656090 PUSH32 0x6B16EF514F22B74729CBEA5CC7BABFECBDC2309E530CA716643D11FE929EED2E SSTORE PUSH3 0x6598A3 PUSH32 0x5ED25F7F90EE98FC55A6C59D7B052A857D4BF613AD8F5F7FD8077C1E252C6C1A SSTORE PUSH3 0x65D029 PUSH32 0xEAAACAE94BBFC90C56BC9F09C078E38D09BE79409287043ED56ADC78213C2109 SSTORE PUSH3 0x660724 PUSH32 0xD3F86B308ABD5A5AC58ED63770D3A598E1EF2FEA81B795D05851B62B55F860E1 SSTORE PUSH3 0x663D97 PUSH32 0xC7F3482DB4B48D5B39D680CE04DA2E80D893166F9E18FA49855F2D75C8538DC9 SSTORE PUSH3 0x667385 PUSH32 0x8BD72D705E704E96AB1FA5BAF1AC8053F4EC008DCA8CF0376CA60A5648FA9532 SSTORE PUSH3 0x66A8F0 PUSH32 0x7B2F1DB823434EB2C3257B921622F3B73C33ED78AB6344072B7D0D89829CCE01 SSTORE PUSH3 0x66DDDA PUSH32 0x296CFAC21069339FCD7B6795214EAC09A46F358E68CBA56520EC496C3C1F4AD5 SSTORE PUSH3 0x671247 PUSH32 0xB567F360362DC4A027220042F6EE0433026937822E3FC3BC268EC5F820D029FA SSTORE PUSH3 0x674638 PUSH32 0xBCA97D98B7DA2037DE81C9A55B229109649FD288E0C478A01CD149C3609AE90B SSTORE PUSH3 0x6779AF PUSH32 0xDE2B21138735878E0660EEF23D1131FAD23D66157BFA1C473A82B60C5169926 SSTORE PUSH3 0x67ACAF PUSH31 0x4EF3F825C8849C73999F6E84FCB0332C1597FA3AFBD85F7F1F35C7AC696BC2 SSTORE PUSH3 0x67DF3A PUSH32 0x9FF053D1D05D615E9DA14E487EA593A41D5F35A8CC975B547DEC50B34F0A1FC3 SSTORE PUSH3 0x681152 PUSH32 0xBB4AC5D7B238E09F0346251F5F12E6FE98711019A88910E6A64F47BF73E6C3C2 SSTORE PUSH3 0x6842FA PUSH32 0x934D131D2CDE113C982D8C5AA4CD3A36418695634BDE518AA36CCC61A54277A4 SSTORE PUSH3 0x687432 PUSH32 0x171401A72E6158E4CCFAC50451AB80B54A8A49FB38DDBE4A9FA1DC4621DB11DF SSTORE PUSH3 0x68A4FC PUSH32 0x158CF96E390593EC3D9DB70F55562909EF65F4603E50B9BF4A3DF75EE2795F30 SSTORE PUSH3 0x68D55C PUSH32 0x8A6B747E4193754F5887D456542FEEEE62A909F5CC32E46553FC5E84632FFAAF SSTORE PUSH3 0x690553 PUSH32 0xBABA906220955B09FEC23B575E20AFA7D08161B8520BB9D5EC850371B93EDF98 SSTORE PUSH3 0x6934E1 PUSH32 0xB5A42588D5297C2C9A9751BA5AE38977AF4907B8F80318E93DACA5C46498C2F2 SSTORE PUSH3 0x69640A PUSH32 0xE372C44748F4C2908AE7C0A1DC553464478B0394F70953FAECD55173B039317C SSTORE PUSH3 0x6992CF PUSH32 0xB8FFC108B5770692DC6F82CD58A35D7F10F432156BBE6B494657D1D60F3C1122 SSTORE PUSH3 0x69C131 PUSH32 0xC91243F75E216CF1D80D738F653C23ABF15A7E3590B83C6E4772E2DDCFFE533 SSTORE PUSH3 0x69EF32 PUSH32 0xC6C1F2EEB875766781B69C94CB973AC6E9B00BB16318D283DF0AF503DB0F700D SSTORE PUSH3 0x6A1CD4 PUSH32 0xEED16813D2F65D55DFCD646492EBE0107B86489AA89E1EE58B4C544F69FEC4AE SSTORE PUSH3 0x6A4A18 PUSH32 0xC0731EFBB8E22F33F65C29AAB21810B779AC375FA7BC4012AA97121E576839E0 SSTORE PUSH3 0x6A76FF PUSH32 0x4F927CAEB3971F91FA48DF6C469DF5F4F4DEDC93D1908F816F25A660193DC171 SSTORE PUSH3 0x6AA38C PUSH32 0xBB77812A8FA7FA6A572953FEA9126358F3AEC9CDE938B0C1788D783C38FFD2CB SSTORE PUSH1 0x80 SWAP1 MSTORE PUSH3 0x6ACFC0 PUSH32 0x3429D6FA9DB26E5631128D8185584D24F10323AF033BE7FF252EC8822B07BAE1 SSTORE PUSH2 0xF05 DUP1 PUSH2 0x132C PUSH1 0x0 CODECOPY PUSH1 0x0 RETURN INVALID PUSH1 0x80 PUSH1 0x40 MSTORE CALLVALUE DUP1 ISZERO PUSH2 0x10 JUMPI PUSH1 0x0 DUP1 REVERT JUMPDEST POP PUSH1 0x4 CALLDATASIZE LT PUSH2 0x100 JUMPI PUSH1 0x0 CALLDATALOAD PUSH1 0xE0 SHR DUP1 PUSH4 0x83F6F5CA GT PUSH2 0x97 JUMPI DUP1 PUSH4 0xD0AEADE7 GT PUSH2 0x66 JUMPI DUP1 PUSH4 0xD0AEADE7 EQ PUSH2 0x3B3 JUMPI DUP1 PUSH4 0xDA1C7140 EQ PUSH2 0x3D0 JUMPI DUP1 PUSH4 0xE3581B68 EQ PUSH2 0x419 JUMPI DUP1 PUSH4 0xF9070044 EQ PUSH2 0x436 JUMPI PUSH2 0x100 JUMP JUMPDEST DUP1 PUSH4 0x83F6F5CA EQ PUSH2 0x297 JUMPI DUP1 PUSH4 0x983EF725 EQ PUSH2 0x2B4 JUMPI DUP1 PUSH4 0xC526656C EQ PUSH2 0x2D1 JUMPI DUP1 PUSH4 0xC67DDC38 EQ PUSH2 0x396 JUMPI PUSH2 0x100 JUMP JUMPDEST DUP1 PUSH4 0x5378014F GT PUSH2 0xD3 JUMPI DUP1 PUSH4 0x5378014F EQ PUSH2 0x1B2 JUMPI DUP1 PUSH4 0x59DC826C EQ PUSH2 0x1E4 JUMPI DUP1 PUSH4 0x73DF1612 EQ PUSH2 0x216 JUMPI DUP1 PUSH4 0x82AFD23B EQ PUSH2 0x27A JUMPI PUSH2 0x100 JUMP JUMPDEST DUP1 PUSH4 0x1FF62AB EQ PUSH2 0x105 JUMPI DUP1 PUSH4 0x26987B60 EQ PUSH2 0x145 JUMPI DUP1 PUSH4 0x3D46B819 EQ PUSH2 0x15F JUMPI DUP1 PUSH4 0x4E58FDCA EQ PUSH2 0x17C JUMPI JUMPDEST PUSH1 0x0 DUP1 REVERT JUMPDEST PUSH2 0x131 PUSH1 0x4 DUP1 CALLDATASIZE SUB PUSH1 0x40 DUP2 LT ISZERO PUSH2 0x11B JUMPI PUSH1 0x0 DUP1 REVERT JUMPDEST POP DUP1 CALLDATALOAD SWAP1 PUSH1 0x20 ADD CALLDATALOAD PUSH1 0x1 PUSH1 0x1 PUSH1 0xA0 SHL SUB AND PUSH2 0x453 JUMP JUMPDEST PUSH1 0x40 DUP1 MLOAD SWAP2 ISZERO ISZERO DUP3 MSTORE MLOAD SWAP1 DUP2 SWAP1 SUB PUSH1 0x20 ADD SWAP1 RETURN JUMPDEST PUSH2 0x14D PUSH2 0x45C JUMP JUMPDEST PUSH1 0x40 DUP1 MLOAD SWAP2 DUP3 MSTORE MLOAD SWAP1 DUP2 SWAP1 SUB PUSH1 0x20 ADD SWAP1 RETURN JUMPDEST PUSH2 0x14D PUSH1 0x4 DUP1 CALLDATASIZE SUB PUSH1 0x20 DUP2 LT ISZERO PUSH2 0x175 JUMPI PUSH1 0x0 DUP1 REVERT JUMPDEST POP CALLDATALOAD PUSH2 0x462 JUMP JUMPDEST PUSH2 0x199 PUSH1 0x4 DUP1 CALLDATASIZE SUB PUSH1 0x20 DUP2 LT ISZERO PUSH2 0x192 JUMPI PUSH1 0x0 DUP1 REVERT JUMPDEST POP CALLDATALOAD PUSH2 0x513 JUMP JUMPDEST PUSH1 0x40 DUP1 MLOAD PUSH4 0xFFFFFFFF SWAP1 SWAP3 AND DUP3 MSTORE MLOAD SWAP1 DUP2 SWAP1 SUB PUSH1 0x20 ADD SWAP1 RETURN JUMPDEST PUSH2 0x131 PUSH1 0x4 DUP1 CALLDATASIZE SUB PUSH1 0x60 DUP2 LT ISZERO PUSH2 0x1C8 JUMPI PUSH1 0x0 DUP1 REVERT JUMPDEST POP DUP1 CALLDATALOAD SWAP1 PUSH1 0x1 PUSH1 0x1 PUSH1 0xA0 SHL SUB PUSH1 0x20 DUP3 ADD CALLDATALOAD AND SWAP1 PUSH1 0x40 ADD CALLDATALOAD PUSH2 0x538 JUMP JUMPDEST PUSH2 0x131 PUSH1 0x4 DUP1 CALLDATASIZE SUB PUSH1 0x60 DUP2 LT ISZERO PUSH2 0x1FA JUMPI PUSH1 0x0 DUP1 REVERT JUMPDEST POP DUP1 CALLDATALOAD SWAP1 PUSH1 0x1 PUSH1 0x1 PUSH1 0xA0 SHL SUB PUSH1 0x20 DUP3 ADD CALLDATALOAD AND SWAP1 PUSH1 0x40 ADD CALLDATALOAD PUSH2 0x66E JUMP JUMPDEST PUSH2 0x242 PUSH1 0x4 DUP1 CALLDATASIZE SUB PUSH1 0x40 DUP2 LT ISZERO PUSH2 0x22C JUMPI PUSH1 0x0 DUP1 REVERT JUMPDEST POP DUP1 CALLDATALOAD SWAP1 PUSH1 0x20 ADD CALLDATALOAD PUSH1 0x1 PUSH1 0x1 PUSH1 0xA0 SHL SUB AND PUSH2 0x6DD JUMP JUMPDEST PUSH1 0x40 MLOAD DUP1 DUP3 PUSH1 0xA0 DUP1 DUP4 DUP4 PUSH1 0x0 JUMPDEST DUP4 DUP2 LT ISZERO PUSH2 0x267 JUMPI DUP2 DUP2 ADD MLOAD DUP4 DUP3 ADD MSTORE PUSH1 0x20 ADD PUSH2 0x24F JUMP JUMPDEST POP POP POP POP SWAP1 POP ADD SWAP2 POP POP PUSH1 0x40 MLOAD DUP1 SWAP2 SUB SWAP1 RETURN JUMPDEST PUSH2 0x131 PUSH1 0x4 DUP1 CALLDATASIZE SUB PUSH1 0x20 DUP2 LT ISZERO PUSH2 0x290 JUMPI PUSH1 0x0 DUP1 REVERT JUMPDEST POP CALLDATALOAD PUSH2 0x75C JUMP JUMPDEST PUSH2 0x14D PUSH1 0x4 DUP1 CALLDATASIZE SUB PUSH1 0x20 DUP2 LT ISZERO PUSH2 0x2AD JUMPI PUSH1 0x0 DUP1 REVERT JUMPDEST POP CALLDATALOAD PUSH2 0x771 JUMP JUMPDEST PUSH2 0x14D PUSH1 0x4 DUP1 CALLDATASIZE SUB PUSH1 0x20 DUP2 LT ISZERO PUSH2 0x2CA JUMPI PUSH1 0x0 DUP1 REVERT JUMPDEST POP CALLDATALOAD PUSH2 0x783 JUMP JUMPDEST PUSH2 0x2FD PUSH1 0x4 DUP1 CALLDATASIZE SUB PUSH1 0x40 DUP2 LT ISZERO PUSH2 0x2E7 JUMPI PUSH1 0x0 DUP1 REVERT JUMPDEST POP DUP1 CALLDATALOAD SWAP1 PUSH1 0x20 ADD CALLDATALOAD PUSH1 0x1 PUSH1 0x1 PUSH1 0xA0 SHL SUB AND PUSH2 0x798 JUMP JUMPDEST PUSH1 0x40 MLOAD DUP1 DUP1 PUSH1 0x20 ADD DUP1 PUSH1 0x20 ADD DUP4 DUP2 SUB DUP4 MSTORE DUP6 DUP2 DUP2 MLOAD DUP2 MSTORE PUSH1 0x20 ADD SWAP2 POP DUP1 MLOAD SWAP1 PUSH1 0x20 ADD SWAP1 PUSH1 0x20 MUL DUP1 DUP4 DUP4 PUSH1 0x0 JUMPDEST DUP4 DUP2 LT ISZERO PUSH2 0x341 JUMPI DUP2 DUP2 ADD MLOAD DUP4 DUP3 ADD MSTORE PUSH1 0x20 ADD PUSH2 0x329 JUMP JUMPDEST POP POP POP POP SWAP1 POP ADD DUP4 DUP2 SUB DUP3 MSTORE DUP5 DUP2 DUP2 MLOAD DUP2 MSTORE PUSH1 0x20 ADD SWAP2 POP DUP1 MLOAD SWAP1 PUSH1 0x20 ADD SWAP1 PUSH1 0x20 MUL DUP1 DUP4 DUP4 PUSH1 0x0 JUMPDEST DUP4 DUP2 LT ISZERO PUSH2 0x380 JUMPI DUP2 DUP2 ADD MLOAD DUP4 DUP3 ADD MSTORE PUSH1 0x20 ADD PUSH2 0x368 JUMP JUMPDEST POP POP POP POP SWAP1 POP ADD SWAP5 POP POP POP POP POP PUSH1 0x40 MLOAD DUP1 SWAP2 SUB SWAP1 RETURN JUMPDEST PUSH2 0x14D PUSH1 0x4 DUP1 CALLDATASIZE SUB PUSH1 0x20 DUP2 LT ISZERO PUSH2 0x3AC JUMPI PUSH1 0x0 DUP1 REVERT JUMPDEST POP CALLDATALOAD PUSH2 0x7E5 JUMP JUMPDEST PUSH2 0x199 PUSH1 0x4 DUP1 CALLDATASIZE SUB PUSH1 0x20 DUP2 LT ISZERO PUSH2 0x3C9 JUMPI PUSH1 0x0 DUP1 REVERT JUMPDEST POP CALLDATALOAD PUSH2 0x80D JUMP JUMPDEST PUSH2 0x14D PUSH1 0x4 DUP1 CALLDATASIZE SUB PUSH1 0xA0 DUP2 LT ISZERO PUSH2 0x3E6 JUMPI PUSH1 0x0 DUP1 REVERT JUMPDEST POP DUP1 CALLDATALOAD SWAP1 PUSH1 0x20 DUP2 ADD CALLDATALOAD SWAP1 PUSH1 0x40 DUP2 ADD CALLDATALOAD PUSH4 0xFFFFFFFF SWAP1 DUP2 AND SWAP2 PUSH1 0x60 DUP2 ADD CALLDATALOAD SWAP1 SWAP2 AND SWAP1 PUSH1 0x80 ADD CALLDATALOAD PUSH1 0x1 PUSH1 0x1 PUSH1 0xA0 SHL SUB AND PUSH2 0x82F JUMP JUMPDEST PUSH2 0x14D PUSH1 0x4 DUP1 CALLDATASIZE SUB PUSH1 0x20 DUP2 LT ISZERO PUSH2 0x42F JUMPI PUSH1 0x0 DUP1 REVERT JUMPDEST POP CALLDATALOAD PUSH2 0x90A JUMP JUMPDEST PUSH2 0x199 PUSH1 0x4 DUP1 CALLDATASIZE SUB PUSH1 0x20 DUP2 LT ISZERO PUSH2 0x44C JUMPI PUSH1 0x0 DUP1 REVERT JUMPDEST POP CALLDATALOAD PUSH2 0x9A9 JUMP JUMPDEST PUSH1 0x0 JUMPDEST SWAP3 SWAP2 POP POP JUMP JUMPDEST PUSH1 0x0 SLOAD DUP2 JUMP JUMPDEST PUSH1 0x0 DUP2 DUP1 PUSH1 0x0 SLOAD GT PUSH2 0x4B4 JUMPI PUSH1 0x40 DUP1 MLOAD PUSH3 0x461BCD PUSH1 0xE5 SHL DUP2 MSTORE PUSH1 0x20 PUSH1 0x4 DUP3 ADD MSTORE PUSH1 0x16 PUSH1 0x24 DUP3 ADD MSTORE PUSH22 0x125B99195E081B9BDD081A5B9CDD185B9D1A585D1959 PUSH1 0x52 SHL PUSH1 0x44 DUP3 ADD MSTORE SWAP1 MLOAD SWAP1 DUP2 SWAP1 SUB PUSH1 0x64 ADD SWAP1 REVERT JUMPDEST PUSH2 0x4BD DUP2 PUSH2 0x75C JUMP JUMPDEST PUSH2 0x4FF JUMPI PUSH1 0x40 DUP1 MLOAD PUSH3 0x461BCD PUSH1 0xE5 SHL DUP2 MSTORE PUSH1 0x20 PUSH1 0x4 DUP3 ADD MSTORE PUSH1 0xE PUSH1 0x24 DUP3 ADD MSTORE PUSH14 0x496E64657820696E616374697665 PUSH1 0x90 SHL PUSH1 0x44 DUP3 ADD MSTORE SWAP1 MLOAD SWAP1 DUP2 SWAP1 SUB PUSH1 0x64 ADD SWAP1 REVERT JUMPDEST POP POP PUSH1 0x0 SWAP1 DUP2 MSTORE PUSH1 0x2 PUSH1 0x20 MSTORE PUSH1 0x40 SWAP1 KECCAK256 SLOAD SWAP1 JUMP JUMPDEST PUSH1 0x0 DUP2 DUP2 MSTORE PUSH1 0x4 PUSH1 0x20 MSTORE PUSH1 0x40 SWAP1 KECCAK256 PUSH1 0x2 ADD SLOAD PUSH1 0x1 PUSH1 0xA0 SHL SWAP1 DIV PUSH4 0xFFFFFFFF AND JUMPDEST SWAP2 SWAP1 POP JUMP JUMPDEST PUSH1 0x0 DUP4 DUP2 MSTORE PUSH1 0x4 PUSH1 0x20 MSTORE PUSH1 0x40 DUP2 KECCAK256 DUP3 PUSH2 0x582 JUMPI PUSH1 0x40 MLOAD PUSH3 0x461BCD PUSH1 0xE5 SHL DUP2 MSTORE PUSH1 0x4 ADD DUP1 DUP1 PUSH1 0x20 ADD DUP3 DUP2 SUB DUP3 MSTORE PUSH1 0x24 DUP2 MSTORE PUSH1 0x20 ADD DUP1 PUSH2 0xEAC PUSH1 0x24 SWAP2 CODECOPY PUSH1 0x40 ADD SWAP2 POP POP PUSH1 0x40 MLOAD DUP1 SWAP2 SUB SWAP1 REVERT JUMPDEST PUSH1 0x2 DUP2 ADD SLOAD PUSH1 0x1 PUSH1 0x1 PUSH1 0xA0 SHL SUB AND CALLER EQ PUSH2 0x5CD JUMPI PUSH1 0x40 MLOAD PUSH3 0x461BCD PUSH1 0xE5 SHL DUP2 MSTORE PUSH1 0x4 ADD DUP1 DUP1 PUSH1 0x20 ADD DUP3 DUP2 SUB DUP3 MSTORE PUSH1 0x2A DUP2 MSTORE PUSH1 0x20 ADD DUP1 PUSH2 0xE61 PUSH1 0x2A SWAP2 CODECOPY PUSH1 0x40 ADD SWAP2 POP POP PUSH1 0x40 MLOAD DUP1 SWAP2 SUB SWAP1 REVERT JUMPDEST PUSH2 0x5D8 DUP6 DUP6 DUP6 PUSH2 0x66E JUMP JUMPDEST ISZERO PUSH2 0x661 JUMPI DUP4 PUSH1 0x1 PUSH1 0x1 PUSH1 0xA0 SHL SUB AND DUP6 PUSH32 0x14AA79EE14FCD694C30B9C3F6D41247D2E0C87BFEFEC35A6864D124E80864672 DUP4 PUSH1 0x2 ADD PUSH1 0x1C SWAP1 SLOAD SWAP1 PUSH2 0x100 EXP SWAP1 DIV PUSH4 0xFFFFFFFF AND PUSH2 0x627 DUP10 PUSH2 0x7E5 JUMP JUMPDEST PUSH1 0x1 DUP7 ADD SLOAD PUSH1 0x40 DUP1 MLOAD PUSH4 0xFFFFFFFF SWAP1 SWAP5 AND DUP5 MSTORE PUSH1 0x20 DUP5 ADD SWAP3 SWAP1 SWAP3 MSTORE DUP3 DUP3 ADD MSTORE MLOAD SWAP1 DUP2 SWAP1 SUB PUSH1 0x60 ADD SWAP1 LOG3 PUSH2 0x659 DUP6 PUSH2 0x9CB JUMP JUMPDEST SWAP2 POP POP PUSH2 0x667 JUMP JUMPDEST PUSH1 0x0 SWAP2 POP POP JUMPDEST SWAP4 SWAP3 POP POP POP JUMP JUMPDEST PUSH1 0x0 DUP4 DUP2 MSTORE PUSH1 0x4 PUSH1 0x20 MSTORE PUSH1 0x40 DUP2 KECCAK256 PUSH1 0x3 DUP2 ADD SLOAD PUSH4 0xFFFFFFFF SWAP1 DUP2 AND PUSH1 0x1 ADD AND NUMBER GT PUSH2 0x69D JUMPI PUSH1 0x0 SWAP2 POP POP PUSH2 0x667 JUMP JUMPDEST PUSH1 0x0 PUSH2 0x6A8 DUP7 PUSH2 0x7E5 JUMP JUMPDEST SWAP1 POP PUSH2 0x6C8 PUSH2 0x6B7 DUP8 DUP8 PUSH2 0xA38 JUMP JUMPDEST PUSH1 0x1 DUP5 ADD SLOAD SWAP1 PUSH4 0xF424000 SUB PUSH2 0xAD7 JUMP JUMPDEST PUSH2 0x6D2 DUP6 DUP4 PUSH2 0xAD7 JUMP JUMPDEST GT SWAP7 SWAP6 POP POP POP POP POP POP JUMP JUMPDEST PUSH2 0x6E5 PUSH2 0xE42 JUMP JUMPDEST PUSH1 0x0 DUP4 DUP2 MSTORE PUSH1 0x4 PUSH1 0x20 MSTORE PUSH1 0x40 SWAP1 KECCAK256 PUSH2 0x6FB PUSH2 0xE42 JUMP JUMPDEST PUSH1 0x40 MLOAD DUP1 PUSH1 0xA0 ADD PUSH1 0x40 MSTORE DUP1 NUMBER DUP2 MSTORE PUSH1 0x20 ADD DUP4 PUSH1 0x3 ADD PUSH1 0x0 SWAP1 SLOAD SWAP1 PUSH2 0x100 EXP SWAP1 DIV PUSH4 0xFFFFFFFF AND PUSH1 0x1 ADD PUSH4 0xFFFFFFFF AND DUP2 MSTORE PUSH1 0x20 ADD DUP4 PUSH1 0x1 ADD SLOAD DUP2 MSTORE PUSH1 0x20 ADD PUSH2 0x742 DUP8 PUSH2 0x7E5 JUMP JUMPDEST DUP2 MSTORE PUSH1 0x20 ADD PUSH2 0x751 DUP8 DUP8 PUSH2 0xA38 JUMP JUMPDEST SWAP1 MSTORE SWAP6 SWAP5 POP POP POP POP POP JUMP JUMPDEST PUSH1 0x0 SWAP1 DUP2 MSTORE PUSH1 0x1 PUSH1 0x20 MSTORE PUSH1 0x40 SWAP1 KECCAK256 SLOAD PUSH1 0xFF AND SWAP1 JUMP JUMPDEST PUSH1 0x0 SWAP1 DUP2 MSTORE PUSH1 0x4 PUSH1 0x20 MSTORE PUSH1 0x40 SWAP1 KECCAK256 SLOAD SWAP1 JUMP JUMPDEST PUSH1 0x0 SWAP1 DUP2 MSTORE PUSH1 0x4 PUSH1 0x20 MSTORE PUSH1 0x40 SWAP1 KECCAK256 PUSH1 0x1 ADD SLOAD SWAP1 JUMP JUMPDEST PUSH1 0x60 DUP1 DUP1 DUP1 PUSH1 0x0 PUSH1 0x40 MLOAD SWAP1 DUP1 DUP3 MSTORE DUP1 PUSH1 0x20 MUL PUSH1 0x20 ADD DUP3 ADD PUSH1 0x40 MSTORE DUP1 ISZERO PUSH2 0x7C8 JUMPI DUP2 PUSH1 0x20 ADD PUSH1 0x20 DUP3 MUL DUP1 CALLDATASIZE DUP4 CALLDATACOPY ADD SWAP1 POP JUMPDEST POP PUSH1 0x40 DUP1 MLOAD PUSH1 0x0 DUP2 MSTORE PUSH1 0x20 DUP2 ADD SWAP1 SWAP2 MSTORE SWAP1 SWAP8 SWAP1 SWAP7 POP SWAP5 POP POP POP POP POP JUMP JUMPDEST PUSH1 0x0 DUP2 DUP2 MSTORE PUSH1 0x4 PUSH1 0x20 MSTORE PUSH1 0x40 DUP2 KECCAK256 PUSH1 0x3 DUP2 ADD SLOAD PUSH2 0x667 SWAP1 NUMBER SWAP1 PUSH4 0xFFFFFFFF SWAP1 DUP2 AND SWAP1 PUSH2 0xB30 AND JUMP JUMPDEST PUSH1 0x0 SWAP1 DUP2 MSTORE PUSH1 0x4 PUSH1 0x20 MSTORE PUSH1 0x40 SWAP1 KECCAK256 PUSH1 0x2 ADD SLOAD PUSH1 0x1 PUSH1 0xE0 SHL SWAP1 DIV PUSH4 0xFFFFFFFF AND SWAP1 JUMP JUMPDEST PUSH1 0x0 DUP1 SLOAD DUP2 MSTORE PUSH1 0x4 PUSH1 0x20 SWAP1 DUP2 MSTORE PUSH1 0x40 DUP1 DUP4 KECCAK256 DUP9 SWAP1 SSTORE DUP3 SLOAD DUP4 MSTORE DUP1 DUP4 KECCAK256 PUSH1 0x1 SWAP1 DUP2 ADD DUP9 SWAP1 SSTORE DUP4 SLOAD DUP5 MSTORE DUP2 DUP5 KECCAK256 PUSH1 0x2 SWAP1 DUP2 ADD DUP1 SLOAD PUSH4 0xFFFFFFFF PUSH1 0xA0 SHL NOT AND PUSH1 0x1 PUSH1 0xA0 SHL PUSH4 0xFFFFFFFF DUP12 DUP2 AND SWAP2 SWAP1 SWAP2 MUL SWAP2 SWAP1 SWAP2 OR SWAP1 SWAP2 SSTORE DUP6 SLOAD DUP7 MSTORE DUP4 DUP7 KECCAK256 DUP3 ADD DUP1 SLOAD PUSH4 0xFFFFFFFF PUSH1 0xC0 SHL NOT AND PUSH1 0x1 PUSH1 0xC0 SHL DUP11 DUP5 AND MUL OR SWAP1 SSTORE DUP6 SLOAD DUP7 MSTORE DUP4 DUP7 KECCAK256 SWAP1 SWAP2 ADD DUP1 SLOAD PUSH1 0x1 PUSH1 0x1 PUSH1 0xA0 SHL SUB NOT AND PUSH1 0x1 PUSH1 0x1 PUSH1 0xA0 SHL SUB DUP9 AND OR SWAP1 SSTORE DUP5 SLOAD DUP6 MSTORE DUP3 DUP6 KECCAK256 PUSH1 0x3 ADD DUP1 SLOAD PUSH4 0xFFFFFFFF NOT AND NUMBER SWAP1 SWAP3 AND SWAP2 SWAP1 SWAP2 OR SWAP1 SSTORE DUP4 SLOAD DUP5 MSTORE SWAP2 DUP3 SWAP1 MSTORE DUP3 KECCAK256 DUP1 SLOAD PUSH1 0xFF NOT AND DUP3 OR SWAP1 SSTORE DUP2 SLOAD SWAP1 DUP2 ADD SWAP1 SWAP2 SSTORE JUMPDEST SWAP6 SWAP5 POP POP POP POP POP JUMP JUMPDEST PUSH1 0x0 DUP1 DUP3 GT PUSH2 0x958 JUMPI PUSH1 0x40 DUP1 MLOAD PUSH3 0x461BCD PUSH1 0xE5 SHL DUP2 MSTORE PUSH1 0x20 PUSH1 0x4 DUP3 ADD MSTORE PUSH1 0x15 PUSH1 0x24 DUP3 ADD MSTORE PUSH21 0x4E756D6265722063616E6E6F74206265207A65726F PUSH1 0x58 SHL PUSH1 0x44 DUP3 ADD MSTORE SWAP1 MLOAD SWAP1 DUP2 SWAP1 SUB PUSH1 0x64 ADD SWAP1 REVERT JUMPDEST PUSH1 0x0 DUP3 PUSH1 0x1 EQ ISZERO PUSH2 0x96D JUMPI PUSH1 0x0 SWAP2 POP POP PUSH2 0x533 JUMP JUMPDEST JUMPDEST PUSH1 0x80 DUP4 GT ISZERO PUSH2 0x983 JUMPI PUSH1 0x1 SWAP3 DUP4 SHR SWAP3 ADD PUSH2 0x96E JUMP JUMPDEST PUSH1 0x0 DUP4 DUP2 MSTORE PUSH1 0x3 PUSH1 0x20 MSTORE PUSH1 0x40 SWAP1 KECCAK256 SLOAD PUSH2 0x667 SWAP1 PUSH2 0x9A3 DUP4 PUSH3 0xF4240 PUSH2 0xAD7 JUMP JUMPDEST SWAP1 PUSH2 0xB72 JUMP JUMPDEST PUSH1 0x0 SWAP1 DUP2 MSTORE PUSH1 0x4 PUSH1 0x20 MSTORE PUSH1 0x40 SWAP1 KECCAK256 PUSH1 0x2 ADD SLOAD PUSH1 0x1 PUSH1 0xC0 SHL SWAP1 DIV PUSH4 0xFFFFFFFF AND SWAP1 JUMP JUMPDEST PUSH1 0x0 DUP2 DUP2 MSTORE PUSH1 0x4 PUSH1 0x20 MSTORE PUSH1 0x40 DUP2 KECCAK256 DUP1 SLOAD PUSH1 0x1 DUP3 ADD SLOAD PUSH1 0x3 DUP4 ADD SLOAD PUSH2 0xA21 SWAP3 SWAP2 SWAP1 PUSH2 0xA00 SWAP1 NUMBER SWAP1 PUSH4 0xFFFFFFFF SWAP1 DUP2 AND SWAP1 PUSH2 0xB30 AND JUMP JUMPDEST PUSH1 0x2 DUP6 ADD SLOAD PUSH4 0xFFFFFFFF PUSH1 0x1 PUSH1 0xC0 SHL DUP3 DIV DUP2 AND SWAP2 PUSH1 0x1 PUSH1 0xA0 SHL SWAP1 DIV AND PUSH2 0xBCC JUMP JUMPDEST PUSH1 0x1 DUP3 ADD SSTORE PUSH2 0xA2F DUP4 PUSH2 0xC5A JUMP JUMPDEST POP PUSH1 0x1 SWAP3 SWAP2 POP POP JUMP JUMPDEST PUSH1 0x0 DUP3 DUP2 MSTORE PUSH1 0x4 PUSH1 0x20 MSTORE PUSH1 0x40 DUP2 KECCAK256 PUSH1 0x3 ADD SLOAD DUP2 SWAP1 PUSH2 0xA62 SWAP1 PUSH4 0xFFFFFFFF SWAP1 DUP2 AND PUSH1 0x1 ADD AND NUMBER PUSH2 0xCAF JUMP JUMPDEST PUSH1 0x40 DUP1 MLOAD PUSH12 0xFFFFFFFFFFFFFFFFFFFFFFFF NOT PUSH1 0x60 DUP8 SWAP1 SHL AND PUSH1 0x20 DUP1 DUP4 ADD SWAP2 SWAP1 SWAP2 MSTORE DUP3 MLOAD DUP1 DUP4 SUB PUSH1 0x14 ADD DUP2 MSTORE PUSH1 0x34 DUP4 ADD DUP5 MSTORE DUP1 MLOAD SWAP1 DUP3 ADD KECCAK256 PUSH1 0x54 DUP4 ADD DUP2 SWAP1 MSTORE SWAP4 BLOCKHASH PUSH1 0x74 DUP1 DUP5 ADD DUP3 SWAP1 MSTORE DUP5 MLOAD DUP1 DUP6 SUB SWAP1 SWAP2 ADD DUP2 MSTORE PUSH1 0x94 SWAP1 SWAP4 ADD SWAP1 SWAP4 MSTORE DUP2 MLOAD SWAP2 ADD KECCAK256 SWAP1 SWAP3 POP PUSH2 0xACD DUP2 PUSH2 0x90A JUMP JUMPDEST SWAP7 SWAP6 POP POP POP POP POP POP JUMP JUMPDEST PUSH1 0x0 DUP3 PUSH2 0xAE6 JUMPI POP PUSH1 0x0 PUSH2 0x456 JUMP JUMPDEST DUP3 DUP3 MUL DUP3 DUP5 DUP3 DUP2 PUSH2 0xAF3 JUMPI INVALID JUMPDEST DIV EQ PUSH2 0x667 JUMPI PUSH1 0x40 MLOAD PUSH3 0x461BCD PUSH1 0xE5 SHL DUP2 MSTORE PUSH1 0x4 ADD DUP1 DUP1 PUSH1 0x20 ADD DUP3 DUP2 SUB DUP3 MSTORE PUSH1 0x21 DUP2 MSTORE PUSH1 0x20 ADD DUP1 PUSH2 0xE8B PUSH1 0x21 SWAP2 CODECOPY PUSH1 0x40 ADD SWAP2 POP POP PUSH1 0x40 MLOAD DUP1 SWAP2 SUB SWAP1 REVERT JUMPDEST PUSH1 0x0 PUSH2 0x667 DUP4 DUP4 PUSH1 0x40 MLOAD DUP1 PUSH1 0x40 ADD PUSH1 0x40 MSTORE DUP1 PUSH1 0x1E DUP2 MSTORE PUSH1 0x20 ADD PUSH32 0x536166654D6174683A207375627472616374696F6E206F766572666C6F770000 DUP2 MSTORE POP PUSH2 0xD09 JUMP JUMPDEST PUSH1 0x0 DUP3 DUP3 ADD DUP4 DUP2 LT ISZERO PUSH2 0x667 JUMPI PUSH1 0x40 DUP1 MLOAD PUSH3 0x461BCD PUSH1 0xE5 SHL DUP2 MSTORE PUSH1 0x20 PUSH1 0x4 DUP3 ADD MSTORE PUSH1 0x1B PUSH1 0x24 DUP3 ADD MSTORE PUSH32 0x536166654D6174683A206164646974696F6E206F766572666C6F770000000000 PUSH1 0x44 DUP3 ADD MSTORE SWAP1 MLOAD SWAP1 DUP2 SWAP1 SUB PUSH1 0x64 ADD SWAP1 REVERT JUMPDEST PUSH1 0x0 DUP3 PUSH4 0xFFFFFFFF AND DUP5 PUSH4 0xFFFFFFFF AND GT PUSH2 0xC15 JUMPI PUSH2 0xC0E PUSH2 0xC04 PUSH3 0xF4240 PUSH2 0xBFE DUP9 PUSH4 0xFFFFFFFF DUP1 DUP9 AND SWAP1 PUSH2 0xAD7 AND JUMP JUMPDEST SWAP1 PUSH2 0xDA0 JUMP JUMPDEST DUP7 SWAP1 PUSH1 0x1 ADD PUSH2 0xB72 JUMP JUMPDEST SWAP1 POP PUSH2 0x901 JUMP JUMPDEST PUSH1 0x0 PUSH2 0xC3E PUSH2 0xC34 PUSH3 0xF4240 PUSH2 0xBFE DUP10 PUSH4 0xFFFFFFFF DUP1 DUP10 AND SWAP1 PUSH2 0xAD7 AND JUMP JUMPDEST DUP8 SWAP1 PUSH1 0x1 ADD PUSH2 0xB30 JUMP JUMPDEST SWAP1 POP DUP7 DUP2 GT PUSH2 0xC4D JUMPI DUP7 PUSH2 0xC4F JUMP JUMPDEST DUP1 JUMPDEST SWAP8 SWAP7 POP POP POP POP POP POP POP JUMP JUMPDEST PUSH1 0x0 SWAP1 DUP2 MSTORE PUSH1 0x4 PUSH1 0x20 MSTORE PUSH1 0x40 SWAP1 KECCAK256 PUSH1 0x2 DUP2 ADD DUP1 SLOAD PUSH1 0x1 PUSH1 0x1 PUSH1 0xE0 SHL SUB DUP2 AND PUSH1 0x1 PUSH1 0xE0 SHL SWAP2 DUP3 SWAP1 DIV PUSH4 0xFFFFFFFF SWAP1 DUP2 AND PUSH1 0x1 ADD DUP2 AND SWAP1 SWAP3 MUL OR SWAP1 SWAP2 SSTORE PUSH1 0x3 SWAP1 SWAP2 ADD DUP1 SLOAD PUSH4 0xFFFFFFFF NOT AND NUMBER SWAP1 SWAP3 AND SWAP2 SWAP1 SWAP2 OR SWAP1 SSTORE JUMP JUMPDEST PUSH1 0x0 DUP1 PUSH2 0xCBC DUP4 DUP6 PUSH2 0xB30 JUMP JUMPDEST SWAP1 POP PUSH1 0x0 PUSH2 0xCCC DUP3 PUSH2 0x100 PUSH2 0xDA0 JUMP JUMPDEST SWAP1 POP PUSH2 0x100 DUP3 MOD PUSH2 0xCFA JUMPI PUSH2 0xCF1 PUSH2 0xCEA PUSH1 0x0 NOT DUP4 ADD PUSH2 0x100 PUSH2 0xAD7 JUMP JUMPDEST DUP7 SWAP1 PUSH2 0xB72 JUMP JUMPDEST SWAP3 POP POP POP PUSH2 0x456 JUMP JUMPDEST PUSH2 0x901 PUSH2 0xCEA DUP3 PUSH2 0x100 PUSH2 0xAD7 JUMP JUMPDEST PUSH1 0x0 DUP2 DUP5 DUP5 GT ISZERO PUSH2 0xD98 JUMPI PUSH1 0x40 MLOAD PUSH3 0x461BCD PUSH1 0xE5 SHL DUP2 MSTORE PUSH1 0x4 ADD DUP1 DUP1 PUSH1 0x20 ADD DUP3 DUP2 SUB DUP3 MSTORE DUP4 DUP2 DUP2 MLOAD DUP2 MSTORE PUSH1 0x20 ADD SWAP2 POP DUP1 MLOAD SWAP1 PUSH1 0x20 ADD SWAP1 DUP1 DUP4 DUP4 PUSH1 0x0 JUMPDEST DUP4 DUP2 LT ISZERO PUSH2 0xD5D JUMPI DUP2 DUP2 ADD MLOAD DUP4 DUP3 ADD MSTORE PUSH1 0x20 ADD PUSH2 0xD45 JUMP JUMPDEST POP POP POP POP SWAP1 POP SWAP1 DUP2 ADD SWAP1 PUSH1 0x1F AND DUP1 ISZERO PUSH2 0xD8A JUMPI DUP1 DUP3 SUB DUP1 MLOAD PUSH1 0x1 DUP4 PUSH1 0x20 SUB PUSH2 0x100 EXP SUB NOT AND DUP2 MSTORE PUSH1 0x20 ADD SWAP2 POP JUMPDEST POP SWAP3 POP POP POP PUSH1 0x40 MLOAD DUP1 SWAP2 SUB SWAP1 REVERT JUMPDEST POP POP POP SWAP1 SUB SWAP1 JUMP JUMPDEST PUSH1 0x0 PUSH2 0x667 DUP4 DUP4 PUSH1 0x40 MLOAD DUP1 PUSH1 0x40 ADD PUSH1 0x40 MSTORE DUP1 PUSH1 0x1A DUP2 MSTORE PUSH1 0x20 ADD PUSH32 0x536166654D6174683A206469766973696F6E206279207A65726F000000000000 DUP2 MSTORE POP PUSH1 0x0 DUP2 DUP4 PUSH2 0xE2C JUMPI PUSH1 0x40 MLOAD PUSH3 0x461BCD PUSH1 0xE5 SHL DUP2 MSTORE PUSH1 0x20 PUSH1 0x4 DUP3 ADD DUP2 DUP2 MSTORE DUP4 MLOAD PUSH1 0x24 DUP5 ADD MSTORE DUP4 MLOAD SWAP1 SWAP3 DUP4 SWAP3 PUSH1 0x44 SWAP1 SWAP2 ADD SWAP2 SWAP1 DUP6 ADD SWAP1 DUP1 DUP4 DUP4 PUSH1 0x0 DUP4 ISZERO PUSH2 0xD5D JUMPI DUP2 DUP2 ADD MLOAD DUP4 DUP3 ADD MSTORE PUSH1 0x20 ADD PUSH2 0xD45 JUMP JUMPDEST POP PUSH1 0x0 DUP4 DUP6 DUP2 PUSH2 0xE38 JUMPI INVALID JUMPDEST DIV SWAP6 SWAP5 POP POP POP POP POP JUMP JUMPDEST PUSH1 0x40 MLOAD DUP1 PUSH1 0xA0 ADD PUSH1 0x40 MSTORE DUP1 PUSH1 0x5 SWAP1 PUSH1 0x20 DUP3 MUL DUP1 CALLDATASIZE DUP4 CALLDATACOPY POP SWAP2 SWAP3 SWAP2 POP POP JUMP INVALID CHAINID PUSH22 0x6E6374696F6E2063616E206F6E6C792062652063616C PUSH13 0x656420627920706F7320616464 PUSH19 0x657373536166654D6174683A206D756C746970 PUSH13 0x69636174696F6E206F76657266 PUSH13 0x6F7743616C6C65722063616E27 PUSH21 0x2068617665207A65726F207374616B656420746F6B PUSH6 0x6E73A2646970 PUSH7 0x7358221220F7E6 SWAP7 DUP11 0xF6 0x24 SHR SGT PUSH13 0x3165364D5B4833208B0FA31BCA MULMOD 0xC 0xC0 PUSH18 0x2C911FBA89BC64736F6C6343000704003300 "
    },
    "gasEstimates": {
      "creation": {
        "codeDepositCost": "769000",
        "executionCost": "2551603",
        "totalCost": "3320603"
      },
      "external": {
        "canProduceBlock(uint256,address,uint256)": "infinite",
        "currentIndex()": "1044",
        "getBlockCount(uint256)": "1166",
        "getDifficulty(uint256)": "1157",
        "getDifficultyAdjustmentParameter(uint256)": "1240",
        "getMinDifficulty(uint256)": "1129",
        "getNonce(uint256)": "2926",
        "getSelectionBlockDuration(uint256)": "infinite",
        "getState(uint256,address)": "infinite",
        "getSubInstances(uint256,address)": "762",
        "getTargetInterval(uint256)": "1232",
        "instantiate(uint256,uint256,uint32,uint32,address)": "171526",
        "isActive(uint256)": "1207",
        "isConcerned(uint256,address)": "311",
        "log2ApproxTimes1M(uint256)": "infinite",
        "produceBlock(uint256,address,uint256)": "infinite"
      },
      "internal": {
        "_blockProduced(uint256)": "infinite",
        "_reset(uint256)": "41834",
        "getLogOfRandom(uint256,address)": "infinite",
        "getNewDifficulty(uint256,uint256,uint32,uint32,uint32)": "infinite",
        "getSeed(uint256,uint256)": "infinite"
      }
    },
    "methodIdentifiers": {
      "canProduceBlock(uint256,address,uint256)": "59dc826c",
      "currentIndex()": "26987b60",
      "getBlockCount(uint256)": "d0aeade7",
      "getDifficulty(uint256)": "983ef725",
      "getDifficultyAdjustmentParameter(uint256)": "4e58fdca",
      "getMinDifficulty(uint256)": "83f6f5ca",
      "getNonce(uint256)": "3d46b819",
      "getSelectionBlockDuration(uint256)": "c67ddc38",
      "getState(uint256,address)": "73df1612",
      "getSubInstances(uint256,address)": "c526656c",
      "getTargetInterval(uint256)": "f9070044",
      "instantiate(uint256,uint256,uint32,uint32,address)": "da1c7140",
      "isActive(uint256)": "82afd23b",
      "isConcerned(uint256,address)": "01ff62ab",
      "log2ApproxTimes1M(uint256)": "e3581b68",
      "produceBlock(uint256,address,uint256)": "5378014f"
    }
  },
  "storageLayout": {
    "storage": [
      {
        "astId": 927,
        "contract": "contracts/BlockSelector.sol:BlockSelector",
        "label": "currentIndex",
        "offset": 0,
        "slot": "0",
        "type": "t_uint256"
      },
      {
        "astId": 931,
        "contract": "contracts/BlockSelector.sol:BlockSelector",
        "label": "active",
        "offset": 0,
        "slot": "1",
        "type": "t_mapping(t_uint256,t_bool)"
      },
      {
        "astId": 935,
        "contract": "contracts/BlockSelector.sol:BlockSelector",
        "label": "nonce",
        "offset": 0,
        "slot": "2",
        "type": "t_mapping(t_uint256,t_uint256)"
      },
      {
        "astId": 9,
        "contract": "contracts/BlockSelector.sol:BlockSelector",
        "label": "log2tableTimes1M",
        "offset": 0,
        "slot": "3",
        "type": "t_mapping(t_uint256,t_uint256)"
      },
      {
        "astId": 1535,
        "contract": "contracts/BlockSelector.sol:BlockSelector",
        "label": "instance",
        "offset": 0,
        "slot": "4",
        "type": "t_mapping(t_uint256,t_struct(BlockSelectorCtx)1531_storage)"
      }
    ],
    "types": {
      "t_address": {
        "encoding": "inplace",
        "label": "address",
        "numberOfBytes": "20"
      },
      "t_bool": {
        "encoding": "inplace",
        "label": "bool",
        "numberOfBytes": "1"
      },
      "t_mapping(t_uint256,t_bool)": {
        "encoding": "mapping",
        "key": "t_uint256",
        "label": "mapping(uint256 => bool)",
        "numberOfBytes": "32",
        "value": "t_bool"
      },
      "t_mapping(t_uint256,t_struct(BlockSelectorCtx)1531_storage)": {
        "encoding": "mapping",
        "key": "t_uint256",
        "label": "mapping(uint256 => struct BlockSelector.BlockSelectorCtx)",
        "numberOfBytes": "32",
        "value": "t_struct(BlockSelectorCtx)1531_storage"
      },
      "t_mapping(t_uint256,t_uint256)": {
        "encoding": "mapping",
        "key": "t_uint256",
        "label": "mapping(uint256 => uint256)",
        "numberOfBytes": "32",
        "value": "t_uint256"
      },
      "t_struct(BlockSelectorCtx)1531_storage": {
        "encoding": "inplace",
        "label": "struct BlockSelector.BlockSelectorCtx",
        "members": [
          {
            "astId": 1518,
            "contract": "contracts/BlockSelector.sol:BlockSelector",
            "label": "minDifficulty",
            "offset": 0,
            "slot": "0",
            "type": "t_uint256"
          },
          {
            "astId": 1520,
            "contract": "contracts/BlockSelector.sol:BlockSelector",
            "label": "difficulty",
            "offset": 0,
            "slot": "1",
            "type": "t_uint256"
          },
          {
            "astId": 1522,
            "contract": "contracts/BlockSelector.sol:BlockSelector",
            "label": "posManagerAddress",
            "offset": 0,
            "slot": "2",
            "type": "t_address"
          },
          {
            "astId": 1524,
            "contract": "contracts/BlockSelector.sol:BlockSelector",
            "label": "difficultyAdjustmentParameter",
            "offset": 20,
            "slot": "2",
            "type": "t_uint32"
          },
          {
            "astId": 1526,
            "contract": "contracts/BlockSelector.sol:BlockSelector",
            "label": "targetInterval",
            "offset": 24,
            "slot": "2",
            "type": "t_uint32"
          },
          {
            "astId": 1528,
            "contract": "contracts/BlockSelector.sol:BlockSelector",
            "label": "blockCount",
            "offset": 28,
            "slot": "2",
            "type": "t_uint32"
          },
          {
            "astId": 1530,
            "contract": "contracts/BlockSelector.sol:BlockSelector",
            "label": "ethBlockCheckpoint",
            "offset": 0,
            "slot": "3",
            "type": "t_uint32"
          }
        ],
        "numberOfBytes": "128"
      },
      "t_uint256": {
        "encoding": "inplace",
        "label": "uint256",
        "numberOfBytes": "32"
      },
      "t_uint32": {
        "encoding": "inplace",
        "label": "uint32",
        "numberOfBytes": "4"
      }
    }
  },
  "userdoc": {
    "kind": "user",
    "methods": {
      "canProduceBlock(uint256,address,uint256)": {
        "notice": "Check if address is allowed to produce block"
      },
      "getBlockCount(uint256)": {
        "notice": "Returns the number of blocks"
      },
      "getDifficulty(uint256)": {
        "notice": "Returns current difficulty"
      },
      "getDifficultyAdjustmentParameter(uint256)": {
        "notice": "Returns difficulty adjustment parameter"
      },
      "getMinDifficulty(uint256)": {
        "notice": "Returns min difficulty"
      },
      "getSelectionBlockDuration(uint256)": {
        "notice": "Returns time since last selection started, in ethereum blocks"
      },
      "getTargetInterval(uint256)": {
        "notice": "Returns target interval"
      },
      "instantiate(uint256,uint256,uint32,uint32,address)": {
        "notice": "Instantiates a BlockSelector structure"
      },
      "log2ApproxTimes1M(uint256)": {
        "notice": "Approximates log2 * 1M"
      },
      "produceBlock(uint256,address,uint256)": {
        "notice": "Produces a block"
      }
    },
    "version": 1
  }
}