{
  "address": "0x2B58A366a8fe2bE06628B1F7E379A921A4c3C6cC",
  "abi": [
    {
      "anonymous": false,
      "inputs": [
        {
          "indexed": true,
          "internalType": "uint256",
          "name": "index",
          "type": "uint256"
        },
        {
          "indexed": true,
          "internalType": "address",
          "name": "user",
          "type": "address"
        },
        {
          "indexed": true,
          "internalType": "address",
          "name": "beneficiary",
          "type": "address"
        },
        {
          "indexed": false,
          "internalType": "uint256",
          "name": "split",
          "type": "uint256"
        }
      ],
      "name": "BeneficiaryAdded",
      "type": "event"
    },
    {
      "anonymous": false,
      "inputs": [
        {
          "indexed": true,
          "internalType": "address",
          "name": "previousOwner",
          "type": "address"
        },
        {
          "indexed": true,
          "internalType": "address",
          "name": "newOwner",
          "type": "address"
        }
      ],
      "name": "OwnershipTransferred",
      "type": "event"
    },
    {
      "anonymous": false,
      "inputs": [
        {
          "indexed": true,
          "internalType": "uint256",
          "name": "index",
          "type": "uint256"
        },
        {
          "indexed": true,
          "internalType": "address",
          "name": "worker",
          "type": "address"
        },
        {
          "indexed": true,
          "internalType": "address",
          "name": "user",
          "type": "address"
        },
        {
          "indexed": false,
          "internalType": "address",
          "name": "beneficiary",
          "type": "address"
        },
        {
          "indexed": false,
          "internalType": "uint256",
          "name": "userReward",
          "type": "uint256"
        },
        {
          "indexed": false,
          "internalType": "uint256",
          "name": "beneficiaryReward",
          "type": "uint256"
        }
      ],
      "name": "Rewarded",
      "type": "event"
    },
    {
      "inputs": [
        {
          "internalType": "uint256",
          "name": "_index",
          "type": "uint256"
        },
        {
          "internalType": "address",
          "name": "_beneficiary",
          "type": "address"
        },
        {
          "internalType": "uint256",
          "name": "_split",
          "type": "uint256"
        }
      ],
      "name": "addBeneficiary",
      "outputs": [],
      "stateMutability": "nonpayable",
      "type": "function"
    },
    {
      "inputs": [],
      "name": "currentIndex",
      "outputs": [
        {
          "internalType": "uint256",
          "name": "",
          "type": "uint256"
        }
      ],
      "stateMutability": "view",
      "type": "function"
    },
    {
      "inputs": [
        {
          "internalType": "uint256",
          "name": "_index",
          "type": "uint256"
        }
      ],
      "name": "getNonce",
      "outputs": [
        {
          "internalType": "uint256",
          "name": "currentNonce",
          "type": "uint256"
        }
      ],
      "stateMutability": "view",
      "type": "function"
    },
    {
      "inputs": [
        {
          "internalType": "uint256",
          "name": "_index",
          "type": "uint256"
        },
        {
          "internalType": "address",
          "name": "_user",
          "type": "address"
        }
      ],
      "name": "getState",
      "outputs": [
        {
          "internalType": "bool",
          "name": "",
          "type": "bool"
        },
        {
          "internalType": "address",
          "name": "",
          "type": "address"
        },
        {
          "internalType": "uint256",
          "name": "",
          "type": "uint256"
        },
        {
          "internalType": "uint256",
          "name": "",
          "type": "uint256"
        }
      ],
      "stateMutability": "view",
      "type": "function"
    },
    {
      "inputs": [
        {
          "internalType": "uint256",
          "name": "_index",
          "type": "uint256"
        },
        {
          "internalType": "address",
          "name": "",
          "type": "address"
        }
      ],
      "name": "getSubInstances",
      "outputs": [
        {
          "internalType": "address[]",
          "name": "_addresses",
          "type": "address[]"
        },
        {
          "internalType": "uint256[]",
          "name": "_indices",
          "type": "uint256[]"
        }
      ],
      "stateMutability": "view",
      "type": "function"
    },
    {
      "inputs": [
        {
          "internalType": "address",
          "name": "_stakingAddress",
          "type": "address"
        },
        {
          "internalType": "address",
          "name": "_blockSelectorAddress",
          "type": "address"
        },
        {
          "internalType": "address",
          "name": "_workerAuthAddress",
          "type": "address"
        },
        {
          "internalType": "uint256",
          "name": "_minimumDifficulty",
          "type": "uint256"
        },
        {
          "internalType": "uint256",
          "name": "_initialDifficulty",
          "type": "uint256"
        },
        {
          "internalType": "uint256",
          "name": "_difficultyAdjustmentParameter",
          "type": "uint256"
        },
        {
          "internalType": "uint256",
          "name": "_targetInterval",
          "type": "uint256"
        },
        {
          "internalType": "address",
          "name": "_rewardManagerAddress",
          "type": "address"
        }
      ],
      "name": "instantiate",
      "outputs": [
        {
          "internalType": "uint256",
          "name": "",
          "type": "uint256"
        }
      ],
      "stateMutability": "nonpayable",
      "type": "function"
    },
    {
      "inputs": [
        {
          "internalType": "uint256",
          "name": "_index",
          "type": "uint256"
        }
      ],
      "name": "isActive",
      "outputs": [
        {
          "internalType": "bool",
          "name": "",
          "type": "bool"
        }
      ],
      "stateMutability": "view",
      "type": "function"
    },
    {
      "inputs": [
        {
          "internalType": "uint256",
          "name": "_index",
          "type": "uint256"
        },
        {
          "internalType": "address",
          "name": "_user",
          "type": "address"
        }
      ],
      "name": "isConcerned",
      "outputs": [
        {
          "internalType": "bool",
          "name": "",
          "type": "bool"
        }
      ],
      "stateMutability": "view",
      "type": "function"
    },
    {
      "inputs": [],
      "name": "owner",
      "outputs": [
        {
          "internalType": "address",
          "name": "",
          "type": "address"
        }
      ],
      "stateMutability": "view",
      "type": "function"
    },
    {
      "inputs": [
        {
          "internalType": "uint256",
          "name": "_index",
          "type": "uint256"
        }
      ],
      "name": "produceBlock",
      "outputs": [
        {
          "internalType": "bool",
          "name": "",
          "type": "bool"
        }
      ],
      "stateMutability": "nonpayable",
      "type": "function"
    },
    {
      "inputs": [],
      "name": "renounceOwnership",
      "outputs": [],
      "stateMutability": "nonpayable",
      "type": "function"
    },
    {
      "inputs": [
        {
          "internalType": "address",
          "name": "newOwner",
          "type": "address"
        }
      ],
      "name": "transferOwnership",
      "outputs": [],
      "stateMutability": "nonpayable",
      "type": "function"
    }
  ],
  "transactionHash": "0x8445c2c499d6ede9c9aa12c8efacc28e2fefa4b211a3258c560a24ac75b840d9",
  "args": [],
  "solcInputHash": "ba773a60123f2fe6dac6bfdc0faccc5c",
  "bytecode": "0x6080604052600060015534801561001557600080fd5b50600061002061006f565b600080546001600160a01b0319166001600160a01b0383169081178255604051929350917f8be0079c531659141344cd1fd0a4f28419497f9722a3daafe3b4186f6b6457e0908290a350610073565b3390565b611695806100826000396000f3fe608060405234801561001057600080fd5b50600436106100b45760003560e01c80637a32cf38116100715780637a32cf38146101ed57806382afd23b1461021f5780638da5cb5b1461023c578063a5a6cd0b14610260578063c526656c1461027d578063f2fde38b14610342576100b4565b806301ff62ab146100b957806326987b60146100f95780633d46b819146101135780636c9db77314610130578063715018a61461018757806373df161214610191575b600080fd5b6100e5600480360360408110156100cf57600080fd5b50803590602001356001600160a01b0316610368565b604080519115158252519081900360200190f35b610101610401565b60408051918252519081900360200190f35b6101016004803603602081101561012957600080fd5b5035610407565b610101600480360361010081101561014757600080fd5b506001600160a01b0381358116916020810135821691604082013581169160608101359160808201359160a08101359160c08201359160e00135166104b8565b61018f6107ee565b005b6101bd600480360360408110156101a757600080fd5b50803590602001356001600160a01b03166108a2565b6040805194151585526001600160a01b039093166020850152838301919091526060830152519081900360800190f35b61018f6004803603606081101561020357600080fd5b508035906001600160a01b036020820135169060400135610a64565b6100e56004803603602081101561023557600080fd5b5035610b5b565b610244610b70565b604080516001600160a01b039092168252519081900360200190f35b6100e56004803603602081101561027657600080fd5b5035610b7f565b6102a96004803603604081101561029357600080fd5b50803590602001356001600160a01b03166111d8565b604051808060200180602001838103835285818151815260200191508051906020019060200280838360005b838110156102ed5781810151838201526020016102d5565b50505050905001838103825284818151815260200191508051906020019060200280838360005b8381101561032c578181015183820152602001610314565b5050505090500194505050505060405180910390f35b61018f6004803603602081101561035857600080fd5b50356001600160a01b0316611297565b60008281526005602090815260408083206004808201548351633a02a42d60e01b81526001600160a01b03888116938201939093529351929486949290911692633a02a42d926024808201939291829003018186803b1580156103ca57600080fd5b505afa1580156103de573d6000803e3d6000fd5b505050506040513d60208110156103f457600080fd5b5051119150505b92915050565b60015481565b6000818060015411610459576040805162461bcd60e51b8152602060048201526016602482015275125b99195e081b9bdd081a5b9cdd185b9d1a585d195960521b604482015290519081900360640190fd5b61046281610b5b565b6104a4576040805162461bcd60e51b815260206004820152600e60248201526d496e64657820696e61637469766560901b604482015290519081900360640190fd5b505060009081526003602052604090205490565b60006104c26113a1565b6000546001600160a01b03908116911614610524576040805162461bcd60e51b815260206004820181905260248201527f4f776e61626c653a2063616c6c6572206973206e6f7420746865206f776e6572604482015290519081900360640190fd5b6001600160a01b03821660009081526004602052604090205460ff161561057c5760405162461bcd60e51b815260040180806020018281038252603c8152602001806115ac603c913960400191505060405180910390fd5b600160046000846001600160a01b03166001600160a01b0316815260200190815260200160002060006101000a81548160ff02191690831515021790555060016000815480929190600101919050555088600560006001805403815260200190815260200160002060040160006101000a8154816001600160a01b0302191690836001600160a01b0316021790555087600560006001805403815260200190815260200160002060030160006101000a8154816001600160a01b0302191690836001600160a01b0316021790555081600560006001805403815260200190815260200160002060050160006101000a8154816001600160a01b0302191690836001600160a01b0316021790555086600560006001805403815260200190815260200160002060060160006101000a8154816001600160a01b0302191690836001600160a01b031602179055506001600260006001805403815260200190815260200160002060006101000a81548160ff021916908315150217905550600560006001805403815260200190815260200160002060030160009054906101000a90046001600160a01b03166001600160a01b031663f0d2a38c87878787306040518663ffffffff1660e01b815260040180868152602001858152602001848152602001838152602001826001600160a01b0316815260200195505050505050602060405180830381600087803b15801561079457600080fd5b505af11580156107a8573d6000803e3d6000fd5b505050506040513d60208110156107be57600080fd5b50516001805460001990810160009081526005602052604090206002019290925554019998505050505050505050565b6107f66113a1565b6000546001600160a01b03908116911614610858576040805162461bcd60e51b815260206004820181905260248201527f4f776e61626c653a2063616c6c6572206973206e6f7420746865206f776e6572604482015290519081900360640190fd5b600080546040516001600160a01b03909116907f8be0079c531659141344cd1fd0a4f28419497f9722a3daafe3b4186f6b6457e0908390a3600080546001600160a01b0319169055565b6000828152600560209081526040808320600381015460028201546004808401548551633a02a42d60e01b81526001600160a01b038a8116938201939093529551889788978897968516956359dc826c9590948d94911692633a02a42d9260248082019391829003018186803b15801561091b57600080fd5b505afa15801561092f573d6000803e3d6000fd5b505050506040513d602081101561094557600080fd5b5051604080516001600160e01b031960e087901b16815260048101949094526001600160a01b0390921660248401526044830152516064808301926020929190829003018186803b15801561099957600080fd5b505afa1580156109ad573d6000803e3d6000fd5b505050506040513d60208110156109c357600080fd5b505160058201546040805163457642a160e11b8152905189926001600160a01b031691638aec8542916004808301926020929190829003018186803b158015610a0b57600080fd5b505afa158015610a1f573d6000803e3d6000fd5b505050506040513d6020811015610a3557600080fd5b50516001600160a01b039890981660009081526001939093016020526040909220549098919750945092505050565b6000838152600560205260409020612710821115610ac9576040805162461bcd60e51b815260206004820152601e60248201527f73706c69742068617320746f206265206c657373207468616e20313030250000604482015290519081900360640190fd5b33600090815260208290526040902080546001600160a01b0319166001600160a01b038516179055610afd612710836113a5565b33600081815260018401602090815260409182902093909355805185815290516001600160a01b0387169388927fa5b08588c71d0e642d3278b37062c16e87cffd2a616056a2cbd3ec5da2eba6f7929081900390910190a450505050565b60009081526002602052604090205460ff1690565b6000546001600160a01b031690565b6000818152600560209081526040808320600681015482516332f256cf60e11b8152336004820152306024820152925191936001600160a01b03909116926365e4ad9e9260448083019392829003018186803b158015610bde57600080fd5b505afa158015610bf2573d6000803e3d6000fd5b505050506040513d6020811015610c0857600080fd5b5051610c455760405162461bcd60e51b815260040180806020018281038252602e815260200180611609602e913960400191505060405180910390fd5b60068101546040805163fa54416160e01b815233600482015290516000926001600160a01b03169163fa544161916024808301926020929190829003018186803b158015610c9257600080fd5b505afa158015610ca6573d6000803e3d6000fd5b505050506040513d6020811015610cbc57600080fd5b50516001600160a01b0380821660009081526020858152604080832054600188019092528220549394509091169190610cf7612710836113a5565b6003860154600287015460048089015460408051633a02a42d60e01b81526001600160a01b038b811694820194909452905195965093821694635378014f948a9390921691633a02a42d916024808301926020929190829003018186803b158015610d6157600080fd5b505afa158015610d75573d6000803e3d6000fd5b505050506040513d6020811015610d8b57600080fd5b5051604080516001600160e01b031960e087901b16815260048101949094526001600160a01b03909216602484015260448301525160648083019260209291908290030181600087803b158015610de157600080fd5b505af1158015610df5573d6000803e3d6000fd5b505050506040513d6020811015610e0b57600080fd5b5051610e485760405162461bcd60e51b81526004018080602001828103825260298152602001806116376029913960400191505060405180910390fd5b60058501546040805163457642a160e11b815290516000926001600160a01b031691638aec8542916004808301926020929190829003018186803b158015610e8f57600080fd5b505afa158015610ea3573d6000803e3d6000fd5b505050506040513d6020811015610eb957600080fd5b505190506001600160a01b0384161580610ed4575061271083145b15610f9f576005860154604080516310b3879160e11b81526001600160a01b03888116600483015260248201859052915191909216916321670f2291604480830192600092919082900301818387803b158015610f3057600080fd5b505af1158015610f44573d6000803e3d6000fd5b5050604080516001600160a01b03888116825260208201869052600082840152915191891693503392508b917f9be4572c785840a37a06ca21b0ca3e30eb45de65547561091bf6f0eede483b909181900360600190a46111ca565b61271082141561106f576005860154604080516310b3879160e11b81526001600160a01b03878116600483015260248201859052915191909216916321670f2291604480830192600092919082900301818387803b15801561100057600080fd5b505af1158015611014573d6000803e3d6000fd5b5050604080516001600160a01b03888116825260006020830152818301869052915191891693503392508b917f9be4572c785840a37a06ca21b0ca3e30eb45de65547561091bf6f0eede483b909181900360600190a46111ca565b600061108761271061108184866113ee565b90611447565b9050600061109583836113a5565b6005890154604080516310b3879160e11b81526001600160a01b038a811660048301526024820187905291519394509116916321670f229160448082019260009290919082900301818387803b1580156110ee57600080fd5b505af1158015611102573d6000803e3d6000fd5b505050506005880154604080516310b3879160e11b81526001600160a01b038a8116600483015260248201859052915191909216916321670f2291604480830192600092919082900301818387803b15801561115d57600080fd5b505af1158015611171573d6000803e3d6000fd5b5050604080516001600160a01b038a81168252602082018690528183018790529151918b1693503392508d917f9be4572c785840a37a06ca21b0ca3e30eb45de65547561091bf6f0eede483b909181900360600190a450505b506001979650505050505050565b600082815260056020526040908190208151600180825281840190935260609283929183918291908160200160208202803683375050604080516001808252818301909252929450905060208083019080368337505050600384015483519192506001600160a01b031690839060009061124e57fe5b60200260200101906001600160a01b031690816001600160a01b03168152505082600201548160008151811061128057fe5b602090810291909101015290969095509350505050565b61129f6113a1565b6000546001600160a01b03908116911614611301576040805162461bcd60e51b815260206004820181905260248201527f4f776e61626c653a2063616c6c6572206973206e6f7420746865206f776e6572604482015290519081900360640190fd5b6001600160a01b0381166113465760405162461bcd60e51b81526004018080602001828103825260268152602001806115866026913960400191505060405180910390fd5b600080546040516001600160a01b03808516939216917f8be0079c531659141344cd1fd0a4f28419497f9722a3daafe3b4186f6b6457e091a3600080546001600160a01b0319166001600160a01b0392909216919091179055565b3390565b60006113e783836040518060400160405280601e81526020017f536166654d6174683a207375627472616374696f6e206f766572666c6f770000815250611489565b9392505050565b6000826113fd575060006103fb565b8282028284828161140a57fe5b04146113e75760405162461bcd60e51b81526004018080602001828103825260218152602001806115e86021913960400191505060405180910390fd5b60006113e783836040518060400160405280601a81526020017f536166654d6174683a206469766973696f6e206279207a65726f000000000000815250611520565b600081848411156115185760405162461bcd60e51b81526004018080602001828103825283818151815260200191508051906020019080838360005b838110156114dd5781810151838201526020016114c5565b50505050905090810190601f16801561150a5780820380516001836020036101000a031916815260200191505b509250505060405180910390fd5b505050900390565b6000818361156f5760405162461bcd60e51b81526020600482018181528351602484015283519092839260449091019190850190808383600083156114dd5781810151838201526020016114c5565b50600083858161157b57fe5b049594505050505056fe4f776e61626c653a206e6577206f776e657220697320746865207a65726f206164647265737354686973205265776172644d616e61676572206164647265737320686173206265656e207573656420627920616e6f7468657220696e7374616e6365536166654d6174683a206d756c7469706c69636174696f6e206f766572666c6f776d73672e73656e646572206973206e6f7420617574686f72697a656420746f206d616b6520746869732063616c6c5573657220636f756c646e742070726f64756365206120626c6f636b207375636365737366756c6c79a2646970667358221220d30673e6afbf4de2467521223d8dcdbb51e4ed45933bc2cfddd5ddd6e6ffd77864736f6c63430007040033",
  "devdoc": {
    "kind": "dev",
    "methods": {
      "getState(uint256,address)": {
        "params": {
          "_index": "index of instance",
          "_user": "address of user"
        },
        "returns": {
          "_0": "bool if user is eligible to produce next block",
          "_1": "address of user that was chosen to build the block",
          "_2": "current reward paid by the network for that block",
          "_3": "percentage of reward that goes to the user"
        }
      },
      "instantiate(address,address,address,uint256,uint256,uint256,uint256,address)": {
        "params": {
          "_blockSelectorAddress": "address of blockSelector contract",
          "_difficultyAdjustmentParameter": "how quickly the difficulty gets updated according to the difference between time passed and desired draw time interval.",
          "_rewardManagerAddress": "address containing the tokens that will be distributed",
          "_stakingAddress": "address of StakingInterface",
          "_targetInterval": "how often we want to elect a block producer",
          "_workerAuthAddress": "address of worker manager contract"
        }
      },
      "owner()": {
        "details": "Returns the address of the current owner."
      },
      "produceBlock(uint256)": {
        "details": "this function can only be called by a worker, user never calls it directly",
        "params": {
          "_index": "the index of the instance of pos you want to interact with"
        }
      },
      "renounceOwnership()": {
        "details": "Leaves the contract without owner. It will not be possible to call `onlyOwner` functions anymore. Can only be called by the current owner. NOTE: Renouncing ownership will leave the contract without an owner, thereby removing any functionality that is only available to the owner."
      },
      "transferOwnership(address)": {
        "details": "Transfers ownership of the contract to a new account (`newOwner`). Can only be called by the current owner."
      }
    },
    "version": 1
  },
  "userdoc": {
    "kind": "user",
    "methods": {
      "getState(uint256,address)": {
        "notice": "Get state of a particular instance"
      },
      "instantiate(address,address,address,uint256,uint256,uint256,uint256,address)": {
        "notice": "Instantiates a Proof of Stake"
      },
      "produceBlock(uint256)": {
        "notice": "Produce a block"
      }
    },
    "version": 1
  },
  "storageLayout": {
    "storage": [
      {
        "astId": 1117,
        "contract": "contracts/PoS.sol:PoS",
        "label": "_owner",
        "offset": 0,
        "slot": "0",
        "type": "t_address"
      },
      {
        "astId": 927,
        "contract": "contracts/PoS.sol:PoS",
        "label": "currentIndex",
        "offset": 0,
        "slot": "1",
        "type": "t_uint256"
      },
      {
        "astId": 931,
        "contract": "contracts/PoS.sol:PoS",
        "label": "active",
        "offset": 0,
        "slot": "2",
        "type": "t_mapping(t_uint256,t_bool)"
      },
      {
        "astId": 935,
        "contract": "contracts/PoS.sol:PoS",
        "label": "nonce",
        "offset": 0,
        "slot": "3",
        "type": "t_mapping(t_uint256,t_uint256)"
      },
      {
        "astId": 2266,
        "contract": "contracts/PoS.sol:PoS",
        "label": "usedRM",
        "offset": 0,
        "slot": "4",
        "type": "t_mapping(t_address,t_bool)"
      },
      {
        "astId": 2289,
        "contract": "contracts/PoS.sol:PoS",
        "label": "instance",
        "offset": 0,
        "slot": "5",
        "type": "t_mapping(t_uint256,t_struct(PoSCtx)2285_storage)"
      }
    ],
    "types": {
      "t_address": {
        "encoding": "inplace",
        "label": "address",
        "numberOfBytes": "20"
      },
      "t_bool": {
        "encoding": "inplace",
        "label": "bool",
        "numberOfBytes": "1"
      },
      "t_contract(BlockSelector)2178": {
        "encoding": "inplace",
        "label": "contract BlockSelector",
        "numberOfBytes": "20"
      },
      "t_contract(RewardManager)2962": {
        "encoding": "inplace",
        "label": "contract RewardManager",
        "numberOfBytes": "20"
      },
      "t_contract(Staking)3048": {
        "encoding": "inplace",
        "label": "contract Staking",
        "numberOfBytes": "20"
      },
      "t_contract(WorkerAuthManager)1086": {
        "encoding": "inplace",
        "label": "contract WorkerAuthManager",
        "numberOfBytes": "20"
      },
      "t_mapping(t_address,t_address)": {
        "encoding": "mapping",
        "key": "t_address",
        "label": "mapping(address => address)",
        "numberOfBytes": "32",
        "value": "t_address"
      },
      "t_mapping(t_address,t_bool)": {
        "encoding": "mapping",
        "key": "t_address",
        "label": "mapping(address => bool)",
        "numberOfBytes": "32",
        "value": "t_bool"
      },
      "t_mapping(t_address,t_uint256)": {
        "encoding": "mapping",
        "key": "t_address",
        "label": "mapping(address => uint256)",
        "numberOfBytes": "32",
        "value": "t_uint256"
      },
      "t_mapping(t_uint256,t_bool)": {
        "encoding": "mapping",
        "key": "t_uint256",
        "label": "mapping(uint256 => bool)",
        "numberOfBytes": "32",
        "value": "t_bool"
      },
      "t_mapping(t_uint256,t_struct(PoSCtx)2285_storage)": {
        "encoding": "mapping",
        "key": "t_uint256",
        "label": "mapping(uint256 => struct PoS.PoSCtx)",
        "numberOfBytes": "32",
        "value": "t_struct(PoSCtx)2285_storage"
      },
      "t_mapping(t_uint256,t_uint256)": {
        "encoding": "mapping",
        "key": "t_uint256",
        "label": "mapping(uint256 => uint256)",
        "numberOfBytes": "32",
        "value": "t_uint256"
      },
      "t_struct(PoSCtx)2285_storage": {
        "encoding": "inplace",
        "label": "struct PoS.PoSCtx",
        "members": [
          {
            "astId": 2270,
            "contract": "contracts/PoS.sol:PoS",
            "label": "beneficiaryMap",
            "offset": 0,
            "slot": "0",
            "type": "t_mapping(t_address,t_address)"
          },
          {
            "astId": 2274,
            "contract": "contracts/PoS.sol:PoS",
            "label": "splitMap",
            "offset": 0,
            "slot": "1",
            "type": "t_mapping(t_address,t_uint256)"
          },
          {
            "astId": 2276,
            "contract": "contracts/PoS.sol:PoS",
            "label": "blockSelectorIndex",
            "offset": 0,
            "slot": "2",
            "type": "t_uint256"
          },
          {
            "astId": 2278,
            "contract": "contracts/PoS.sol:PoS",
            "label": "blockSelector",
            "offset": 0,
            "slot": "3",
            "type": "t_contract(BlockSelector)2178"
          },
          {
            "astId": 2280,
            "contract": "contracts/PoS.sol:PoS",
            "label": "staking",
            "offset": 0,
            "slot": "4",
            "type": "t_contract(Staking)3048"
          },
          {
            "astId": 2282,
            "contract": "contracts/PoS.sol:PoS",
            "label": "rewardManager",
            "offset": 0,
            "slot": "5",
            "type": "t_contract(RewardManager)2962"
          },
          {
            "astId": 2284,
            "contract": "contracts/PoS.sol:PoS",
            "label": "workerAuth",
            "offset": 0,
            "slot": "6",
            "type": "t_contract(WorkerAuthManager)1086"
          }
        ],
        "numberOfBytes": "224"
      },
      "t_uint256": {
        "encoding": "inplace",
        "label": "uint256",
        "numberOfBytes": "32"
      }
    }
  }
}