{
  "address": "0x1F19cC26D10e5Eb3AC8ABc21f83f3886026Ca62D",
  "abi": [
    {
      "inputs": [
        {
          "internalType": "address",
          "name": "_ctsiAddress",
          "type": "address"
        },
        {
          "internalType": "uint256",
          "name": "_timeToStake",
          "type": "uint256"
        },
        {
          "internalType": "uint256",
          "name": "_timeToRelease",
          "type": "uint256"
        }
      ],
      "stateMutability": "nonpayable",
      "type": "constructor"
    },
    {
      "anonymous": false,
      "inputs": [
        {
          "indexed": true,
          "internalType": "uint256",
          "name": "_amount",
          "type": "uint256"
        },
        {
          "indexed": true,
          "internalType": "address",
          "name": "_address",
          "type": "address"
        },
        {
          "indexed": true,
          "internalType": "uint256",
          "name": "_maturationDate",
          "type": "uint256"
        }
      ],
      "name": "Stake",
      "type": "event"
    },
    {
      "anonymous": false,
      "inputs": [
        {
          "indexed": true,
          "internalType": "uint256",
          "name": "_amount",
          "type": "uint256"
        },
        {
          "indexed": true,
          "internalType": "address",
          "name": "_address",
          "type": "address"
        },
        {
          "indexed": true,
          "internalType": "uint256",
          "name": "_maturationDate",
          "type": "uint256"
        }
      ],
      "name": "Unstake",
      "type": "event"
    },
    {
      "anonymous": false,
      "inputs": [
        {
          "indexed": true,
          "internalType": "uint256",
          "name": "_amount",
          "type": "uint256"
        },
        {
          "indexed": true,
          "internalType": "address",
          "name": "_address",
          "type": "address"
        }
      ],
      "name": "Withdraw",
      "type": "event"
    },
    {
      "inputs": [
        {
          "internalType": "address",
          "name": "_userAddress",
          "type": "address"
        }
      ],
      "name": "getMaturingBalance",
      "outputs": [
        {
          "internalType": "uint256",
          "name": "",
          "type": "uint256"
        }
      ],
      "stateMutability": "view",
      "type": "function"
    },
    {
      "inputs": [
        {
          "internalType": "address",
          "name": "_userAddress",
          "type": "address"
        }
      ],
      "name": "getMaturingTimestamp",
      "outputs": [
        {
          "internalType": "uint256",
          "name": "",
          "type": "uint256"
        }
      ],
      "stateMutability": "view",
      "type": "function"
    },
    {
      "inputs": [
        {
          "internalType": "address",
          "name": "_userAddress",
          "type": "address"
        }
      ],
      "name": "getReleasingBalance",
      "outputs": [
        {
          "internalType": "uint256",
          "name": "",
          "type": "uint256"
        }
      ],
      "stateMutability": "view",
      "type": "function"
    },
    {
      "inputs": [
        {
          "internalType": "address",
          "name": "_userAddress",
          "type": "address"
        }
      ],
      "name": "getReleasingTimestamp",
      "outputs": [
        {
          "internalType": "uint256",
          "name": "",
          "type": "uint256"
        }
      ],
      "stateMutability": "view",
      "type": "function"
    },
    {
      "inputs": [
        {
          "internalType": "address",
          "name": "_userAddress",
          "type": "address"
        }
      ],
      "name": "getStakedBalance",
      "outputs": [
        {
          "internalType": "uint256",
          "name": "",
          "type": "uint256"
        }
      ],
      "stateMutability": "view",
      "type": "function"
    },
    {
      "inputs": [
        {
          "internalType": "uint256",
          "name": "_amount",
          "type": "uint256"
        }
      ],
      "name": "stake",
      "outputs": [],
      "stateMutability": "nonpayable",
      "type": "function"
    },
    {
      "inputs": [
        {
          "internalType": "uint256",
          "name": "_amount",
          "type": "uint256"
        }
      ],
      "name": "unstake",
      "outputs": [],
      "stateMutability": "nonpayable",
      "type": "function"
    },
    {
      "inputs": [
        {
          "internalType": "uint256",
          "name": "_amount",
          "type": "uint256"
        }
      ],
      "name": "withdraw",
      "outputs": [],
      "stateMutability": "nonpayable",
      "type": "function"
    }
  ],
  "transactionHash": "0xf9e4f1b7f960dfc5fd84d9993b0754e21d957f457799dcefb140fef0f7d796e9",
  "args": [
    "0x52BE964c9a9fd9Ebc2295979F9F8362551413cb5",
    7200,
    7200
  ],
  "solcInputHash": "86b4c2812e7f92c88b027a8b5c65e6ff",
  "bytecode": "0x608060405234801561001057600080fd5b5060405161098d38038061098d8339818101604052606081101561003357600080fd5b5080516020820151604090920151600080546001600160a01b039093166001600160a01b0319909316929092179091556001919091556002556109128061007b6000396000f3fe608060405234801561001057600080fd5b50600436106100885760003560e01c806367ba9b911161005b57806367ba9b91146101275780638e9f04b51461014d5780639a05154514610173578063a694fc3a1461019957610088565b80632e17de781461008d5780632e1a7d4d146100ac5780633a02a42d146100c9578063419be62414610101575b600080fd5b6100aa600480360360208110156100a357600080fd5b50356101b6565b005b6100aa600480360360208110156100c257600080fd5b50356102c9565b6100ef600480360360208110156100df57600080fd5b50356001600160a01b0316610451565b60408051918252519081900360200190f35b6100ef6004803603602081101561011757600080fd5b50356001600160a01b03166104cf565b6100ef6004803603602081101561013d57600080fd5b50356001600160a01b0316610511565b6100ef6004803603602081101561016357600080fd5b50356001600160a01b0316610542565b6100ef6004803603602081101561018957600080fd5b50356001600160a01b031661055d565b6100aa600480360360208110156101af57600080fd5b5035610586565b60008111610201576040805162461bcd60e51b8152602060048201526013602482015272616d6f756e742063616e74206265207a65726f60681b604482015290519081900360640190fd5b33600090815260056020908152604080832060049092529091208054831161023657805461022f9084610752565b8155610273565b805461025d90610247908590610752565b3360009081526003602052604090205490610752565b3360009081526003602052604081209190915581555b815461027f908461079b565b82554260018301819055600254610296919061079b565b82546040513391907f15e1b1e6a67db05b5e4e898cc13f87b8485df622bfebf03d1508efa026a2e15c90600090a4505050565b33600090815260056020526040902081610320576040805162461bcd60e51b8152602060048201526013602482015272616d6f756e742063616e74206265207a65726f60681b604482015290519081900360640190fd5b4261033a600254836001015461079b90919063ffffffff16565b11156103775760405162461bcd60e51b815260040180806020018281038252602781526020018061088d6027913960400191505060405180910390fd5b61039d826040518060600160405280602981526020016108b460299139835491906107f5565b8155600080546040805163a9059cbb60e01b81523360048201526024810186905290516001600160a01b039092169263a9059cbb926044808401936020939083900390910190829087803b1580156103f457600080fd5b505af1158015610408573d6000803e3d6000fd5b505050506040513d602081101561041e57600080fd5b5050604051339083907f8353ffcac0876ad14e226d9783c04540bfebf13871e868157d2a391cad98e91890600090a35050565b6001600160a01b03811660009081526004602052604081206001805490820154429161047d919061079b565b116104ae5780546001600160a01b0384166000908152600360205260409020546104a69161079b565b9150506104ca565b50506001600160a01b0381166000908152600360205260409020545b919050565b6001600160a01b0381166000908152600460205260408120600180549082015442916104fb919061079b565b1161050a5760009150506104ca565b5492915050565b6002546001600160a01b038216600090815260056020526040812060010154909161053c919061079b565b92915050565b6001600160a01b031660009081526005602052604090205490565b600180546001600160a01b03831660009081526004602052604081209092015461053c9161079b565b600081116105d1576040805162461bcd60e51b8152602060048201526013602482015272616d6f756e742063616e74206265207a65726f60681b604482015290519081900360640190fd5b3360009081526005602090815260408083206004909252909120600180549082015442916105ff919061079b565b116106355780543360009081526003602052604090205461061f9161079b565b3360009081526003602052604081209190915581555b815483116106505781546106499084610752565b82556106fd565b60005482546001600160a01b03909116906323b872dd9033903090610676908890610752565b6040518463ffffffff1660e01b815260040180846001600160a01b03168152602001836001600160a01b031681526020018281526020019350505050602060405180830381600087803b1580156106cc57600080fd5b505af11580156106e0573d6000803e3d6000fd5b505050506040513d60208110156106f657600080fd5b5050600082555b8054610709908461079b565b81554260018083018290555461071f919061079b565b81546040513391907f02567b2553aeb44e4ddd5d68462774dc3de158cb0f2c2da1740e729b22086aff90600090a4505050565b600061079483836040518060400160405280601e81526020017f536166654d6174683a207375627472616374696f6e206f766572666c6f7700008152506107f5565b9392505050565b600082820183811015610794576040805162461bcd60e51b815260206004820152601b60248201527f536166654d6174683a206164646974696f6e206f766572666c6f770000000000604482015290519081900360640190fd5b600081848411156108845760405162461bcd60e51b81526004018080602001828103825283818151815260200191508051906020019080838360005b83811015610849578181015183820152602001610831565b50505050905090810190601f1680156108765780820380516001836020036101000a031916815260200191505b509250505060405180910390fd5b50505090039056fe746f6b656e7320617265206e6f742079657420726561647920746f2062652072656c65617365646e6f7420656e6f75676820746f6b656e732077616974696e6720746f2062652072656c65617365643ba2646970667358221220423c3ed83b9901fe571ec61dc76354e3a0a0c32f47f76c9e3978cfe3f0ac2e6064736f6c63430007040033",
  "devdoc": {
    "kind": "dev",
    "methods": {
      "constructor": {
        "params": {
          "_ctsiAddress": "address of compatible ERC20",
          "_timeToRelease": "time it takes from unstake to tokens being unlocked.",
          "_timeToStake": "time it takes for deposited tokens to become staked."
        }
      },
      "getMaturingBalance(address)": {
        "returns": {
          "_0": "amount that will get staked after finalization"
        }
      },
      "getMaturingTimestamp(address)": {
        "returns": {
          "_0": "timestamp of when finalizeStakes() is callable"
        }
      },
      "getReleasingBalance(address)": {
        "returns": {
          "_0": "amount that will get withdrew after finalization"
        }
      },
      "getReleasingTimestamp(address)": {
        "returns": {
          "_0": "timestamp of when finalizeWithdraw() is callable"
        }
      },
      "getStakedBalance(address)": {
        "params": {
          "_userAddress": "user to retrieve staked balance from"
        },
        "returns": {
          "_0": "finalized staked of _userAddress"
        }
      },
      "stake(uint256)": {
        "params": {
          "_amount": "The amount of tokens that are gonna be deposited."
        }
      },
      "unstake(uint256)": {
        "params": {
          "_amount": "The amount of tokens that are gonna be unstaked."
        }
      },
      "withdraw(uint256)": {
        "params": {
          "_amount": "The amount of tokens that are gonna be transferred."
        }
      }
    },
    "version": 1
  },
  "userdoc": {
    "events": {
      "Stake(uint256,address,uint256)": {
        "notice": "CTSI tokens were deposited, they count as stake after _maturationDate"
      },
      "Unstake(uint256,address,uint256)": {
        "notice": "Unstake tokens, moving them to releasing structure"
      },
      "Withdraw(uint256,address)": {
        "notice": "Withdraw process was finalized"
      }
    },
    "kind": "user",
    "methods": {
      "constructor": {
        "notice": "constructor"
      },
      "getMaturingBalance(address)": {
        "notice": "Returns the balance waiting/ready to be matured"
      },
      "getMaturingTimestamp(address)": {
        "notice": "Returns the timestamp when next deposit can be finalized"
      },
      "getReleasingBalance(address)": {
        "notice": "Returns the balance waiting/ready to be released"
      },
      "getReleasingTimestamp(address)": {
        "notice": "Returns the timestamp when next withdraw can be finalized"
      },
      "getStakedBalance(address)": {
        "notice": "Returns total amount of tokens counted as stake"
      },
      "stake(uint256)": {
        "notice": "Deposit CTSI to be staked. The money will turn into staked         balance after timeToStake days"
      },
      "unstake(uint256)": {
        "notice": "Remove tokens from staked balance. The money can         be released after timeToRelease seconds, if the         function withdraw is called."
      },
      "withdraw(uint256)": {
        "notice": "Transfer tokens to user's wallet."
      }
    },
    "version": 1
  },
  "storageLayout": {
    "storage": [
      {
        "astId": 3028,
        "contract": "contracts/StakingImpl.sol:StakingImpl",
        "label": "ctsi",
        "offset": 0,
        "slot": "0",
        "type": "t_contract(IERC20)1500"
      },
      {
        "astId": 3030,
        "contract": "contracts/StakingImpl.sol:StakingImpl",
        "label": "timeToStake",
        "offset": 0,
        "slot": "1",
        "type": "t_uint256"
      },
      {
        "astId": 3032,
        "contract": "contracts/StakingImpl.sol:StakingImpl",
        "label": "timeToRelease",
        "offset": 0,
        "slot": "2",
        "type": "t_uint256"
      },
      {
        "astId": 3036,
        "contract": "contracts/StakingImpl.sol:StakingImpl",
        "label": "staked",
        "offset": 0,
        "slot": "3",
        "type": "t_mapping(t_address,t_uint256)"
      },
      {
        "astId": 3040,
        "contract": "contracts/StakingImpl.sol:StakingImpl",
        "label": "maturing",
        "offset": 0,
        "slot": "4",
        "type": "t_mapping(t_address,t_struct(MaturationStruct)3049_storage)"
      },
      {
        "astId": 3044,
        "contract": "contracts/StakingImpl.sol:StakingImpl",
        "label": "releasing",
        "offset": 0,
        "slot": "5",
        "type": "t_mapping(t_address,t_struct(MaturationStruct)3049_storage)"
      }
    ],
    "types": {
      "t_address": {
        "encoding": "inplace",
        "label": "address",
        "numberOfBytes": "20"
      },
      "t_contract(IERC20)1500": {
        "encoding": "inplace",
        "label": "contract IERC20",
        "numberOfBytes": "20"
      },
      "t_mapping(t_address,t_struct(MaturationStruct)3049_storage)": {
        "encoding": "mapping",
        "key": "t_address",
        "label": "mapping(address => struct StakingImpl.MaturationStruct)",
        "numberOfBytes": "32",
        "value": "t_struct(MaturationStruct)3049_storage"
      },
      "t_mapping(t_address,t_uint256)": {
        "encoding": "mapping",
        "key": "t_address",
        "label": "mapping(address => uint256)",
        "numberOfBytes": "32",
        "value": "t_uint256"
      },
      "t_struct(MaturationStruct)3049_storage": {
        "encoding": "inplace",
        "label": "struct StakingImpl.MaturationStruct",
        "members": [
          {
            "astId": 3046,
            "contract": "contracts/StakingImpl.sol:StakingImpl",
            "label": "amount",
            "offset": 0,
            "slot": "0",
            "type": "t_uint256"
          },
          {
            "astId": 3048,
            "contract": "contracts/StakingImpl.sol:StakingImpl",
            "label": "timestamp",
            "offset": 0,
            "slot": "1",
            "type": "t_uint256"
          }
        ],
        "numberOfBytes": "64"
      },
      "t_uint256": {
        "encoding": "inplace",
        "label": "uint256",
        "numberOfBytes": "32"
      }
    }
  }
}