{
  "address": "0x4de00a16DEFA1395b132649229b831285BF65044",
  "abi": [
    {
      "inputs": [
        {
          "internalType": "address",
          "name": "_ctsi",
          "type": "address"
        }
      ],
      "stateMutability": "nonpayable",
      "type": "constructor"
    },
    {
      "inputs": [],
      "name": "drip",
      "outputs": [],
      "stateMutability": "payable",
      "type": "function"
    }
  ],
  "transactionHash": "0x97d948330833eafdea09856ee526e583606ed5371914f3b168f0d962553fb34c",
  "args": [
    "0xD3f1070B1Edb400204246D0a543DF21722FdB8C0"
  ],
  "solcInputHash": "ba773a60123f2fe6dac6bfdc0faccc5c",
  "bytecode": "0x608060405268056bc75e2d6310000060015534801561001d57600080fd5b506040516102973803806102978339818101604052602081101561004057600080fd5b5051600080546001600160a01b039092166001600160a01b0319909216919091179055610225806100726000396000f3fe60806040526004361061001e5760003560e01c80639f678cca14610023575b600080fd5b61002b61002d565b005b670429d069189e00003410156100745760405162461bcd60e51b81526004018080602001828103825260288152602001806101c86028913960400191505060405180910390fd5b600154600054604080516370a0823160e01b815230600482015290516001600160a01b03909216916370a0823191602480820192602092909190829003018186803b1580156100c257600080fd5b505afa1580156100d6573d6000803e3d6000fd5b505050506040513d60208110156100ec57600080fd5b50511015610141576040805162461bcd60e51b815260206004820152601860248201527f436f6e7472616374206973206f7574206f662066756e64730000000000000000604482015290519081900360640190fd5b600080546001546040805163a9059cbb60e01b81523360048201526024810192909252516001600160a01b039092169263a9059cbb926044808401936020939083900390910190829087803b15801561019957600080fd5b505af11580156101ad573d6000803e3d6000fd5b505050506040513d60208110156101c357600080fd5b505056fe4e6f7420656e6f7567682065746865722073656e7420696e20746865207472616e73616374696f6ea2646970667358221220a1d66d6ae35a2ad6c4f6476298e9ef0590c1b72d5d4877927fd4d45497b8a40564736f6c63430007040033",
  "devdoc": {
    "kind": "dev",
    "methods": {
      "constructor": {
        "params": {
          "_ctsi": "address of ERC20 token to be used"
        }
      }
    },
    "version": 1
  },
  "userdoc": {
    "kind": "user",
    "methods": {
      "constructor": {
        "notice": "Creates contract"
      },
      "drip()": {
        "notice": "Receives ether and sends CTSI back"
      }
    },
    "version": 1
  },
  "storageLayout": {
    "storage": [
      {
        "astId": 2184,
        "contract": "contracts/CTSIFaucet.sol:CTSIFaucet",
        "label": "ctsi",
        "offset": 0,
        "slot": "0",
        "type": "t_contract(IERC20)1492"
      },
      {
        "astId": 2192,
        "contract": "contracts/CTSIFaucet.sol:CTSIFaucet",
        "label": "AMOUNT",
        "offset": 0,
        "slot": "1",
        "type": "t_uint256"
      }
    ],
    "types": {
      "t_contract(IERC20)1492": {
        "encoding": "inplace",
        "label": "contract IERC20",
        "numberOfBytes": "20"
      },
      "t_uint256": {
        "encoding": "inplace",
        "label": "uint256",
        "numberOfBytes": "32"
      }
    }
  }
}