{
  "abi": [
    {
      "anonymous": false,
      "inputs": [
        {
          "indexed": false,
          "internalType": "address",
          "name": "_winner",
          "type": "address"
        },
        {
          "indexed": false,
          "internalType": "uint256",
          "name": "_roundCount",
          "type": "uint256"
        },
        {
          "indexed": false,
          "internalType": "uint256",
          "name": "_roundDuration",
          "type": "uint256"
        },
        {
          "indexed": false,
          "internalType": "uint256",
          "name": "_difficulty",
          "type": "uint256"
        }
      ],
      "name": "RoundClaimed",
      "type": "event"
    },
    {
      "inputs": [
        {
          "internalType": "uint256",
          "name": "_index",
          "type": "uint256"
        },
        {
          "internalType": "address",
          "name": "_user",
          "type": "address"
        },
        {
          "internalType": "uint256",
          "name": "_weight",
          "type": "uint256"
        }
      ],
      "name": "canWin",
      "outputs": [
        {
          "internalType": "bool",
          "name": "",
          "type": "bool"
        }
      ],
      "stateMutability": "view",
      "type": "function"
    },
    {
      "inputs": [
        {
          "internalType": "uint256",
          "name": "_index",
          "type": "uint256"
        },
        {
          "internalType": "address",
          "name": "_user",
          "type": "address"
        },
        {
          "internalType": "uint256",
          "name": "_weight",
          "type": "uint256"
        }
      ],
      "name": "claimRound",
      "outputs": [
        {
          "internalType": "bool",
          "name": "",
          "type": "bool"
        }
      ],
      "stateMutability": "nonpayable",
      "type": "function"
    },
    {
      "inputs": [],
      "name": "currentIndex",
      "outputs": [
        {
          "internalType": "uint256",
          "name": "",
          "type": "uint256"
        }
      ],
      "stateMutability": "view",
      "type": "function"
    },
    {
      "inputs": [
        {
          "internalType": "uint256",
          "name": "_index",
          "type": "uint256"
        }
      ],
      "name": "deactivate",
      "outputs": [],
      "stateMutability": "nonpayable",
      "type": "function"
    },
    {
      "inputs": [
        {
          "internalType": "uint256",
          "name": "_index",
          "type": "uint256"
        }
      ],
      "name": "getMicrosecondsSinceLastDraw",
      "outputs": [
        {
          "internalType": "uint256",
          "name": "",
          "type": "uint256"
        }
      ],
      "stateMutability": "view",
      "type": "function"
    },
    {
      "inputs": [
        {
          "internalType": "uint256",
          "name": "_index",
          "type": "uint256"
        }
      ],
      "name": "getNonce",
      "outputs": [
        {
          "internalType": "uint256",
          "name": "currentNonce",
          "type": "uint256"
        }
      ],
      "stateMutability": "view",
      "type": "function"
    },
    {
      "inputs": [
        {
          "internalType": "uint256",
          "name": "_index",
          "type": "uint256"
        },
        {
          "internalType": "address",
          "name": "_user",
          "type": "address"
        }
      ],
      "name": "getState",
      "outputs": [
        {
          "internalType": "uint256[5]",
          "name": "_uintValues",
          "type": "uint256[5]"
        }
      ],
      "stateMutability": "view",
      "type": "function"
    },
    {
      "inputs": [
        {
          "internalType": "uint256",
          "name": "",
          "type": "uint256"
        },
        {
          "internalType": "address",
          "name": "",
          "type": "address"
        }
      ],
      "name": "getSubInstances",
      "outputs": [
        {
          "internalType": "address[]",
          "name": "_addresses",
          "type": "address[]"
        },
        {
          "internalType": "uint256[]",
          "name": "_indices",
          "type": "uint256[]"
        }
      ],
      "stateMutability": "pure",
      "type": "function"
    },
    {
      "inputs": [
        {
          "internalType": "uint256",
          "name": "_minDifficulty",
          "type": "uint256"
        },
        {
          "internalType": "uint256",
          "name": "_initialDifficulty",
          "type": "uint256"
        },
        {
          "internalType": "uint256",
          "name": "_difficultyAdjustmentParameter",
          "type": "uint256"
        },
        {
          "internalType": "uint256",
          "name": "_desiredDrawTimeInterval",
          "type": "uint256"
        },
        {
          "internalType": "address",
          "name": "_posManagerAddress",
          "type": "address"
        }
      ],
      "name": "instantiate",
      "outputs": [
        {
          "internalType": "uint256",
          "name": "",
          "type": "uint256"
        }
      ],
      "stateMutability": "nonpayable",
      "type": "function"
    },
    {
      "inputs": [
        {
          "internalType": "uint256",
          "name": "_index",
          "type": "uint256"
        }
      ],
      "name": "isActive",
      "outputs": [
        {
          "internalType": "bool",
          "name": "",
          "type": "bool"
        }
      ],
      "stateMutability": "view",
      "type": "function"
    },
    {
      "inputs": [
        {
          "internalType": "uint256",
          "name": "",
          "type": "uint256"
        },
        {
          "internalType": "address",
          "name": "",
          "type": "address"
        }
      ],
      "name": "isConcerned",
      "outputs": [
        {
          "internalType": "bool",
          "name": "",
          "type": "bool"
        }
      ],
      "stateMutability": "pure",
      "type": "function"
    },
    {
      "inputs": [
        {
          "internalType": "uint256",
          "name": "_num",
          "type": "uint256"
        }
      ],
      "name": "log2ApproxTimes1M",
      "outputs": [
        {
          "internalType": "uint256",
          "name": "",
          "type": "uint256"
        }
      ],
      "stateMutability": "view",
      "type": "function"
    }
  ],
  "address": "0x16Fad52E1D2D7c5228cAfe7D290A82199404243B",
  "args": [],
  "solcInputHash": "0xb592c5c2c0725155a492042e978259083b2945962448698a64b8a2497b9bdf75",
  "bytecode": "0x60806040526000805534801561001457600080fd5b50600360205260007fa15bc60c955c405d20d9149c709e2460f1c2d9a497496a7f46004d1772c3054c819055620f42407fc3a24b0501bd2c13a7e57f2db4369ec4c223447539fc0724a9d55ac4a06ebd4d5562182f427fcbc4e5fb02c3d1de23a9f1e014b4d2ee5aeaea9505df5e855c9210bf472495af55621e84807f83ec6a1f0257b830b5e016457c9cf1435391bf56cc98f369a58a54fe937724655562236e087f405aad32e1adbac89bb7f176e338b8fc6e994ca210c9bb7bdca249b46594225055622771827fc69056f16cbaa3c616b828e333ab7d3a32310765507f8f58359e99ebb7a885f355622ad63a7ff2c49132ed1cee2a7e75bde50d332a2f81f1d01e5456d8a19d1df09bd561dbd255622dc6c07f85aaa47b6dc46495bb8824fad4583769726fea36efd831a35556690b830a8fbe5562305e857f8a8dc4e5242ea8b1ab1d60606dae757e6c2cca9f92a2cced9f72c19960bcb458556232b0487f9dcb9783ba5cd0b54745f65f4f918525e461e91888c334e5342cb380ac558d53556234c9677f2d72af3c1b2b2956e6f694fb741556d5ca9524373974378cdbec16afa8b84164556236b3c27fd56a60595ebefebed7f22dcee6c2acc61b06cf8c68e84c88677840365d1ff92b55623876d77fa8f2d96126c6d0ad63adabaef7bf5cf47f163fb0c218a473d28f62312d197bcf55623a187a7fd6ebcc64c739277b117ce359e436534b234b76e914c80ad276abf5b56207893955623b9d4a7ff60b7f6a315ec68a6ac240e69dca53652b38627f709a2caa217d9e18af4d7a6055623d09007f47d4745e02b343689a5e7ac121d2a352b7a15c10328a8759fd7d4cf0999002bb55623e5ea67ffc111d09a6e2f0958402cbe16a5aef32c9d8ddb9a4df7271140de57bfed6525a55623fa0c57f6a2b6bffaca788160f671fa62d34758b717f75a90ad5a468757c50d61f33c443556240d1777f8a8166be5f30abeb6c91ee2f07eeb0b2eb14b4d59534d10a1c143964bd617919556241f2887f0ffe031ee7f67944a037276fd51f48fcc2fe05a729c43144606bc8777da8014f556243057d7f94f2575c7592b1dfd5a8846a17482da7b0e38fb10c93880d74916c5f167924645562440ba77f370c8c7c6215b209793aa720f65163fbeecd5f5114008532ba0649ee2340540255624506297f0f0519a40093d7edad68f12e2ec868fdf92a03df1cbec3e035c987d6b218f2f4556245f6027fa3ddc4e8d053be09ec661eb04964a206cbd921c2c11fc03088857923bed1485a556246dc107fad96411afed98a37aa585ce71717b0782fa4bee47da09d8f483e532128238611556247b9177f68fc0e82119a780903c8e97d959a36d433d1e401ad7b7a461ff2087e524d54a85562488dc77f925be0b447003e4366d6addf976a9e5448b14e56ca3733fe4a9ca6f86b0dcbd55562495aba7f57023ef7fe58b878582140ea36f22723905ad724896eaf74090fba76c229bd2255624a207c7f4ba0d371c59a4c8176901cb7799ecdd8b41b974be3a1349b5d0a9ff9aaa230d955624adf8a7f6117fee2f1274e1b392d2c3fe842478040a980d896757f38cbfe2ceebfa9f55f55624b98547fbb7ea1d025e27e153f156855239b4b128e9da3a64a6f0a0270f892098958814255624c4b407fe0033292d8349127dd6b6fa9c34f6f3d290151b2785dbcbf18fa2c3985d1f74355624cf8aa7fb79c508b45d95db38395ed273cca5afa4bcb8f1225ec7e9c849430db27d6f0fe55624da0e67f9f4e12e393433b9749089d7660b578840ae05c9423ce1aefceb0c80c340a21c655624e44437f4f8c9d329171a3577e6beb939d329b1f26da4c7a51f25bbe134c866f0feee94555624ee3057f10f5232ee9f6343d8bf0b7c9043a31ee616d8f028dcf3d2e9033ff8e0ce0ef0f55624f7d6d7f37e56e4c2b6ed73b31a7a63e641bfee67245b50921806a650aa65bb58a213ba755625013b77f6e80044b428a86ddb5f7277680f16ac528219bbc3f477f367a023fd1680fef05556250a61a7f10f3a17841c6d818ccbb16e4596978865bb77ba586b583c9de26b166e55de86455625134c87ff787d5ff306ee7ea1d7b35b5cacd5a837646921c113945dbc3a3b6329ce40033556251bff07fa6d60d4ff1c38ae572157a43d1b8579039e4b4cc96e22c75c07379751785fe5155625247bd7ffbefd6df65b5da21e9f0dc3da2df6dc37be71551086f5aba2b0ad548c4758150556252cc587f47bd603b2672149df187087e649a417345c22ebc601af252344b2472b5a5fea85562534de77f181ec19a0f957384e4ecbe9410e516ad0fe8cc3e53caac5ffc50eb11e64bf488556253cc8d7fa4b6f6c87384a4c75064343ffd6646b01b98a7d0701dec60343872fe39d7889455625448697fa7d0f7195d52522be008ca0e9c182cb8d5cdec7c4327b16f8f80417732546566556254c19c7f8a3a0b6f6fa9438554c4aa5bdaf7838f6c90507836aabb33d6ebaeb414e248f955625538427f5f3ffac152518418b730c1b4427b48de47a050e582434504c9ffd15088f0d196556255ac757f28eef39a072497d2105dcb780594e4ed840d3beb94e2ea31a78a935b50a4ae2e5562561e507f3ba015d6b845e102ce2f76836007be82508e3543856f2a3c2ff4b56eb46d920e5562568de97f308b08755ec965f49e4d58d22ebbf80dc425791b553f8567a173e85e1abb76c3556256fb577fda4c88cb8422456e6dbc87bdc0d70fdf69c0f9f7d6833899744759615d2d4cc555625766b07f6a4c132bb6958029ac3595112f46988f11d4ebbbea74e0a2100963f772df62e2556257d0077f1c5556a54fe414bb73b8e027c2ff4bb044a11e7ca4f73a8463fd263d06b76aa6556258376f7f2bb318060b44525c3d947c00393e6d416e9d457a7e83b67b8daab0973739b0fa5562589cfa7f22848320af6c4894685e387cf97d56ba798f5dabcd8f3a2db70374776f0f2f9355625900ba7f7328c223b526ac18a2ca34e3cc928d22c174fde8c81d65ae5d17c01763d134b155625962bc7f4e68cda4a6128fdfebaae69af59e96a318b50754e0da27477d282f3d224cc4fd556259c3137f9c0ea5b0ac1441361bd97a1871d83799b2d794cf29a9954ddc2e33262e005d6755625a21ca7f01c8d1bf01472944f62fa726559c57c955f3535856e865cee78082252c0dbe6555625a7ef17fa171e6dff2e291b2403638b36fa1900bfb6d28056b9cc28339adf04ff3e24b8855625ada947f7bfa808024a5334b0a1e191d8e95f6724ea40d1a03d1286b6934e670f8c6924b55625b34bf7f163a647ba7edd41caabec3eace9ce83f1a89ebea06fc099aa7fb98088da7513155625b8d807f13e779bc7ec8e84a68157fc5c2caa579dc0ee0b80d83944c270539b94cac271f55625be4df7fc20be026ae5ea792bd28b5908d1dfcfd8c2e447d9276607ddf6143e7dddc0fe855625c3aea7ffc869d08d1790d4602743c5b6e4adb33c74c1d0d7c8c47359779d859193dcb0555625c8fa97f682542400590cecd25f82cad25103b4dc125cd3511d319539197c8bb9765a74f55625ce3267fd5310f85f4460a57771b0ba7c922e1273458411836157e863377c3ceba09ccc555625d356c7f885ce2cbc289e24b266643f1b3bd713351837e3869b2fe1821204bfb89df835555625d86837fdd629e5d55690c61d87bb2283f8033a4ed0c9727f0b3cc897e051f7afda800a555625dd6737fbf2d989c23a487b38b309e949c76d08bdddf97e9ae5fc829f5fc1d9822c0dd1955625e25457f8195e934be8e1e1e67e36670679242f3eb3fe013d19203686902c1dc42dff3e455625e73007fea1c8d9962659d05b79d2a74379c386e592caf47911721f070f5587a9f030ffa55625ebfad7f4527180e78e4a6462bf9deb3d847e2025103f904bac3cb89e4a58cffdf5fa00455625f0b527f58c60c4a0bb2d3f34cbaba1a0b564f51356f6627445683dc231bf6b72193af3c55625f55f77fd899c8b99c107ebd126158f0533ed068d266f28a5afc25749942d7d708638c6d55625f9fa27ff2222d92a706d2b36524284936563927b6d77fb3761e96fdbe8143f444bd785b55625fe85a7fd59eb1c08df610a2d207db4db91372b9fa60f3de2255ec3b0fbfc33ac859314955626030247f35cf9ccc5fb50786824d0efe505d33216d9658f34614e7c25f0d5baeb2b0c67255626077087fe7defe1a9ee2663e7f593684ebe15b56452e1fa833a7efa12070ad6443b10819556260bd0a7f0cc2e7a263101f3ec4cff7d64ef5961ae18d1d70e854cb40c5302bf7c043d7b955626102307f21a96d7401b4330badc55cca6afdb5531f4ba2a6923da027f434c4639f5c1d71556261467f7fef8374c201f52e9cadf0358fa9fe81d3b5dc6cfd55611ff392a0f6af5d359a1b55626189fd7ffd55fc2e9ef63e16e696580fa41a16b1359de042d9d894f9176ffec1c194a986556261ccae7f2306dd40301e71102649086fa4506190474e93c93807bd630a59f18e25c479655562620e987fc201016ffcff91372d8b487e0ff78ba4e7738ee54ab48b285b35d264809991125562624fbf7fa484bdabb1b1f1b9f179449ca8abb8e46314b53c02f491f47dc3b425cdc5c27255626290277fca1941ffd2876354dca11a76468fb85895321380bff6312dcbd61b110f22031e556262cfd57f2642cbfa046d8004053cd054e488df5b74257ae1e497e38d227e7244ef11bf2d5562630ecd7f3219ed562b3fd9188a49dd9a57bec5aecadcb61ea33f29053262442c210d825f5562634d127f0913d404e020f0557f3aea1dc8fd0190ea3453f59952e2c41e4746bdfcd39c785562638aa97f81df324fbe7ec2f6d6affc089132b5517e4c091511c539ecfb5003bac7e24648556263c7967f0d4058d6b6bac28a1c06101425f18eb1ca62098acfc503f321647be92939156d55626403dc7f2023c3bd05b942cf6cbd5cd645de4d3fea19926fd4838b16303d2ed6275084725562643f7f7fb9c7405fdb60827a063770d15a9163cf3257eafb54d63ebc3245e8170763b9ae5562647a827f6b9240d7ade1f051aed76811ad8dd613b8df4c244b38ce53081de0fea8fec673556264b4e87f767e32fd18349f6756b14c9960d71c7fab8d03be981e4c9c8d4aa06a28b66047556264eeb57f95505a17747b834552dc9f252b9911e949b8ffdf7a51d678a6bd11af986b15de55626527ec7f60193afc785b329e0409b25280ddad469386cea4adcdaee645046ba068f899a555626560907f6b16ef514f22b74729cbea5cc7babfecbdc2309e530ca716643d11fe929eed2e55626598a37f5ed25f7f90ee98fc55a6c59d7b052a857d4bf613ad8f5f7fd8077c1e252c6c1a556265d0297feaaacae94bbfc90c56bc9f09c078e38d09be79409287043ed56adc78213c210955626607247fd3f86b308abd5a5ac58ed63770d3a598e1ef2fea81b795d05851b62b55f860e15562663d977fc7f3482db4b48d5b39d680ce04da2e80d893166f9e18fa49855f2d75c8538dc955626673857f8bd72d705e704e96ab1fa5baf1ac8053f4ec008dca8cf0376ca60a5648fa9532556266a8f07f7b2f1db823434eb2c3257b921622f3b73c33ed78ab6344072b7d0d89829cce01556266ddda7f296cfac21069339fcd7b6795214eac09a46f358e68cba56520ec496c3c1f4ad555626712477fb567f360362dc4a027220042f6ee0433026937822e3fc3bc268ec5f820d029fa55626746387fbca97d98b7da2037de81c9a55b229109649fd288e0c478a01cd149c3609ae90b55626779af7f0de2b21138735878e0660eef23d1131fad23d66157bfa1c473a82b60c5169926556267acaf7e4ef3f825c8849c73999f6e84fcb0332c1597fa3afbd85f7f1f35c7ac696bc2556267df3a7f9ff053d1d05d615e9da14e487ea593a41d5f35a8cc975b547dec50b34f0a1fc355626811527fbb4ac5d7b238e09f0346251f5f12e6fe98711019a88910e6a64f47bf73e6c3c255626842fa7f934d131d2cde113c982d8c5aa4cd3a36418695634bde518aa36ccc61a54277a455626874327f171401a72e6158e4ccfac50451ab80b54a8a49fb38ddbe4a9fa1dc4621db11df556268a4fc7f158cf96e390593ec3d9db70f55562909ef65f4603e50b9bf4a3df75ee2795f30556268d55c7f8a6b747e4193754f5887d456542feeee62a909f5cc32e46553fc5e84632ffaaf55626905537fbaba906220955b09fec23b575e20afa7d08161b8520bb9d5ec850371b93edf9855626934e17fb5a42588d5297c2c9a9751ba5ae38977af4907b8f80318e93daca5c46498c2f2556269640a7fe372c44748f4c2908ae7c0a1dc553464478b0394f70953faecd55173b039317c55626992cf7fb8ffc108b5770692dc6f82cd58a35d7f10f432156bbe6b494657d1d60f3c1122556269c1317f0c91243f75e216cf1d80d738f653c23abf15a7e3590b83c6e4772e2ddcffe533556269ef327fc6c1f2eeb875766781b69c94cb973ac6e9b00bb16318d283df0af503db0f700d55626a1cd47feed16813d2f65d55dfcd646492ebe0107b86489aa89e1ee58b4c544f69fec4ae55626a4a187fc0731efbb8e22f33f65c29aab21810b779ac375fa7bc4012aa97121e576839e055626a76ff7f4f927caeb3971f91fa48df6c469df5f4f4dedc93d1908f816f25a660193dc17155626aa38c7fbb77812a8fa7fa6a572953fea9126358f3aec9cde938b0c1788d783c38ffd2cb5560809052626acfc07f3429d6fa9db26e5631128d8185584d24f10323af033be7ff252ec8822b07bae155610d838061132c6000396000f3fe608060405234801561001057600080fd5b50600436106100b45760003560e01c806382afd23b1161007157806382afd23b146101f8578063916b9bef14610215578063c526656c14610234578063de76c5b9146102f9578063e3581b6814610316578063f0d2a38c14610333576100b4565b806301ff62ab146100b957806326987b60146100f95780632b52322c146101135780633d46b8191461014557806373df1612146101625780637fdd4b85146101c6575b600080fd5b6100e5600480360360408110156100cf57600080fd5b50803590602001356001600160a01b0316610371565b604080519115158252519081900360200190f35b61010161037a565b60408051918252519081900360200190f35b6100e56004803603606081101561012957600080fd5b508035906001600160a01b036020820135169060400135610380565b6101016004803603602081101561015b57600080fd5b5035610406565b61018e6004803603604081101561017857600080fd5b50803590602001356001600160a01b03166104b7565b604051808260a080838360005b838110156101b357818101518382015260200161019b565b5050505090500191505060405180910390f35b6100e5600480360360608110156101dc57600080fd5b508035906001600160a01b036020820135169060400135610538565b6100e56004803603602081101561020e57600080fd5b503561065e565b6102326004803603602081101561022b57600080fd5b5035610676565b005b6102606004803603604081101561024a57600080fd5b50803590602001356001600160a01b0316610699565b604051808060200180602001838103835285818151815260200191508051906020019060200280838360005b838110156102a457818101518382015260200161028c565b50505050905001838103825284818151815260200191508051906020019060200280838360005b838110156102e35781810151838201526020016102cb565b5050505090500194505050505060405180910390f35b6101016004803603602081101561030f57600080fd5b50356106e6565b6101016004803603602081101561032c57600080fd5b503561070d565b610101600480360360a081101561034957600080fd5b50803590602081013590604081013590606081013590608001356001600160a01b03166107b6565b60005b92915050565b60005481565b6000838152600460205260408120600781015443116103a35760009150506103ff565b60006103ae866106e6565b905060dc6103c98360070154436108a590919063ffffffff16565b11806103fa57506103ee6103dd87876108e7565b600384015490630f4240000361096d565b6103f8858361096d565b115b925050505b9392505050565b6000818060005411610458576040805162461bcd60e51b8152602060048201526016602482015275125b99195e081b9bdd081a5b9cdd185b9d1a585d195960521b604482015290519081900360640190fd5b6104618161065e565b6104a3576040805162461bcd60e51b815260206004820152600e60248201526d496e64657820696e61637469766560901b604482015290519081900360640190fd5b505060009081526002602052604090205490565b6104bf610c7f565b60008381526004602052604090206104d5610c7f565b6040518060a00160405280438152602001836007015481526020018360030154815260200161051e620f42406105188660020154426108a590919063ffffffff16565b9061096d565b815260200161052d87876108e7565b905295945050505050565b6000838152600460205260408120826105825760405162461bcd60e51b815260040180806020018281038252602a815260200180610d24602a913960400191505060405180910390fd5b60088101546001600160a01b031633146105cd5760405162461bcd60e51b815260040180806020018281038252602a815260200180610c9e602a913960400191505060405180910390fd5b6105d8858585610380565b15610653577faf52b86a5d24cd265704bc55c6247be8d17819d1a6e274288e67c876d0f89a3d84826001015461060d886106e6565b6003850154604080516001600160a01b0390951685526020850193909352838301919091526060830152519081900360800190a161064b85856109c6565b9150506103ff565b506000949350505050565b60008181526001602052604090205460ff165b919050565b6000908152600160209081526040808320805460ff191690556002909152812055565b606080808060006040519080825280602002602001820160405280156106c9578160200160208202803683370190505b506040805160008152602081019091529097909650945050505050565b600081815260046020526040812060028101546103ff90620f4240906105189042906108a5565b600080821161075b576040805162461bcd60e51b81526020600482015260156024820152744e756d6265722063616e6e6f74206265207a65726f60581b604482015290519081900360640190fd5b60008260011415610770576000915050610671565b5b60008381526003602052604090205461079057600192831c9201610771565b6000838152600360205260409020546103ff906107b083620f424061096d565b90610a43565b6000601e83116107f75760405162461bcd60e51b815260040180806020018281038252603b815260200180610cc8603b913960400191505060405180910390fd5b506000805481526004602081815260408084209092018890558254835281832060030187905582548352818320600501869055825483528183206006018590558254835281832060080180546001600160a01b0319166001600160a01b0386161790558254835281832043600190810160079092019190915583548452828420426002909101558354845290819052908220805460ff19168217905581549081019091555b95945050505050565b60006103ff83836040518060400160405280601e81526020017f536166654d6174683a207375627472616374696f6e206f766572666c6f770000815250610a9d565b60008281526004602090815260408083206007015481516bffffffffffffffffffffffff19606087901b168185015282518082036014018152603482018452805190850120605482018190529140607480830182905284518084039091018152609490920190935280519301929092209091906109638161070d565b9695505050505050565b60008261097c57506000610374565b8282028284828161098957fe5b04146103ff5760405162461bcd60e51b8152600401808060200182810382526021815260200180610d036021913960400191505060405180910390fd5b60008281526004602081815260408084206001810154855291829052832080546001600160a01b0319166001600160a01b0386161790559081015460038201546002830154610a2b929190610a1c9042906108a5565b84600601548560050154610b34565b6003820155610a3984610bb4565b5060019392505050565b6000828201838110156103ff576040805162461bcd60e51b815260206004820152601b60248201527f536166654d6174683a206164646974696f6e206f766572666c6f770000000000604482015290519081900360640190fd5b60008184841115610b2c5760405162461bcd60e51b81526004018080602001828103825283818151815260200191508051906020019080838360005b83811015610af1578181015183820152602001610ad9565b50505050905090810190601f168015610b1e5780820380516001836020036101000a031916815260200191505b509250505060405180910390fd5b505050900390565b600082841015610b6957610b62610b58620f4240610b52888661096d565b90610bdd565b8690600101610a43565b905061089c565b82841115610baa576000610b91610b87620f4240610b52898761096d565b87906001016108a5565b9050868111610ba05786610ba2565b805b91505061089c565b5092949350505050565b600090815260046020526040902060018082018054820190554301600782015542600290910155565b60006103ff83836040518060400160405280601a81526020017f536166654d6174683a206469766973696f6e206279207a65726f00000000000081525060008183610c695760405162461bcd60e51b8152602060048201818152835160248401528351909283926044909101919085019080838360008315610af1578181015183820152602001610ad9565b506000838581610c7557fe5b0495945050505050565b6040518060a00160405280600590602082028036833750919291505056fe46756e6374696f6e2063616e206f6e6c792062652063616c6c656420627920706f7320616464726573734465736972656420647261772074696d6520696e74657276616c2068617320746f20626520626967676572207468616e203330207365636f6e6473536166654d6174683a206d756c7469706c69636174696f6e206f766572666c6f7743616c6c6572206d7573742068617665206174206c65617374206f6e65207374616b656420746f6b656ea2646970667358221220d0d95d1fc750e9f23c8be42c9b7244fb453a5c0f3bdb5e33fd772888c57a4a4264736f6c63430007010033",
  "devdoc": {
    "kind": "dev",
    "methods": {
      "canWin(uint256,address,uint256)": {
        "params": {
          "_index": "the index of the instance of lottery you want to interact with",
          "_user": "the address that is gonna get checked",
          "_weight": "number that will weight the random number, most likely will be the number of staked tokens"
        }
      },
      "claimRound(uint256,address,uint256)": {
        "params": {
          "_index": "the index of the instance of lottery you want to interact with",
          "_user": "address that will win the lottery",
          "_weight": "number that will weight the random number, most likely will be the number of staked tokens"
        }
      },
      "getMicrosecondsSinceLastDraw(uint256)": {
        "params": {
          "_index": "the index of the instance of lottery to be interact with"
        },
        "returns": {
          "_0": "microseconds passed since last draw started"
        }
      },
      "instantiate(uint256,uint256,uint256,uint256,address)": {
        "params": {
          "_desiredDrawTimeInterval": "how often we want to elect a winner",
          "_difficultyAdjustmentParameter": "how quickly the difficulty gets updated according to the difference between time passed and desired draw time interval.",
          "_initialDifficulty": "starting difficulty",
          "_minDifficulty": "lower bound for difficulty parameter",
          "_posManagerAddress": "address of ProofOfStake that will use this instance"
        }
      },
      "log2ApproxTimes1M(uint256)": {
        "params": {
          "_num": "number to take log2 * 1M of"
        }
      }
    },
    "version": 1
  },
  "userdoc": {
    "kind": "user",
    "methods": {
      "canWin(uint256,address,uint256)": {
        "notice": "Check if address can win current round"
      },
      "claimRound(uint256,address,uint256)": {
        "notice": "Claim that _user won the round"
      },
      "getMicrosecondsSinceLastDraw(uint256)": {
        "notice": "Returns time since last draw started, in microseconds"
      },
      "instantiate(uint256,uint256,uint256,uint256,address)": {
        "notice": "Instantiates a Speed Bump structure"
      },
      "log2ApproxTimes1M(uint256)": {
        "notice": "Approximates log2 * 1M"
      }
    },
    "version": 1
  },
  "storageLayout": {
    "storage": [
      {
        "astId": 934,
        "contract": "contracts/Lottery.sol:Lottery",
        "label": "currentIndex",
        "offset": 0,
        "slot": "0",
        "type": "t_uint256"
      },
      {
        "astId": 938,
        "contract": "contracts/Lottery.sol:Lottery",
        "label": "active",
        "offset": 0,
        "slot": "1",
        "type": "t_mapping(t_uint256,t_bool)"
      },
      {
        "astId": 942,
        "contract": "contracts/Lottery.sol:Lottery",
        "label": "nonce",
        "offset": 0,
        "slot": "2",
        "type": "t_mapping(t_uint256,t_uint256)"
      },
      {
        "astId": 9,
        "contract": "contracts/Lottery.sol:Lottery",
        "label": "log2tableTimes1M",
        "offset": 0,
        "slot": "3",
        "type": "t_mapping(t_uint256,t_uint256)"
      },
      {
        "astId": 1602,
        "contract": "contracts/Lottery.sol:Lottery",
        "label": "instance",
        "offset": 0,
        "slot": "4",
        "type": "t_mapping(t_uint256,t_struct(LotteryCtx)1598_storage)"
      }
    ],
    "types": {
      "t_address": {
        "encoding": "inplace",
        "label": "address",
        "numberOfBytes": "20"
      },
      "t_bool": {
        "encoding": "inplace",
        "label": "bool",
        "numberOfBytes": "1"
      },
      "t_mapping(t_uint256,t_address)": {
        "encoding": "mapping",
        "key": "t_uint256",
        "label": "mapping(uint256 => address)",
        "numberOfBytes": "32",
        "value": "t_address"
      },
      "t_mapping(t_uint256,t_bool)": {
        "encoding": "mapping",
        "key": "t_uint256",
        "label": "mapping(uint256 => bool)",
        "numberOfBytes": "32",
        "value": "t_bool"
      },
      "t_mapping(t_uint256,t_struct(LotteryCtx)1598_storage)": {
        "encoding": "mapping",
        "key": "t_uint256",
        "label": "mapping(uint256 => struct Lottery.LotteryCtx)",
        "numberOfBytes": "32",
        "value": "t_struct(LotteryCtx)1598_storage"
      },
      "t_mapping(t_uint256,t_uint256)": {
        "encoding": "mapping",
        "key": "t_uint256",
        "label": "mapping(uint256 => uint256)",
        "numberOfBytes": "32",
        "value": "t_uint256"
      },
      "t_struct(LotteryCtx)1598_storage": {
        "encoding": "inplace",
        "label": "struct Lottery.LotteryCtx",
        "members": [
          {
            "astId": 1581,
            "contract": "contracts/Lottery.sol:Lottery",
            "label": "roundWinner",
            "offset": 0,
            "slot": "0",
            "type": "t_mapping(t_uint256,t_address)"
          },
          {
            "astId": 1583,
            "contract": "contracts/Lottery.sol:Lottery",
            "label": "roundCount",
            "offset": 0,
            "slot": "1",
            "type": "t_uint256"
          },
          {
            "astId": 1585,
            "contract": "contracts/Lottery.sol:Lottery",
            "label": "currentDrawStartTime",
            "offset": 0,
            "slot": "2",
            "type": "t_uint256"
          },
          {
            "astId": 1587,
            "contract": "contracts/Lottery.sol:Lottery",
            "label": "difficulty",
            "offset": 0,
            "slot": "3",
            "type": "t_uint256"
          },
          {
            "astId": 1589,
            "contract": "contracts/Lottery.sol:Lottery",
            "label": "minDifficulty",
            "offset": 0,
            "slot": "4",
            "type": "t_uint256"
          },
          {
            "astId": 1591,
            "contract": "contracts/Lottery.sol:Lottery",
            "label": "difficultyAdjustmentParameter",
            "offset": 0,
            "slot": "5",
            "type": "t_uint256"
          },
          {
            "astId": 1593,
            "contract": "contracts/Lottery.sol:Lottery",
            "label": "desiredDrawTimeInterval",
            "offset": 0,
            "slot": "6",
            "type": "t_uint256"
          },
          {
            "astId": 1595,
            "contract": "contracts/Lottery.sol:Lottery",
            "label": "currentGoalBlockNumber",
            "offset": 0,
            "slot": "7",
            "type": "t_uint256"
          },
          {
            "astId": 1597,
            "contract": "contracts/Lottery.sol:Lottery",
            "label": "posManagerAddress",
            "offset": 0,
            "slot": "8",
            "type": "t_address"
          }
        ],
        "numberOfBytes": "288"
      },
      "t_uint256": {
        "encoding": "inplace",
        "label": "uint256",
        "numberOfBytes": "32"
      }
    }
  },
  "gasEstimates": {
    "creation": {
      "codeDepositCost": "691800",
      "executionCost": "2551526",
      "totalCost": "3243326"
    },
    "external": {
      "canWin(uint256,address,uint256)": "infinite",
      "claimRound(uint256,address,uint256)": "infinite",
      "currentIndex()": "1021",
      "deactivate(uint256)": "26158",
      "getMicrosecondsSinceLastDraw(uint256)": "infinite",
      "getNonce(uint256)": "2931",
      "getState(uint256,address)": "infinite",
      "getSubInstances(uint256,address)": "739",
      "instantiate(uint256,uint256,uint256,uint256,address)": "infinite",
      "isActive(uint256)": "1124",
      "isConcerned(uint256,address)": "288",
      "log2ApproxTimes1M(uint256)": "infinite"
    },
    "internal": {
      "_reset(uint256)": "60936",
      "_roundFinished(uint256,address)": "infinite",
      "getLogOfRandom(uint256,address)": "infinite",
      "getNewDifficulty(uint256,uint256,uint256,uint256,uint256)": "infinite"
    }
  }
}