{
  "abi": [
    {
      "anonymous": false,
      "inputs": [
        {
          "indexed": true,
          "internalType": "uint256",
          "name": "_index",
          "type": "uint256"
        },
        {
          "indexed": true,
          "internalType": "address",
          "name": "_user",
          "type": "address"
        },
        {
          "indexed": true,
          "internalType": "address",
          "name": "_beneficiary",
          "type": "address"
        },
        {
          "indexed": false,
          "internalType": "uint256",
          "name": "_split",
          "type": "uint256"
        }
      ],
      "name": "BeneficiaryAdded",
      "type": "event"
    },
    {
      "anonymous": false,
      "inputs": [
        {
          "indexed": true,
          "internalType": "address",
          "name": "previousOwner",
          "type": "address"
        },
        {
          "indexed": true,
          "internalType": "address",
          "name": "newOwner",
          "type": "address"
        }
      ],
      "name": "OwnershipTransferred",
      "type": "event"
    },
    {
      "inputs": [
        {
          "internalType": "uint256",
          "name": "_index",
          "type": "uint256"
        },
        {
          "internalType": "address",
          "name": "_beneficiary",
          "type": "address"
        },
        {
          "internalType": "uint256",
          "name": "_split",
          "type": "uint256"
        }
      ],
      "name": "addBeneficiary",
      "outputs": [],
      "stateMutability": "nonpayable",
      "type": "function"
    },
    {
      "inputs": [
        {
          "internalType": "uint256",
          "name": "_index",
          "type": "uint256"
        }
      ],
      "name": "claimWin",
      "outputs": [
        {
          "internalType": "bool",
          "name": "",
          "type": "bool"
        }
      ],
      "stateMutability": "nonpayable",
      "type": "function"
    },
    {
      "inputs": [],
      "name": "currentIndex",
      "outputs": [
        {
          "internalType": "uint256",
          "name": "",
          "type": "uint256"
        }
      ],
      "stateMutability": "view",
      "type": "function"
    },
    {
      "inputs": [
        {
          "internalType": "uint256",
          "name": "_index",
          "type": "uint256"
        }
      ],
      "name": "deactivate",
      "outputs": [],
      "stateMutability": "nonpayable",
      "type": "function"
    },
    {
      "inputs": [
        {
          "internalType": "uint256",
          "name": "_index",
          "type": "uint256"
        }
      ],
      "name": "getNonce",
      "outputs": [
        {
          "internalType": "uint256",
          "name": "currentNonce",
          "type": "uint256"
        }
      ],
      "stateMutability": "view",
      "type": "function"
    },
    {
      "inputs": [
        {
          "internalType": "uint256",
          "name": "_index",
          "type": "uint256"
        },
        {
          "internalType": "address",
          "name": "",
          "type": "address"
        }
      ],
      "name": "getState",
      "outputs": [
        {
          "internalType": "bool",
          "name": "",
          "type": "bool"
        },
        {
          "internalType": "address",
          "name": "",
          "type": "address"
        },
        {
          "internalType": "uint256",
          "name": "",
          "type": "uint256"
        },
        {
          "internalType": "uint256",
          "name": "",
          "type": "uint256"
        }
      ],
      "stateMutability": "view",
      "type": "function"
    },
    {
      "inputs": [
        {
          "internalType": "uint256",
          "name": "_index",
          "type": "uint256"
        },
        {
          "internalType": "address",
          "name": "",
          "type": "address"
        }
      ],
      "name": "getSubInstances",
      "outputs": [
        {
          "internalType": "address[]",
          "name": "_addresses",
          "type": "address[]"
        },
        {
          "internalType": "uint256[]",
          "name": "_indices",
          "type": "uint256[]"
        }
      ],
      "stateMutability": "view",
      "type": "function"
    },
    {
      "inputs": [
        {
          "internalType": "address",
          "name": "_stakingAddress",
          "type": "address"
        },
        {
          "internalType": "address",
          "name": "_lotteryAddress",
          "type": "address"
        },
        {
          "internalType": "address",
          "name": "_workerAuthAddress",
          "type": "address"
        },
        {
          "internalType": "uint256",
          "name": "_difficultyAdjustmentParameter",
          "type": "uint256"
        },
        {
          "internalType": "uint256",
          "name": "_desiredDrawTimeInterval",
          "type": "uint256"
        },
        {
          "internalType": "address",
          "name": "_prizeManagerAddress",
          "type": "address"
        }
      ],
      "name": "instantiate",
      "outputs": [
        {
          "internalType": "uint256",
          "name": "",
          "type": "uint256"
        }
      ],
      "stateMutability": "nonpayable",
      "type": "function"
    },
    {
      "inputs": [
        {
          "internalType": "uint256",
          "name": "_index",
          "type": "uint256"
        }
      ],
      "name": "isActive",
      "outputs": [
        {
          "internalType": "bool",
          "name": "",
          "type": "bool"
        }
      ],
      "stateMutability": "view",
      "type": "function"
    },
    {
      "inputs": [
        {
          "internalType": "uint256",
          "name": "_index",
          "type": "uint256"
        },
        {
          "internalType": "address",
          "name": "",
          "type": "address"
        }
      ],
      "name": "isConcerned",
      "outputs": [
        {
          "internalType": "bool",
          "name": "",
          "type": "bool"
        }
      ],
      "stateMutability": "view",
      "type": "function"
    },
    {
      "inputs": [
        {
          "internalType": "uint256",
          "name": "_num",
          "type": "uint256"
        }
      ],
      "name": "log2ApproxTimes1M",
      "outputs": [
        {
          "internalType": "uint256",
          "name": "",
          "type": "uint256"
        }
      ],
      "stateMutability": "view",
      "type": "function"
    },
    {
      "inputs": [],
      "name": "owner",
      "outputs": [
        {
          "internalType": "address",
          "name": "",
          "type": "address"
        }
      ],
      "stateMutability": "view",
      "type": "function"
    },
    {
      "inputs": [],
      "name": "renounceOwnership",
      "outputs": [],
      "stateMutability": "nonpayable",
      "type": "function"
    },
    {
      "inputs": [
        {
          "internalType": "address",
          "name": "newOwner",
          "type": "address"
        }
      ],
      "name": "transferOwnership",
      "outputs": [],
      "stateMutability": "nonpayable",
      "type": "function"
    }
  ],
  "address": "0xB8D8b13cb05F3AFa0d1e6A5F25058AD3D83175C1",
  "args": [],
  "solcInputHash": "0xfe14e53b1bd438b326fbcbc09ee68f59e0152ec6762a9da7ea585c5482eb71ff",
  "bytecode": "0x6080604052600060015534801561001557600080fd5b506000610020611378565b600080546001600160a01b0319166001600160a01b0383169081178255604051929350917f8be0079c531659141344cd1fd0a4f28419497f9722a3daafe3b4186f6b6457e0908290a350600460205260007fabd6e7cb50984ff9c2f3e18a2660c3353dadf4e3291deeb275dae2cd1e44fe05819055620f42407f91da3fd0782e51c6b3986e9e672fd566868e71f3dbc2d6c2cd6fbb3e361af2a75562182f427f2e174c10e159ea99b867ce3205125c24a42d128804e4070ed6fcc8cc98166aa055621e84807f1a1e6821cde7d0159c0d293177871e09677b4e42307c7db3ba94f8648a5a050f5562236e087f04cde762ef08b6b6c5ded8e8c4c0b3f4e5c9ad7342c88fcc93681b4588b73f0555622771827fc59312466997bb42aaaf719ece141047820e6b34531e1670dc1852a453648f0f55622ad63a7fbeb3bad75134cb432e5707980e3245c52c5998a1125ee30f2f0dbf3925b1e55155622dc6c07f2645749a946633740611cfc8178319f0958659d6922e4bf7e3a08b44789f53a45562305e857f4ad5a04d53b5856f318545bb721f67d3f6d0a5a999f25eec7e20eaeb4c47b933556232b0487f5c6b02db8b672415ffad906d7ccee10bd53dbad7d0b29e2bc0e50c93d5f31093556234c9677f0c1469ad586d86b6976c45826d7ae56d76ee516e37a2bccffbe904b74dbae7ea556236b3c27f140aabff1a85df08546c9a350c79ae18341bde4a2cef5d2fd460885c0128ce2655623876d77fa5022b2bfd144bf9103d80168549b5df7c72ab60bd51bf71a02a08d844853b4a55623a187a7feb3e677499e881fe1bdbc344a49c412138038a9f40883b6dc68f713aab48352355623b9d4a7f66b61daf77b854ca6ba000a8d4b340eafcdb71b6583753b4af89fceb54988fff55623d09007f4a597304b2df0a7a7b428b3c24c35ba6373aabebf9972387f5610f74a01b21bd55623e5ea67fac375bcb880242328180c23d4a918023a12a7caf7cf12b8c4074e4a3f39900a055623fa0c57f7f6fa3f34639ea1891363ca773619dbd5f652d7ab50411111dde2f57e3ae13ad556240d1777f9bbf2ad10217b6212df1939350a047a69b6887b770020d3fa8c328c0653ee987556241f2887ff7deed9399d719bf61dcb1322c056a03a885c275ab093673b0cc182b84bea061556243057d7f1bb30a1647f6f6723cb3a88838ce0319afabe51263fc466f2f669a7a24ad88c65562440ba77f87e655ef16e4075af30c6a90c2b439f7dcd2d83a606dafadaee10cffaf91813255624506297fff624574ceefb6578b3887a7448cf2ca4d120002f646987b0a9b9ad3f6dc2c10556245f6027f1ac66383b86984a837d32661c9fdda480194de6e2dbd3891e29fadcb763a62da556246dc107feb5726be0cc40daa58a5f8f81528465ddb0c35e1e56e157eca916d69d6c34324556247b9177ff6eb4279aa452568dd287204244d7e29d7ca1bc7a01440f08342bf2599f4b9b65562488dc77fd8906b3e50614809ec86d7bb29bf3c4e8647f5376e87f81687a4a770137f7d595562495aba7f69bc8c08a6b955aec2072ca430bac7123bc3539264a736d1a23621b0f0c62f3155624a207c7f547911337f50119fe7598b1be3fa84d3d0506ffe5c730db17c43bc74040bbfce55624adf8a7f9041ee6632bd2142b9cc58f348e0761559f8d964fe48ac6d87dc2b689213e3bb55624b98547f4c55bec45be59a99d441ccb7880f9b68f316b687ab5ac77efc4386a80700776855624c4b407f96648185182926add89ee4d5c354d3f3e8383a8966d4d875bd8575e13aa27a9655624cf8aa7f1a6a7f21c46330bc6f6a1e986d3ef56bc7833cc3006bfde177cce9f14283765955624da0e67f7817f7889f42986426820e39b6be36471d2facb3b03609d32089206107cd0e8a55624e44437fb91c9b6e3cf94511f58867e361a9e0dd6a5c84a5d216d6f87ae5fdb9bf257b2b55624ee3057f724ad3d24f57aae4bebead5383879105ce62b9d5fa67d4343ae412b59bd7971d55624f7d6d7f2b9c662716c34a6b24cd9b4f63fe731a136a5a3399a9750ed5cdee99e40faa3a55625013b77ff8f9fbe49577efd32b3647a88078df070961ceaa913763423b34eeb65953041b556250a61a7faaded8c7cb956d25d285cba29213c176ec5fc32f3996cb04804f6c9dc496ea7255625134c87f2b634da6ab875d88498f503820d9b51f6eb10d3d2f378c32aef2289b509f3def556251bff07fda151e1f1eb9b837d3da35d08f1188bdcb6e944aa00ae0cc2fa12060555d939b55625247bd7f4045736e0d6732881e3d4bd60e2ea0771cee9b1fc6c317a33475d710474b9adc556252cc587f90cda500e35aaf03a1a434c6c35e405898eb7e8c3b95c3a697cd23106146040e5562534de77fcee00ef6983e77a7e1db3b46722f66f35b443eda730735f8d62ca455b3aed108556253cc8d7f23b46c729058bbeb475c41bb0ca0b2ae749b9f5c561c6c7b69407ac2bf12369955625448697f3377cca8db66d73c9613cf008dc21372e328915d0ae53c1e79018b2f3033b4be556254c19c7ffac89625171123edccfe88e684fd4aea5c340aeae5af371b184adfb7953ce96555625538427f8eeeed6187cb0efc838c06115ccee03417eb91ef74d6a7e8c96ea8053a407fae556255ac757f889c62308daa6a51a3c7dfff70cb50b00b7af78748d7c943941aeb811a32df5d5562561e507feaa72e3626d79eea854e214b64a34b95d0c9348f5b8df0b074d774f7dba83c655562568de97fd59d36d9a2de213c9d9eb0f9211f3a0af11fcfbb0f65cfc9f3c7b45309667e2e556256fb577f07dc151607d341bea6405c6398e0dc78a39309d388b0d5ca847fa0950c59368555625766b07fe2b108dd778a5bf8f865adc0a50f1ea8fe250a60446ec6aaace1c5f8d7469078556257d0077f730d07f07f071f74973307d6cc3e11ed033d9a189205b3edf35c60097eb89c42556258376f7fa8de14f068f1024c1a1b5395efa894ce1c350782aeaf13977a9da37fbd9c52da5562589cfa7f34db2c2506a14ae3565d22daf9fb04f13bcfe9437628061d7d65cec98630673c55625900ba7f5705310f8d95d9f533c285626b9f795711df8fcd20ef72d3e53d4bba9bcf815555625962bc7fa7721cb98368aeacc16d9c8f7f0938b7d655c728eb99b2d353abf03836893d98556259c3137f37ca71ba9c41385501f0a2deff4f54ee55909e9526e91d9924f3c771a52ae7d255625a21ca7f2fc109324a9702a6c6d9ee4cb191009203224963472d729f754fd607ea2f8fd055625a7ef17ff13a4de10a82cea8926787ad7534bdd0eeb85aaf1d4813cb0c9cf7e399b7ef0b55625ada947f6a1b1ef94f6deb640ab38caedbf44252d256d60e00dbeb774c18a4a570e050fc55625b34bf7f964a5c9eebcc463fb4827eeb6f33bfda3a89a93c9d922181be64d4f80a673ec355625b8d807fb93c443712bfe14e7a639981e333273aa262f031202de6955780cac88aee600155625be4df7fc428ee1ad537b92c49dfe1388414ba8cd624f9af6ebb2d8439967137c4233dc355625c3aea7fdd419dcc043200f77522d748491f1f04f6bdda32a5fda8d28678886df377044555625c8fa97fbaceffac4e34c2289017f2773986e04c489fa35b70c7c7ee2509287f03966bed55625ce3267f75cd3e48f487533d49c11fc27f24cf11509f7ab04080cc7de0cb70ce2b78393355625d356c7fd79fe01970dc43a30ca321d992690ad3189bcf2197992acf4b0d065b68ad2ead55625d86837f96ac7b1c5d793d413ef4b647b77961144d1817b86f1b2d8f15cbc29b2d12d4e255625dd6737f4ed7ae8b08f7d3a9097eb993ed09f5e2e5946739421ed98c9d34aea1a7012e5b55625e25457f9866e7eef0c92f888b29f2bed58ab872a91939249d76586c0b7412b6b577479e55625e73007f80a7350c7d2df5004042312cc8b0f6c346a2cd21b8d9f9e294d7aae0920bbe7e55625ebfad7ff0cf60fcc66f88743afc957a1d0cca5c5e929f7bb40b4ce04e82a5c503e52a7d55625f0b527fcc60d74fbd2704e5361c57b683ba1ba65e4e24711c54643488026c59584e064d55625f55f77fb22200cd265e7cc38795780541c3362ab25fc16edd4ea14eb212c8bbbd2632ce55625f9fa27f4a3afd48646df2c1857c379c9e2269776cacba485d06e2afb71cb2e252cdc97855625fe85a7fc4f526ec8d4a13919f22680ec8dafa1b3ee2d08468970be5f58aa565c778c25c55626030247fa924b6066b8b33c4f6240e8c8e0dd952f0b7bcb63b23be271758189f6e002bf955626077087f6e44202972949cb9940cd9f7817acf0c41032753eea2fb81b6dcd0fd373731b7556260bd0a7f7dd4d8a2184dbfe2ecddcb9cbdea3c515662708a9373542a779f1c47c14e1eba55626102307f017972d08936ffb2c540be5b71cfc77d77c54edffb5eda8720f3756dff3d9e81556261467f7fff5cc1e3a6fb7e9faa08d225cdd564eed6d3c066f453d24f62b227f5b7a9867455626189fd7f23daade2992486e297dc206712cf2981a43df9a70de4d5f3b59dea984dc1135b556261ccae7f5f7f545aaa94cc2a7d8c758dba96fa2c03dbc5fafbcb4ad930aa5baf56c6bad45562620e987fd256b3b181bee6e9f14c874753169a5f40a457578ecf5173d63119a5742adc275562624fbf7fb97defbc60a4ff274678c7ce6ce101e6e1451a01a26ea17b59939e339964636d55626290277fd2cd80cbba167ee894c75ebf5b7a821fc361b1cf851145762fc4a9ebca94f076556262cfd57fb50dd248d20962e6b7df7e610e59f74ea83cd97489ca18a9bba55f9d5f37cb645562630ecd7fdf768ab10bd9bf6991efbce6ca12a3eab909711d259e530cf7c7661f662cdb235562634d127fc80a293336350c187265fb8af7854c989452782b0199c6d47d3bc095e85e14885562638aa97fc0fca7229f639ded0ddca153fb027330e2e05fa0eed49f4e48e5916a014ddb67556263c7967fb4ed5942878f36e4e3148f503219de86797908a1a67b09a048591aa21f1acabe55626403dc7f84ea7badd9e8d390707dc2872182ac68c8c7a984bb7d1aac16736628a499083e5562643f7f7f5de16b835935eb4be6c6f0702e7e3a97e730aa0eb58f22fdb243237a2a9cb7895562647a827f3b791581ded51ef80cbf27505e2ab45c20e1e3700a1612f68da3f04cb15cf4cf556264b4e87fc8759064cbd5c43b1c7cbc368eaf28bacd4bbcab7d723952e441445b0ae6d44f556264eeb57f2f1056e9acb2ae4285e832306dd2bca3bb319e36620c9bdd8000ed250da27dee55626527ec7f62cd1bde5c022a882ae3222564ad28da0c222a5b68e65bd0087ac7c33da5184555626560907f083fc81be30b6287dea23aa60f8ffaf268f507cdeac82ed9644e506b59c54ff055626598a37ffe4d1297c5434445a55041cf44037c0799556cc55064da684dc6eed1a5dccabf556265d0297ff49065e4ffe0fb2e39e3f2a8a413492bd47c486b0335e2240d2dd0eec6e2866055626607247f0866ec4738cdbf497c462a44c0aaf0487c47127a4cddef8fff5c842ec0d93f955562663d977f1bb2e115e3876ad5c8aaab5c92f44bb73687e05843787aa070fd74a36346258855626673857faaef4f4d920c99352d192889a8613287b33396c3d6a14178bd3f0455af509e25556266a8f07fe9e3d0af61c0577149d8fdf930c9e5cbb4ff7a5481b41229c7576f61f8f2ec08556266ddda7f54215f29c53dd87fcae21c6dce8ce0baed0bc21f3e588d19eb3e27bf1d23c03955626712477f8b685361ee213407f41a019b5dbc17edecc44c9f276819680a1bcb10c2f13bb855626746387f296f0c124a3686ba64939301952a747a86359bba5d3cdf3ec2be7188630414d455626779af7fb5e89b7bb0a10081480a5ea36295c6b7a6de9e5a856df0efd526ab9bdcac253a556267acaf7f8656b4096a1b343fe3a73c02d10f3af358e0b7491551324bd0a0f33a0214888d556267df3a7f0707c2a7ba6f1a609affd7a4afb61e14de63785ea05d1be873625b04619d8ac855626811527f9cdff9d35139dda0f4aebadca6e69412cc3ee6e201eb9341091a533042e6cf1f55626842fa7f25380967ed24aa9f05a15ad0a63865ddb0576045294ff10e42eb858e5f9c857a55626874327fb2406894bcde4101c440eab2991c2403202bcb4ca711351c8d334db5b68966fa556268a4fc7f69934b3c578097dd99f0cb0d2c04136fd8095c48557144cc40a978589e45b612556268d55c7f995dd2136839e505810de8baef08564621a4fa31c642ea16714d8c051234d3b155626905537f8522437d832dd0ec7aab1bcdc589436504e1bd4447bb37ad33d0a569e35b208055626934e17f299a41a9c8fccbdb0fa0d17ef1b1c6a16f016088dbcb119a5eab4713916c52b4556269640a7f77761301e80030fbc17986fe0bfb67a8db04a8b7dd6a6c4db3b804983d46fd4755626992cf7f6c226ac75e11abc801dfeb16cd701f9e9befe08807cb078c7c5a399c3a5db8f7556269c1317f2f040abd42d2c42b7ba32a39cfb89ba44f2634c1be16362cf471d733b8e0da88556269ef327f249732159f44acfbe56afa12b9d5b16f7f948f5c9510d808268a12883c1e900255626a1cd47f9da1718bc19255f1b8fadabdf74ed3e811d700266db3d5c6a9f939f2c671534655626a4a187f0392549383b646771d0aabc9b24dafd637e7112575719dafdfa35e94a08c1cba55626a76ff7ff795bd83513ae3e1a42b052700d005c6d8d089327198fc3f88e31a7907899f1055626aa38c7f5223396cf9abeb9b7dc4cfbacea4c512b02b65d83cdfbd6fd2dce335ed44bc525560809052626acfc07fd21de5f10f7da2cc11d7285aa1870cc63fc64f1607ff0e823e4786ac9df506e15561137c565b3390565b6116f68061138b6000396000f3fe608060405234801561001057600080fd5b50600436106100ea5760003560e01c806382afd23b1161008c578063c526656c11610066578063c526656c146102a6578063e3581b681461036b578063ee0144ab14610388578063f2fde38b146103a5576100ea565b806382afd23b146102485780638da5cb5b14610265578063916b9bef14610289576100ea565b80635440a691116100c85780635440a69114610166578063715018a6146101b057806373df1612146101ba5780637a32cf3814610216576100ea565b806301ff62ab146100ef57806326987b601461012f5780633d46b81914610149575b600080fd5b61011b6004803603604081101561010557600080fd5b50803590602001356001600160a01b03166103cb565b604080519115158252519081900360200190f35b6101376104e4565b60408051918252519081900360200190f35b6101376004803603602081101561015f57600080fd5b50356104ea565b610137600480360360c081101561017c57600080fd5b506001600160a01b0381358116916020810135821691604082013581169160608101359160808201359160a001351661059b565b6101b86107f7565b005b6101e6600480360360408110156101d057600080fd5b50803590602001356001600160a01b03166108ab565b6040805194151585526001600160a01b039093166020850152838301919091526060830152519081900360800190f35b6101b86004803603606081101561022c57600080fd5b508035906001600160a01b036020820135169060400135610aed565b61011b6004803603602081101561025e57600080fd5b5035610be4565b61026d610bfc565b604080516001600160a01b039092168252519081900360200190f35b6101b86004803603602081101561029f57600080fd5b5035610c0b565b6102d2600480360360408110156102bc57600080fd5b50803590602001356001600160a01b0316610c2e565b604051808060200180602001838103835285818151815260200191508051906020019060200280838360005b838110156103165781810151838201526020016102fe565b50505050905001838103825284818151815260200191508051906020019060200280838360005b8381101561035557818101518382015260200161033d565b5050505090500194505050505060405180910390f35b6101376004803603602081101561038157600080fd5b5035610ced565b61011b6004803603602081101561039e57600080fd5b5035610d9d565b6101b8600480360360208110156103bb57600080fd5b50356001600160a01b03166112e5565b60008281526005602090815260408083206006810154825163fa54416160e01b81523360048201529251919385936001600160a01b039092169263fa544161926024808201939291829003018186803b15801561042757600080fd5b505afa15801561043b573d6000803e3d6000fd5b505050506040513d602081101561045157600080fd5b505160048084015460408051633a02a42d60e01b81526001600160a01b038086169482019490945290519394506000939290911691633a02a42d91602480820192602092909190829003018186803b1580156104ac57600080fd5b505afa1580156104c0573d6000803e3d6000fd5b505050506040513d60208110156104d657600080fd5b505111925050505b92915050565b60015481565b600081806001541161053c576040805162461bcd60e51b8152602060048201526016602482015275125b99195e081b9bdd081a5b9cdd185b9d1a585d195960521b604482015290519081900360640190fd5b61054581610be4565b610587576040805162461bcd60e51b815260206004820152600e60248201526d496e64657820696e61637469766560901b604482015290519081900360640190fd5b505060009081526003602052604090205490565b60006105a56113ef565b6000546001600160a01b03908116911614610607576040805162461bcd60e51b815260206004820181905260248201527f4f776e61626c653a2063616c6c6572206973206e6f7420746865206f776e6572604482015290519081900360640190fd5b8660056000600154815260200190815260200160002060040160006101000a8154816001600160a01b0302191690836001600160a01b031602179055508560056000600154815260200190815260200160002060030160006101000a8154816001600160a01b0302191690836001600160a01b031602179055508160056000600154815260200190815260200160002060050160006101000a8154816001600160a01b0302191690836001600160a01b031602179055508460056000600154815260200190815260200160002060060160006101000a8154816001600160a01b0302191690836001600160a01b0316021790555060056000600154815260200190815260200160002060030160009054906101000a90046001600160a01b03166001600160a01b0316637fb963448585306040518463ffffffff1660e01b815260040180848152602001838152602001826001600160a01b031681526020019350505050602060405180830381600087803b15801561078557600080fd5b505af1158015610799573d6000803e3d6000fd5b505050506040513d60208110156107af57600080fd5b50516001805460009081526005602090815260408083206002908101959095558354835293905291909120805460ff1916821790558054808201909155979650505050505050565b6107ff6113ef565b6000546001600160a01b03908116911614610861576040805162461bcd60e51b815260206004820181905260248201527f4f776e61626c653a2063616c6c6572206973206e6f7420746865206f776e6572604482015290519081900360640190fd5b600080546040516001600160a01b03909116907f8be0079c531659141344cd1fd0a4f28419497f9722a3daafe3b4186f6b6457e0908390a3600080546001600160a01b0319169055565b60008281526005602090815260408083206006810154825163fa54416160e01b815233600482015292518594859485949385936001600160a01b039091169263fa5441619260248082019391829003018186803b15801561090b57600080fd5b505afa15801561091f573d6000803e3d6000fd5b505050506040513d602081101561093557600080fd5b50516003830154600284015460048086015460408051633a02a42d60e01b81526001600160a01b0380881694820194909452905195965093821694632b52322c94879390921691633a02a42d916024808301926020929190829003018186803b1580156109a157600080fd5b505afa1580156109b5573d6000803e3d6000fd5b505050506040513d60208110156109cb57600080fd5b5051604080516001600160e01b031960e087901b16815260048101949094526001600160a01b0390921660248401526044830152516064808301926020929190829003018186803b158015610a1f57600080fd5b505afa158015610a33573d6000803e3d6000fd5b505050506040513d6020811015610a4957600080fd5b5051600583015460408051634033843360e01b8152905184926001600160a01b0316916340338433916004808301926020929190829003018186803b158015610a9157600080fd5b505afa158015610aa5573d6000803e3d6000fd5b505050506040513d6020811015610abb57600080fd5b50516001600160a01b039390931660009081526001949094016020526040909320549099929850909650945092505050565b6000838152600560205260409020612710821115610b52576040805162461bcd60e51b815260206004820152601e60248201527f73706c69742068617320746f206265206c657373207468616e20313030250000604482015290519081900360640190fd5b33600090815260208290526040902080546001600160a01b0319166001600160a01b038516179055610b86612710836113f3565b33600081815260018401602090815260409182902093909355805185815290516001600160a01b0387169388927fa5b08588c71d0e642d3278b37062c16e87cffd2a616056a2cbd3ec5da2eba6f7929081900390910190a450505050565b60008181526002602052604090205460ff165b919050565b6000546001600160a01b031690565b6000908152600260209081526040808320805460ff191690556003909152812055565b600082815260056020526040908190208151600180825281840190935260609283929183918291908160200160208202803683375050604080516001808252818301909252929450905060208083019080368337505050600384015483519192506001600160a01b0316908390600090610ca457fe5b60200260200101906001600160a01b031690816001600160a01b031681525050826002015481600081518110610cd657fe5b602090810291909101015290969095509350505050565b6000808211610d3b576040805162461bcd60e51b81526020600482015260156024820152744e756d6265722063616e6e6f74206265207a65726f60581b604482015290519081900360640190fd5b60008260011415610d50576000915050610bf7565b5b600083815260046020526040902054610d7057600192831c9201610d51565b600083815260046020526040902054610d9690610d9083620f4240611435565b9061148e565b9392505050565b6000818152600560209081526040808320600681015482516332f256cf60e11b8152336004820152306024820152925191936001600160a01b03909116926365e4ad9e9260448083019392829003018186803b158015610dfc57600080fd5b505afa158015610e10573d6000803e3d6000fd5b505050506040513d6020811015610e2657600080fd5b5051610e635760405162461bcd60e51b815260040180806020018281038252602e815260200180611693602e913960400191505060405180910390fd5b60068101546040805163fa54416160e01b815233600482015290516000926001600160a01b03169163fa544161916024808301926020929190829003018186803b158015610eb057600080fd5b505afa158015610ec4573d6000803e3d6000fd5b505050506040513d6020811015610eda57600080fd5b50516001600160a01b0380821660009081526020858152604080832054600188019092528220549394509091169190610f15612710836113f3565b6003860154600287015460048089015460408051633a02a42d60e01b81526001600160a01b038b811694820194909452905195965093821694637fdd4b85948a9390921691633a02a42d916024808301926020929190829003018186803b158015610f7f57600080fd5b505afa158015610f93573d6000803e3d6000fd5b505050506040513d6020811015610fa957600080fd5b5051604080516001600160e01b031960e087901b16815260048101949094526001600160a01b03909216602484015260448301525160648083019260209291908290030181600087803b158015610fff57600080fd5b505af1158015611013573d6000803e3d6000fd5b505050506040513d602081101561102957600080fd5b50516110665760405162461bcd60e51b815260040180806020018281038252602581526020018061164d6025913960400191505060405180910390fd5b600585015460408051634033843360e01b815290516000926001600160a01b0316916340338433916004808301926020929190829003018186803b1580156110ad57600080fd5b505afa1580156110c1573d6000803e3d6000fd5b505050506040513d60208110156110d757600080fd5b505190506001600160a01b03841615806110f2575061271083145b1561116b57600586015460408051634e958d0560e01b81526001600160a01b0388811660048301526024820185905291519190921691634e958d0591604480830192600092919082900301818387803b15801561114e57600080fd5b505af1158015611162573d6000803e3d6000fd5b505050506112d7565b6127108214156111cc57600586015460408051634e958d0560e01b81526001600160a01b0387811660048301526024820185905291519190921691634e958d0591604480830192600092919082900301818387803b15801561114e57600080fd5b60006111e46127106111de8486611435565b906114e8565b905060006111f4612710836113f3565b600589015460408051634e958d0560e01b81526001600160a01b038a81166004830152602482018790529151939450911691634e958d059160448082019260009290919082900301818387803b15801561124d57600080fd5b505af1158015611261573d6000803e3d6000fd5b50505050600588015460408051634e958d0560e01b81526001600160a01b038a811660048301526024820185905291519190921691634e958d0591604480830192600092919082900301818387803b1580156112bc57600080fd5b505af11580156112d0573d6000803e3d6000fd5b5050505050505b506001979650505050505050565b6112ed6113ef565b6000546001600160a01b0390811691161461134f576040805162461bcd60e51b815260206004820181905260248201527f4f776e61626c653a2063616c6c6572206973206e6f7420746865206f776e6572604482015290519081900360640190fd5b6001600160a01b0381166113945760405162461bcd60e51b81526004018080602001828103825260268152602001806116276026913960400191505060405180910390fd5b600080546040516001600160a01b03808516939216917f8be0079c531659141344cd1fd0a4f28419497f9722a3daafe3b4186f6b6457e091a3600080546001600160a01b0319166001600160a01b0392909216919091179055565b3390565b6000610d9683836040518060400160405280601e81526020017f536166654d6174683a207375627472616374696f6e206f766572666c6f77000081525061152a565b600082611444575060006104de565b8282028284828161145157fe5b0414610d965760405162461bcd60e51b81526004018080602001828103825260218152602001806116726021913960400191505060405180910390fd5b600082820183811015610d96576040805162461bcd60e51b815260206004820152601b60248201527f536166654d6174683a206164646974696f6e206f766572666c6f770000000000604482015290519081900360640190fd5b6000610d9683836040518060400160405280601a81526020017f536166654d6174683a206469766973696f6e206279207a65726f0000000000008152506115c1565b600081848411156115b95760405162461bcd60e51b81526004018080602001828103825283818151815260200191508051906020019080838360005b8381101561157e578181015183820152602001611566565b50505050905090810190601f1680156115ab5780820380516001836020036101000a031916815260200191505b509250505060405180910390fd5b505050900390565b600081836116105760405162461bcd60e51b815260206004820181815283516024840152835190928392604490910191908501908083836000831561157e578181015183820152602001611566565b50600083858161161c57fe5b049594505050505056fe4f776e61626c653a206e6577206f776e657220697320746865207a65726f20616464726573735573657220636f756c646e7420636c61696d20726f756e64207375636365737366756c6c79536166654d6174683a206d756c7469706c69636174696f6e206f766572666c6f776d73672e73656e646572206973206e6f7420617574686f72697a656420746f206d616b6520746869732063616c6ca264697066735822122088464ea589a2b94fbd2831af92e2f750d7fb29252adee6a835626477c23f50d264736f6c63430007010033",
  "devdoc": {
    "kind": "dev",
    "methods": {
      "claimWin(uint256)": {
        "details": "this function can only be called by a worker, user never calls it directly",
        "params": {
          "_index": "the index of the instance of pos you want to interact with"
        }
      },
      "getState(uint256,address)": {
        "params": {
          "_index": "index of instance"
        },
        "returns": {
          "_0": "bool if user is eligible to produce next block",
          "_1": "address of user that was chosen to build the block",
          "_2": "current prize paid by the network for that block",
          "_3": "percentage of prize that goes to the user"
        }
      },
      "instantiate(address,address,address,uint256,uint256,address)": {
        "params": {
          "_desiredDrawTimeInterval": "how often we want to elect a winner",
          "_difficultyAdjustmentParameter": "how quickly the difficulty gets updated according to the difference between time passed and desired draw time interval.",
          "_lotteryAddress": "address of lottery contract",
          "_prizeManagerAddress": "address containing the tokens that will be distributed",
          "_stakingAddress": "address of StakingInterface",
          "_workerAuthAddress": "address of worker manager contract"
        }
      },
      "log2ApproxTimes1M(uint256)": {
        "params": {
          "_num": "number to take log2 * 1M of"
        }
      },
      "owner()": {
        "details": "Returns the address of the current owner."
      },
      "renounceOwnership()": {
        "details": "Leaves the contract without owner. It will not be possible to call `onlyOwner` functions anymore. Can only be called by the current owner. NOTE: Renouncing ownership will leave the contract without an owner, thereby removing any functionality that is only available to the owner."
      },
      "transferOwnership(address)": {
        "details": "Transfers ownership of the contract to a new account (`newOwner`). Can only be called by the current owner."
      }
    },
    "version": 1
  },
  "userdoc": {
    "kind": "user",
    "methods": {
      "claimWin(uint256)": {
        "notice": "Claim that _user won the round"
      },
      "getState(uint256,address)": {
        "notice": "Get state of a particular instance"
      },
      "instantiate(address,address,address,uint256,uint256,address)": {
        "notice": "Instantiates a Proof of Stake"
      },
      "log2ApproxTimes1M(uint256)": {
        "notice": "Approximates log2 * 1M"
      }
    },
    "version": 1
  },
  "storageLayout": {
    "storage": [
      {
        "astId": 1125,
        "contract": "contracts/PoS.sol:PoS",
        "label": "_owner",
        "offset": 0,
        "slot": "0",
        "type": "t_address"
      },
      {
        "astId": 934,
        "contract": "contracts/PoS.sol:PoS",
        "label": "currentIndex",
        "offset": 0,
        "slot": "1",
        "type": "t_uint256"
      },
      {
        "astId": 938,
        "contract": "contracts/PoS.sol:PoS",
        "label": "active",
        "offset": 0,
        "slot": "2",
        "type": "t_mapping(t_uint256,t_bool)"
      },
      {
        "astId": 942,
        "contract": "contracts/PoS.sol:PoS",
        "label": "nonce",
        "offset": 0,
        "slot": "3",
        "type": "t_mapping(t_uint256,t_uint256)"
      },
      {
        "astId": 9,
        "contract": "contracts/PoS.sol:PoS",
        "label": "log2tableTimes1M",
        "offset": 0,
        "slot": "4",
        "type": "t_mapping(t_uint256,t_uint256)"
      },
      {
        "astId": 2095,
        "contract": "contracts/PoS.sol:PoS",
        "label": "instance",
        "offset": 0,
        "slot": "5",
        "type": "t_mapping(t_uint256,t_struct(PoSCtx)2091_storage)"
      }
    ],
    "types": {
      "t_address": {
        "encoding": "inplace",
        "label": "address",
        "numberOfBytes": "20"
      },
      "t_bool": {
        "encoding": "inplace",
        "label": "bool",
        "numberOfBytes": "1"
      },
      "t_contract(Lottery)2047": {
        "encoding": "inplace",
        "label": "contract Lottery",
        "numberOfBytes": "20"
      },
      "t_contract(PrizeManager)2698": {
        "encoding": "inplace",
        "label": "contract PrizeManager",
        "numberOfBytes": "20"
      },
      "t_contract(Staking)2784": {
        "encoding": "inplace",
        "label": "contract Staking",
        "numberOfBytes": "20"
      },
      "t_contract(WorkerAuthManager)1094": {
        "encoding": "inplace",
        "label": "contract WorkerAuthManager",
        "numberOfBytes": "20"
      },
      "t_mapping(t_address,t_address)": {
        "encoding": "mapping",
        "key": "t_address",
        "label": "mapping(address => address)",
        "numberOfBytes": "32",
        "value": "t_address"
      },
      "t_mapping(t_address,t_uint256)": {
        "encoding": "mapping",
        "key": "t_address",
        "label": "mapping(address => uint256)",
        "numberOfBytes": "32",
        "value": "t_uint256"
      },
      "t_mapping(t_uint256,t_bool)": {
        "encoding": "mapping",
        "key": "t_uint256",
        "label": "mapping(uint256 => bool)",
        "numberOfBytes": "32",
        "value": "t_bool"
      },
      "t_mapping(t_uint256,t_struct(PoSCtx)2091_storage)": {
        "encoding": "mapping",
        "key": "t_uint256",
        "label": "mapping(uint256 => struct PoS.PoSCtx)",
        "numberOfBytes": "32",
        "value": "t_struct(PoSCtx)2091_storage"
      },
      "t_mapping(t_uint256,t_uint256)": {
        "encoding": "mapping",
        "key": "t_uint256",
        "label": "mapping(uint256 => uint256)",
        "numberOfBytes": "32",
        "value": "t_uint256"
      },
      "t_struct(PoSCtx)2091_storage": {
        "encoding": "inplace",
        "label": "struct PoS.PoSCtx",
        "members": [
          {
            "astId": 2076,
            "contract": "contracts/PoS.sol:PoS",
            "label": "beneficiaryMap",
            "offset": 0,
            "slot": "0",
            "type": "t_mapping(t_address,t_address)"
          },
          {
            "astId": 2080,
            "contract": "contracts/PoS.sol:PoS",
            "label": "splitMap",
            "offset": 0,
            "slot": "1",
            "type": "t_mapping(t_address,t_uint256)"
          },
          {
            "astId": 2082,
            "contract": "contracts/PoS.sol:PoS",
            "label": "lotteryIndex",
            "offset": 0,
            "slot": "2",
            "type": "t_uint256"
          },
          {
            "astId": 2084,
            "contract": "contracts/PoS.sol:PoS",
            "label": "lottery",
            "offset": 0,
            "slot": "3",
            "type": "t_contract(Lottery)2047"
          },
          {
            "astId": 2086,
            "contract": "contracts/PoS.sol:PoS",
            "label": "staking",
            "offset": 0,
            "slot": "4",
            "type": "t_contract(Staking)2784"
          },
          {
            "astId": 2088,
            "contract": "contracts/PoS.sol:PoS",
            "label": "prizeManager",
            "offset": 0,
            "slot": "5",
            "type": "t_contract(PrizeManager)2698"
          },
          {
            "astId": 2090,
            "contract": "contracts/PoS.sol:PoS",
            "label": "workerAuth",
            "offset": 0,
            "slot": "6",
            "type": "t_contract(WorkerAuthManager)1094"
          }
        ],
        "numberOfBytes": "224"
      },
      "t_uint256": {
        "encoding": "inplace",
        "label": "uint256",
        "numberOfBytes": "32"
      }
    }
  },
  "gasEstimates": {
    "creation": {
      "codeDepositCost": "1175600",
      "executionCost": "2574454",
      "totalCost": "3750054"
    },
    "external": {
      "addBeneficiary(uint256,address,uint256)": "infinite",
      "claimWin(uint256)": "infinite",
      "currentIndex()": "1044",
      "deactivate(uint256)": "26203",
      "getNonce(uint256)": "2932",
      "getState(uint256,address)": "infinite",
      "getSubInstances(uint256,address)": "infinite",
      "instantiate(address,address,address,uint256,uint256,address)": "infinite",
      "isActive(uint256)": "1147",
      "isConcerned(uint256,address)": "infinite",
      "log2ApproxTimes1M(uint256)": "infinite",
      "owner()": "1082",
      "renounceOwnership()": "24249",
      "transferOwnership(address)": "infinite"
    }
  }
}