{
  "address": "0x6afbB2cdd255Ea130a0B0cF52408610AA3438123",
  "abi": [
    {
      "anonymous": false,
      "inputs": [
        {
          "indexed": true,
          "internalType": "uint256",
          "name": "index",
          "type": "uint256"
        },
        {
          "indexed": true,
          "internalType": "address",
          "name": "user",
          "type": "address"
        },
        {
          "indexed": true,
          "internalType": "address",
          "name": "beneficiary",
          "type": "address"
        },
        {
          "indexed": false,
          "internalType": "uint256",
          "name": "split",
          "type": "uint256"
        }
      ],
      "name": "BeneficiaryAdded",
      "type": "event"
    },
    {
      "anonymous": false,
      "inputs": [
        {
          "indexed": true,
          "internalType": "address",
          "name": "previousOwner",
          "type": "address"
        },
        {
          "indexed": true,
          "internalType": "address",
          "name": "newOwner",
          "type": "address"
        }
      ],
      "name": "OwnershipTransferred",
      "type": "event"
    },
    {
      "anonymous": false,
      "inputs": [
        {
          "indexed": true,
          "internalType": "uint256",
          "name": "index",
          "type": "uint256"
        },
        {
          "indexed": true,
          "internalType": "address",
          "name": "worker",
          "type": "address"
        },
        {
          "indexed": true,
          "internalType": "address",
          "name": "user",
          "type": "address"
        },
        {
          "indexed": false,
          "internalType": "address",
          "name": "beneficiary",
          "type": "address"
        },
        {
          "indexed": false,
          "internalType": "uint256",
          "name": "userReward",
          "type": "uint256"
        },
        {
          "indexed": false,
          "internalType": "uint256",
          "name": "beneficiaryReward",
          "type": "uint256"
        }
      ],
      "name": "Rewarded",
      "type": "event"
    },
    {
      "inputs": [
        {
          "internalType": "uint256",
          "name": "_index",
          "type": "uint256"
        },
        {
          "internalType": "address",
          "name": "_beneficiary",
          "type": "address"
        },
        {
          "internalType": "uint256",
          "name": "_split",
          "type": "uint256"
        }
      ],
      "name": "addBeneficiary",
      "outputs": [],
      "stateMutability": "nonpayable",
      "type": "function"
    },
    {
      "inputs": [],
      "name": "currentIndex",
      "outputs": [
        {
          "internalType": "uint256",
          "name": "",
          "type": "uint256"
        }
      ],
      "stateMutability": "view",
      "type": "function"
    },
    {
      "inputs": [
        {
          "internalType": "uint256",
          "name": "_index",
          "type": "uint256"
        }
      ],
      "name": "getBlockSelectorAddress",
      "outputs": [
        {
          "internalType": "address",
          "name": "",
          "type": "address"
        }
      ],
      "stateMutability": "view",
      "type": "function"
    },
    {
      "inputs": [
        {
          "internalType": "uint256",
          "name": "_index",
          "type": "uint256"
        }
      ],
      "name": "getBlockSelectorIndex",
      "outputs": [
        {
          "internalType": "uint256",
          "name": "",
          "type": "uint256"
        }
      ],
      "stateMutability": "view",
      "type": "function"
    },
    {
      "inputs": [
        {
          "internalType": "uint256",
          "name": "_index",
          "type": "uint256"
        }
      ],
      "name": "getNonce",
      "outputs": [
        {
          "internalType": "uint256",
          "name": "currentNonce",
          "type": "uint256"
        }
      ],
      "stateMutability": "view",
      "type": "function"
    },
    {
      "inputs": [
        {
          "internalType": "uint256",
          "name": "_index",
          "type": "uint256"
        }
      ],
      "name": "getRewardManagerAddress",
      "outputs": [
        {
          "internalType": "address",
          "name": "",
          "type": "address"
        }
      ],
      "stateMutability": "view",
      "type": "function"
    },
    {
      "inputs": [
        {
          "internalType": "uint256",
          "name": "_index",
          "type": "uint256"
        }
      ],
      "name": "getStakingAddress",
      "outputs": [
        {
          "internalType": "address",
          "name": "",
          "type": "address"
        }
      ],
      "stateMutability": "view",
      "type": "function"
    },
    {
      "inputs": [
        {
          "internalType": "uint256",
          "name": "_index",
          "type": "uint256"
        },
        {
          "internalType": "address",
          "name": "_user",
          "type": "address"
        }
      ],
      "name": "getState",
      "outputs": [
        {
          "internalType": "bool",
          "name": "",
          "type": "bool"
        },
        {
          "internalType": "address",
          "name": "",
          "type": "address"
        },
        {
          "internalType": "uint256",
          "name": "",
          "type": "uint256"
        },
        {
          "internalType": "uint256",
          "name": "",
          "type": "uint256"
        }
      ],
      "stateMutability": "view",
      "type": "function"
    },
    {
      "inputs": [
        {
          "internalType": "uint256",
          "name": "_index",
          "type": "uint256"
        },
        {
          "internalType": "address",
          "name": "",
          "type": "address"
        }
      ],
      "name": "getSubInstances",
      "outputs": [
        {
          "internalType": "address[]",
          "name": "_addresses",
          "type": "address[]"
        },
        {
          "internalType": "uint256[]",
          "name": "_indices",
          "type": "uint256[]"
        }
      ],
      "stateMutability": "view",
      "type": "function"
    },
    {
      "inputs": [
        {
          "internalType": "address",
          "name": "_stakingAddress",
          "type": "address"
        },
        {
          "internalType": "address",
          "name": "_blockSelectorAddress",
          "type": "address"
        },
        {
          "internalType": "address",
          "name": "_workerAuthAddress",
          "type": "address"
        },
        {
          "internalType": "uint256",
          "name": "_minimumDifficulty",
          "type": "uint256"
        },
        {
          "internalType": "uint256",
          "name": "_initialDifficulty",
          "type": "uint256"
        },
        {
          "internalType": "uint256",
          "name": "_difficultyAdjustmentParameter",
          "type": "uint256"
        },
        {
          "internalType": "uint256",
          "name": "_targetInterval",
          "type": "uint256"
        },
        {
          "internalType": "address",
          "name": "_ctsiAddress",
          "type": "address"
        },
        {
          "internalType": "uint256",
          "name": "_maxReward",
          "type": "uint256"
        },
        {
          "internalType": "uint256",
          "name": "_minReward",
          "type": "uint256"
        },
        {
          "internalType": "uint256",
          "name": "_distNumerator",
          "type": "uint256"
        },
        {
          "internalType": "uint256",
          "name": "_distDenominator",
          "type": "uint256"
        }
      ],
      "name": "instantiate",
      "outputs": [
        {
          "internalType": "uint256",
          "name": "",
          "type": "uint256"
        }
      ],
      "stateMutability": "nonpayable",
      "type": "function"
    },
    {
      "inputs": [
        {
          "internalType": "uint256",
          "name": "_index",
          "type": "uint256"
        }
      ],
      "name": "isActive",
      "outputs": [
        {
          "internalType": "bool",
          "name": "",
          "type": "bool"
        }
      ],
      "stateMutability": "view",
      "type": "function"
    },
    {
      "inputs": [
        {
          "internalType": "uint256",
          "name": "_index",
          "type": "uint256"
        },
        {
          "internalType": "address",
          "name": "_user",
          "type": "address"
        }
      ],
      "name": "isConcerned",
      "outputs": [
        {
          "internalType": "bool",
          "name": "",
          "type": "bool"
        }
      ],
      "stateMutability": "view",
      "type": "function"
    },
    {
      "inputs": [],
      "name": "owner",
      "outputs": [
        {
          "internalType": "address",
          "name": "",
          "type": "address"
        }
      ],
      "stateMutability": "view",
      "type": "function"
    },
    {
      "inputs": [
        {
          "internalType": "uint256",
          "name": "_index",
          "type": "uint256"
        }
      ],
      "name": "produceBlock",
      "outputs": [
        {
          "internalType": "bool",
          "name": "",
          "type": "bool"
        }
      ],
      "stateMutability": "nonpayable",
      "type": "function"
    },
    {
      "inputs": [],
      "name": "renounceOwnership",
      "outputs": [],
      "stateMutability": "nonpayable",
      "type": "function"
    },
    {
      "inputs": [
        {
          "internalType": "uint256",
          "name": "_index",
          "type": "uint256"
        }
      ],
      "name": "terminate",
      "outputs": [],
      "stateMutability": "nonpayable",
      "type": "function"
    },
    {
      "inputs": [
        {
          "internalType": "address",
          "name": "newOwner",
          "type": "address"
        }
      ],
      "name": "transferOwnership",
      "outputs": [],
      "stateMutability": "nonpayable",
      "type": "function"
    }
  ],
  "transactionHash": "0xb3e4e74d1481d2b266ed9d3172cf53780799faf9fc61c2f2501dd1552b35a00a",
  "args": [],
  "solcInputHash": "4e351c7f77e17eff23320b263795eb87",
  "bytecode": "0x6080604052600060015534801561001557600080fd5b50600061002061006f565b600080546001600160a01b0319166001600160a01b0383169081178255604051929350917f8be0079c531659141344cd1fd0a4f28419497f9722a3daafe3b4186f6b6457e0908290a350610073565b3390565b611db5806100826000396000f3fe608060405234801561001057600080fd5b506004361061010b5760003560e01c806382afd23b116100a2578063a5a6cd0b11610071578063a5a6cd0b146102d4578063b31266b0146102f1578063c526656c14610366578063f2fde38b1461042b578063f8fe50da146104515761010b565b806382afd23b1461027557806385425f4f146102925780638da5cb5b146102af578063902c0f06146102b75761010b565b8063715018a6116100de578063715018a6146101c057806373df1612146101ca5780637a32cf38146102265780637a828b28146102585761010b565b806301ff62ab1461011057806326987b60146101505780633d46b8191461016a5780635c6b678214610187575b600080fd5b61013c6004803603604081101561012657600080fd5b50803590602001356001600160a01b031661046e565b604080519115158252519081900360200190f35b610158610502565b60408051918252519081900360200190f35b6101586004803603602081101561018057600080fd5b5035610508565b6101a46004803603602081101561019d57600080fd5b50356105b9565b604080516001600160a01b039092168252519081900360200190f35b6101c86105d8565b005b6101f6600480360360408110156101e057600080fd5b50803590602001356001600160a01b031661067a565b6040805194151585526001600160a01b039093166020850152838301919091526060830152519081900360800190f35b6101c86004803603606081101561023c57600080fd5b508035906001600160a01b03602082013516906040013561083b565b6101c86004803603602081101561026e57600080fd5b5035610932565b61013c6004803603602081101561028b57600080fd5b5035610a6b565b6101a4600480360360208110156102a857600080fd5b5035610a80565b6101a4610a9e565b6101a4600480360360208110156102cd57600080fd5b5035610aad565b61013c600480360360208110156102ea57600080fd5b5035610acb565b610158600480360361018081101561030857600080fd5b506001600160a01b0381358116916020810135821691604082013581169160608101359160808201359160a08101359160c08201359160e0810135909116906101008101359061012081013590610140810135906101600135611126565b6103926004803603604081101561037c57600080fd5b50803590602001356001600160a01b0316611425565b604051808060200180602001838103835285818151815260200191508051906020019060200280838360005b838110156103d65781810151838201526020016103be565b50505050905001838103825284818151815260200191508051906020019060200280838360005b838110156104155781810151838201526020016103fd565b5050505090500194505050505060405180910390f35b6101c86004803603602081101561044157600080fd5b50356001600160a01b03166114e4565b6101586004803603602081101561046757600080fd5b50356115dc565b6000828152600460208181526040808420808401548251633a02a42d60e01b81526001600160a01b0388811696820196909652925191948694911692633a02a42d9260248083019392829003018186803b1580156104cb57600080fd5b505afa1580156104df573d6000803e3d6000fd5b505050506040513d60208110156104f557600080fd5b5051119150505b92915050565b60015481565b600081806001541161055a576040805162461bcd60e51b8152602060048201526016602482015275125b99195e081b9bdd081a5b9cdd185b9d1a585d195960521b604482015290519081900360640190fd5b61056381610a6b565b6105a5576040805162461bcd60e51b815260206004820152600e60248201526d496e64657820696e61637469766560901b604482015290519081900360640190fd5b505060009081526003602052604090205490565b600090815260046020819052604090912001546001600160a01b031690565b6105e06115f1565b6000546001600160a01b03908116911614610630576040805162461bcd60e51b81526020600482018190526024820152600080516020611d09833981519152604482015290519081900360640190fd5b600080546040516001600160a01b03909116907f8be0079c531659141344cd1fd0a4f28419497f9722a3daafe3b4186f6b6457e0908390a3600080546001600160a01b0319169055565b600082815260046020818152604080842060038101546002820154828601548451633a02a42d60e01b81526001600160a01b038a8116988201989098529451889788978897958216956359dc826c95948d94931692633a02a42d92602480840193919291829003018186803b1580156106f257600080fd5b505afa158015610706573d6000803e3d6000fd5b505050506040513d602081101561071c57600080fd5b5051604080516001600160e01b031960e087901b16815260048101949094526001600160a01b0390921660248401526044830152516064808301926020929190829003018186803b15801561077057600080fd5b505afa158015610784573d6000803e3d6000fd5b505050506040513d602081101561079a57600080fd5b505160058201546040805163457642a160e11b8152905189926001600160a01b031691638aec8542916004808301926020929190829003018186803b1580156107e257600080fd5b505afa1580156107f6573d6000803e3d6000fd5b505050506040513d602081101561080c57600080fd5b50516001600160a01b039890981660009081526001939093016020526040909220549098919750945092505050565b60008381526004602052604090206127108211156108a0576040805162461bcd60e51b815260206004820152601e60248201527f73706c69742068617320746f206265206c657373207468616e20313030250000604482015290519081900360640190fd5b33600090815260208290526040902080546001600160a01b0319166001600160a01b0385161790556108d4612710836115f5565b33600081815260018401602090815260409182902093909355805185815290516001600160a01b0387169388927fa5b08588c71d0e642d3278b37062c16e87cffd2a616056a2cbd3ec5da2eba6f7929081900390910190a450505050565b61093a6115f1565b6000546001600160a01b0390811691161461098a576040805162461bcd60e51b81526020600482018190526024820152600080516020611d09833981519152604482015290519081900360640190fd5b6000818152600460208181526040928390206005810154845163457642a160e11b8152945191946001600160a01b0390911693638aec854293828201939092909190829003018186803b1580156109e057600080fd5b505afa1580156109f4573d6000803e3d6000fd5b505050506040513d6020811015610a0a57600080fd5b505115610a5e576040805162461bcd60e51b815260206004820152601f60248201527f5265776172644d616e61676572207374696c6c20686f6c64732066756e647300604482015290519081900360640190fd5b610a678261163e565b5050565b60009081526002602052604090205460ff1690565b6000908152600460205260409020600501546001600160a01b031690565b6000546001600160a01b031690565b6000908152600460205260409020600301546001600160a01b031690565b6000818152600460208181526040808420600681015482516332f256cf60e11b81523395810195909552306024860152915190936001600160a01b03909216926365e4ad9e9260448082019391829003018186803b158015610b2c57600080fd5b505afa158015610b40573d6000803e3d6000fd5b505050506040513d6020811015610b5657600080fd5b5051610b935760405162461bcd60e51b815260040180806020018281038252602e815260200180611d29602e913960400191505060405180910390fd5b60068101546040805163fa54416160e01b815233600482015290516000926001600160a01b03169163fa544161916024808301926020929190829003018186803b158015610be057600080fd5b505afa158015610bf4573d6000803e3d6000fd5b505050506040513d6020811015610c0a57600080fd5b50516001600160a01b0380821660009081526020858152604080832054600188019092528220549394509091169190610c45612710836115f5565b6003860154600287015460048089015460408051633a02a42d60e01b81526001600160a01b038b811694820194909452905195965093821694635378014f948a9390921691633a02a42d916024808301926020929190829003018186803b158015610caf57600080fd5b505afa158015610cc3573d6000803e3d6000fd5b505050506040513d6020811015610cd957600080fd5b5051604080516001600160e01b031960e087901b16815260048101949094526001600160a01b03909216602484015260448301525160648083019260209291908290030181600087803b158015610d2f57600080fd5b505af1158015610d43573d6000803e3d6000fd5b505050506040513d6020811015610d5957600080fd5b5051610d965760405162461bcd60e51b8152600401808060200182810382526029815260200180611d576029913960400191505060405180910390fd5b60058501546040805163457642a160e11b815290516000926001600160a01b031691638aec8542916004808301926020929190829003018186803b158015610ddd57600080fd5b505afa158015610df1573d6000803e3d6000fd5b505050506040513d6020811015610e0757600080fd5b505190506001600160a01b0384161580610e22575061271083145b15610eed576005860154604080516310b3879160e11b81526001600160a01b03888116600483015260248201859052915191909216916321670f2291604480830192600092919082900301818387803b158015610e7e57600080fd5b505af1158015610e92573d6000803e3d6000fd5b5050604080516001600160a01b03888116825260208201869052600082840152915191891693503392508b917f9be4572c785840a37a06ca21b0ca3e30eb45de65547561091bf6f0eede483b909181900360600190a4611118565b612710821415610fbd576005860154604080516310b3879160e11b81526001600160a01b03878116600483015260248201859052915191909216916321670f2291604480830192600092919082900301818387803b158015610f4e57600080fd5b505af1158015610f62573d6000803e3d6000fd5b5050604080516001600160a01b03888116825260006020830152818301869052915191891693503392508b917f9be4572c785840a37a06ca21b0ca3e30eb45de65547561091bf6f0eede483b909181900360600190a4611118565b6000610fd5612710610fcf8486611661565b906116ba565b90506000610fe383836115f5565b6005890154604080516310b3879160e11b81526001600160a01b038a811660048301526024820187905291519394509116916321670f229160448082019260009290919082900301818387803b15801561103c57600080fd5b505af1158015611050573d6000803e3d6000fd5b505050506005880154604080516310b3879160e11b81526001600160a01b038a8116600483015260248201859052915191909216916321670f2291604480830192600092919082900301818387803b1580156110ab57600080fd5b505af11580156110bf573d6000803e3d6000fd5b5050604080516001600160a01b038a81168252602082018690528183018790529151918b1693503392508d917f9be4572c785840a37a06ca21b0ca3e30eb45de65547561091bf6f0eede483b909181900360600190a450505b506001979650505050505050565b60006111306115f1565b6000546001600160a01b03908116911614611180576040805162461bcd60e51b81526020600482018190526024820152600080516020611d09833981519152604482015290519081900360640190fd5b6001600081548092919060010191905055508c600460006001805403815260200190815260200160002060040160006101000a8154816001600160a01b0302191690836001600160a01b031602179055508b600460006001805403815260200190815260200160002060030160006101000a8154816001600160a01b0302191690836001600160a01b031602179055508a600460006001805403815260200190815260200160002060060160006101000a8154816001600160a01b0302191690836001600160a01b031602179055506001600260006001805403815260200190815260200160002060006101000a81548160ff021916908315150217905550308686868686604051611291906117f8565b80876001600160a01b03168152602001866001600160a01b031681526020018581526020018481526020018381526020018281526020019650505050505050604051809103906000f0801580156112ec573d6000803e3d6000fd5b50600460006001805403815260200190815260200160002060050160006101000a8154816001600160a01b0302191690836001600160a01b03160217905550600460006001805403815260200190815260200160002060030160009054906101000a90046001600160a01b03166001600160a01b031663f0d2a38c8b8b8b8b306040518663ffffffff1660e01b815260040180868152602001858152602001848152602001838152602001826001600160a01b0316815260200195505050505050602060405180830381600087803b1580156113c757600080fd5b505af11580156113db573d6000803e3d6000fd5b505050506040513d60208110156113f157600080fd5b50516001805460001990810160009081526004602052604090206002019290925554019d9c50505050505050505050505050565b600082815260046020526040908190208151600180825281840190935260609283929183918291908160200160208202803683375050604080516001808252818301909252929450905060208083019080368337505050600384015483519192506001600160a01b031690839060009061149b57fe5b60200260200101906001600160a01b031690816001600160a01b0316815250508260020154816000815181106114cd57fe5b602090810291909101015290969095509350505050565b6114ec6115f1565b6000546001600160a01b0390811691161461153c576040805162461bcd60e51b81526020600482018190526024820152600080516020611d09833981519152604482015290519081900360640190fd5b6001600160a01b0381166115815760405162461bcd60e51b8152600401808060200182810382526026815260200180611cc26026913960400191505060405180910390fd5b600080546040516001600160a01b03808516939216917f8be0079c531659141344cd1fd0a4f28419497f9722a3daafe3b4186f6b6457e091a3600080546001600160a01b0319166001600160a01b0392909216919091179055565b60009081526004602052604090206002015490565b3390565b600061163783836040518060400160405280601e81526020017f536166654d6174683a207375627472616374696f6e206f766572666c6f7700008152506116fc565b9392505050565b6000908152600260209081526040808320805460ff191690556003909152812055565b600082611670575060006104fc565b8282028284828161167d57fe5b04146116375760405162461bcd60e51b8152600401808060200182810382526021815260200180611ce86021913960400191505060405180910390fd5b600061163783836040518060400160405280601a81526020017f536166654d6174683a206469766973696f6e206279207a65726f000000000000815250611793565b6000818484111561178b5760405162461bcd60e51b81526004018080602001828103825283818151815260200191508051906020019080838360005b83811015611750578181015183820152602001611738565b50505050905090810190601f16801561177d5780820380516001836020036101000a031916815260200191505b509250505060405180910390fd5b505050900390565b600081836117e25760405162461bcd60e51b8152602060048201818152835160248401528351909283926044909101919085019080838360008315611750578181015183820152602001611738565b5060008385816117ee57fe5b0495945050505050565b6104bc806118068339019056fe608060405234801561001057600080fd5b506040516104bc3803806104bc833981810160405260c081101561003357600080fd5b508051602082015160408301516060840151608085015160a090950151600480546001600160a01b039687166001600160a01b031991821617909155600580549690951695169490941790925560009190915560015560029190915560035561041b806100a16000396000f3fe608060405234801561001057600080fd5b50600436106100415760003560e01c806312065fe01461004657806321670f22146100605780638aec85421461008e575b600080fd5b61004e610096565b60408051918252519081900360200190f35b61008c6004803603604081101561007657600080fd5b506001600160a01b038135169060200135610112565b005b61004e6101e1565b600554604080516370a0823160e01b815230600482015290516000926001600160a01b0316916370a08231916024808301926020929190829003018186803b1580156100e157600080fd5b505afa1580156100f5573d6000803e3d6000fd5b505050506040513d602081101561010b57600080fd5b5051905090565b6004546001600160a01b0316331461015b5760405162461bcd60e51b81526004018080602001828103825260318152602001806103946031913960400191505060405180910390fd5b6005546040805163a9059cbb60e01b81526001600160a01b038581166004830152602482018590529151919092169163a9059cbb9160448083019260209291908290030181600087803b1580156101b157600080fd5b505af11580156101c5573d6000803e3d6000fd5b505050506040513d60208110156101db57600080fd5b50505050565b6000806102046003546101fe6002546101f8610096565b90610252565b906102b4565b9050600054811161021757600054610219565b805b9050600154811161022a578061022e565b6001545b9050610238610096565b8111610244578061024c565b61024c610096565b91505090565b600082610261575060006102ae565b8282028284828161026e57fe5b04146102ab5760405162461bcd60e51b81526004018080602001828103825260218152602001806103c56021913960400191505060405180910390fd5b90505b92915050565b60006102ab83836040518060400160405280601a81526020017f536166654d6174683a206469766973696f6e206279207a65726f0000000000008152506000818361037d5760405162461bcd60e51b81526004018080602001828103825283818151815260200191508051906020019080838360005b8381101561034257818101518382015260200161032a565b50505050905090810190601f16801561036f5780820380516001836020036101000a031916815260200191505b509250505060405180910390fd5b50600083858161038957fe5b049594505050505056fe4f6e6c7920746865206f70657261746f7220636f6e74726163742063616e2063616c6c20746869732066756e6374696f6e536166654d6174683a206d756c7469706c69636174696f6e206f766572666c6f77a2646970667358221220773ca5f35ea4a5be7610919e02be78171a9f2a626d2a3cef292278cb9bd677d764736f6c634300070400334f776e61626c653a206e6577206f776e657220697320746865207a65726f2061646472657373536166654d6174683a206d756c7469706c69636174696f6e206f766572666c6f774f776e61626c653a2063616c6c6572206973206e6f7420746865206f776e65726d73672e73656e646572206973206e6f7420617574686f72697a656420746f206d616b6520746869732063616c6c5573657220636f756c646e742070726f64756365206120626c6f636b207375636365737366756c6c79a26469706673582212201ca329244ceb1a4a555bef708083cba8941f0d5fd82b1d920a43406c93766f8264736f6c63430007040033",
  "devdoc": {
    "kind": "dev",
    "methods": {
      "getBlockSelectorAddress(uint256)": {
        "params": {
          "_index": "index of instance"
        },
        "returns": {
          "_0": "address of instance's block selector"
        }
      },
      "getBlockSelectorIndex(uint256)": {
        "params": {
          "_index": "index of instance"
        },
        "returns": {
          "_0": "index of instance's block selector"
        }
      },
      "getRewardManagerAddress(uint256)": {
        "params": {
          "_index": "index of instance"
        },
        "returns": {
          "_0": "address of instance's RewardManager"
        }
      },
      "getStakingAddress(uint256)": {
        "params": {
          "_index": "index of instance"
        },
        "returns": {
          "_0": "address of instance's staking contract"
        }
      },
      "getState(uint256,address)": {
        "params": {
          "_index": "index of instance",
          "_user": "address of user"
        },
        "returns": {
          "_0": "bool if user is eligible to produce next block",
          "_1": "address of user that was chosen to build the block",
          "_2": "current reward paid by the network for that block",
          "_3": "percentage of reward that goes to the user"
        }
      },
      "instantiate(address,address,address,uint256,uint256,uint256,uint256,address,uint256,uint256,uint256,uint256)": {
        "params": {
          "_blockSelectorAddress": "address of blockSelector contract",
          "_ctsiAddress": "address of token instance being used",
          "_difficultyAdjustmentParameter": "how quickly the difficulty gets updated according to the difference between time passed and desired draw time interval.",
          "_distDenominator": "dividing factor to define reward amount",
          "_distNumerator": "multiplier factor to define reward amount",
          "_maxReward": "maximum reward that this contract pays",
          "_minReward": "minimum reward that this contract pays",
          "_stakingAddress": "address of StakingInterface",
          "_targetInterval": "how often we want to elect a block producer",
          "_workerAuthAddress": "address of worker manager contract"
        }
      },
      "owner()": {
        "details": "Returns the address of the current owner."
      },
      "produceBlock(uint256)": {
        "details": "this function can only be called by a worker, user never calls it directly",
        "params": {
          "_index": "the index of the instance of pos you want to interact with"
        }
      },
      "renounceOwnership()": {
        "details": "Leaves the contract without owner. It will not be possible to call `onlyOwner` functions anymore. Can only be called by the current owner. NOTE: Renouncing ownership will leave the contract without an owner, thereby removing any functionality that is only available to the owner."
      },
      "transferOwnership(address)": {
        "details": "Transfers ownership of the contract to a new account (`newOwner`). Can only be called by the current owner."
      }
    },
    "version": 1
  },
  "userdoc": {
    "kind": "user",
    "methods": {
      "getBlockSelectorAddress(uint256)": {
        "notice": "Get block selector address"
      },
      "getBlockSelectorIndex(uint256)": {
        "notice": "Get block selector index"
      },
      "getRewardManagerAddress(uint256)": {
        "notice": "Get reward manager address"
      },
      "getStakingAddress(uint256)": {
        "notice": "Get staking address"
      },
      "getState(uint256,address)": {
        "notice": "Get state of a particular instance"
      },
      "instantiate(address,address,address,uint256,uint256,uint256,uint256,address,uint256,uint256,uint256,uint256)": {
        "notice": "Instantiates a Proof of Stake"
      },
      "produceBlock(uint256)": {
        "notice": "Produce a block"
      }
    },
    "version": 1
  },
  "storageLayout": {
    "storage": [
      {
        "astId": 1117,
        "contract": "contracts/PoS.sol:PoS",
        "label": "_owner",
        "offset": 0,
        "slot": "0",
        "type": "t_address"
      },
      {
        "astId": 927,
        "contract": "contracts/PoS.sol:PoS",
        "label": "currentIndex",
        "offset": 0,
        "slot": "1",
        "type": "t_uint256"
      },
      {
        "astId": 931,
        "contract": "contracts/PoS.sol:PoS",
        "label": "active",
        "offset": 0,
        "slot": "2",
        "type": "t_mapping(t_uint256,t_bool)"
      },
      {
        "astId": 935,
        "contract": "contracts/PoS.sol:PoS",
        "label": "nonce",
        "offset": 0,
        "slot": "3",
        "type": "t_mapping(t_uint256,t_uint256)"
      },
      {
        "astId": 2254,
        "contract": "contracts/PoS.sol:PoS",
        "label": "instance",
        "offset": 0,
        "slot": "4",
        "type": "t_mapping(t_uint256,t_struct(PoSCtx)2250_storage)"
      }
    ],
    "types": {
      "t_address": {
        "encoding": "inplace",
        "label": "address",
        "numberOfBytes": "20"
      },
      "t_bool": {
        "encoding": "inplace",
        "label": "bool",
        "numberOfBytes": "1"
      },
      "t_contract(BlockSelector)2209": {
        "encoding": "inplace",
        "label": "contract BlockSelector",
        "numberOfBytes": "20"
      },
      "t_contract(RewardManager)3023": {
        "encoding": "inplace",
        "label": "contract RewardManager",
        "numberOfBytes": "20"
      },
      "t_contract(Staking)3109": {
        "encoding": "inplace",
        "label": "contract Staking",
        "numberOfBytes": "20"
      },
      "t_contract(WorkerAuthManager)1086": {
        "encoding": "inplace",
        "label": "contract WorkerAuthManager",
        "numberOfBytes": "20"
      },
      "t_mapping(t_address,t_address)": {
        "encoding": "mapping",
        "key": "t_address",
        "label": "mapping(address => address)",
        "numberOfBytes": "32",
        "value": "t_address"
      },
      "t_mapping(t_address,t_uint256)": {
        "encoding": "mapping",
        "key": "t_address",
        "label": "mapping(address => uint256)",
        "numberOfBytes": "32",
        "value": "t_uint256"
      },
      "t_mapping(t_uint256,t_bool)": {
        "encoding": "mapping",
        "key": "t_uint256",
        "label": "mapping(uint256 => bool)",
        "numberOfBytes": "32",
        "value": "t_bool"
      },
      "t_mapping(t_uint256,t_struct(PoSCtx)2250_storage)": {
        "encoding": "mapping",
        "key": "t_uint256",
        "label": "mapping(uint256 => struct PoS.PoSCtx)",
        "numberOfBytes": "32",
        "value": "t_struct(PoSCtx)2250_storage"
      },
      "t_mapping(t_uint256,t_uint256)": {
        "encoding": "mapping",
        "key": "t_uint256",
        "label": "mapping(uint256 => uint256)",
        "numberOfBytes": "32",
        "value": "t_uint256"
      },
      "t_struct(PoSCtx)2250_storage": {
        "encoding": "inplace",
        "label": "struct PoS.PoSCtx",
        "members": [
          {
            "astId": 2235,
            "contract": "contracts/PoS.sol:PoS",
            "label": "beneficiaryMap",
            "offset": 0,
            "slot": "0",
            "type": "t_mapping(t_address,t_address)"
          },
          {
            "astId": 2239,
            "contract": "contracts/PoS.sol:PoS",
            "label": "splitMap",
            "offset": 0,
            "slot": "1",
            "type": "t_mapping(t_address,t_uint256)"
          },
          {
            "astId": 2241,
            "contract": "contracts/PoS.sol:PoS",
            "label": "blockSelectorIndex",
            "offset": 0,
            "slot": "2",
            "type": "t_uint256"
          },
          {
            "astId": 2243,
            "contract": "contracts/PoS.sol:PoS",
            "label": "blockSelector",
            "offset": 0,
            "slot": "3",
            "type": "t_contract(BlockSelector)2209"
          },
          {
            "astId": 2245,
            "contract": "contracts/PoS.sol:PoS",
            "label": "staking",
            "offset": 0,
            "slot": "4",
            "type": "t_contract(Staking)3109"
          },
          {
            "astId": 2247,
            "contract": "contracts/PoS.sol:PoS",
            "label": "rewardManager",
            "offset": 0,
            "slot": "5",
            "type": "t_contract(RewardManager)3023"
          },
          {
            "astId": 2249,
            "contract": "contracts/PoS.sol:PoS",
            "label": "workerAuth",
            "offset": 0,
            "slot": "6",
            "type": "t_contract(WorkerAuthManager)1086"
          }
        ],
        "numberOfBytes": "224"
      },
      "t_uint256": {
        "encoding": "inplace",
        "label": "uint256",
        "numberOfBytes": "32"
      }
    }
  }
}