{
  "address": "0xDC8Cc4d7C37eb99AbD34bdD265d4359B2A7a02e7",
  "abi": [
    {
      "inputs": [
        {
          "internalType": "uint256",
          "name": "_difficulty",
          "type": "uint256"
        },
        {
          "internalType": "uint256",
          "name": "_ethBlockStamp",
          "type": "uint256"
        },
        {
          "internalType": "address",
          "name": "_user",
          "type": "address"
        },
        {
          "internalType": "uint256",
          "name": "_weight",
          "type": "uint256"
        }
      ],
      "name": "whenCanProduceBlock",
      "outputs": [
        {
          "internalType": "uint256",
          "name": "",
          "type": "uint256"
        }
      ],
      "stateMutability": "view",
      "type": "function"
    }
  ],
  "transactionHash": "0x332f6e32f319a0ae9407f242139b916503cd671be16aafce05e5ebaf3c0884fc",
  "args": [],
  "numDeployments": 2,
  "solcInputHash": "6670c41872ce7f396b312b3368907791",
  "bytecode": "0x61042461003a600b82828239805160001a60731461002d57634e487b7160e01b600052600060045260246000fd5b30600052607381538281f3fe73000000000000000000000000000000000000000030146080604052600436106100355760003560e01c8063261cb77a1461003a575b600080fd5b61004d6100483660046102e8565b61005f565b60405190815260200160405180910390f35b600061006a84610130565b1580610074575081155b156100825750600019610128565b600061008e848661016b565b680de0b6b3a76400000003905060006100ac8464e8d4a51000610349565b6100b68389610349565b6100c0919061037e565b90506000610100600160286100d58a43610392565b6100df9190610392565b6100e99190610392565b6100f3919061037e565b6100ff90610100610349565b905080602861010e89856103a9565b61011891906103a9565b61012291906103a9565b93505050505b949350505050565b6000602882014381106101465750600092915050565b43819003610100810660000361016157506101009392505050565b60ff169392505050565b60008061018261017c6028856103a9565b4361026c565b6040516bffffffffffffffffffffffff19606087901b1660208201529040915060009060340160408051601f198184030181528282528051602091820120908301819052908201849052915060009060600160408051808303601f1901815290829052805160209091012063c370ed0960e01b8252600482018190529150739d77bEAb6EA94A4d801Df94da947f4be2A16ed139063c370ed0990602401602060405180830381865af415801561023c573d6000803e3d6000fd5b505050506040513d601f19601f8201168201806040525081019061026091906103c1565b93505050505b92915050565b6000806102798484610392565b905060006102896101008361037e565b9050610297610100836103da565b6000036102c9576101006102ac600183610392565b6102b69190610349565b6102c090866103a9565b92505050610266565b6102d561010082610349565b6102df90866103a9565b95945050505050565b600080600080608085870312156102fe57600080fd5b843593506020850135925060408501356001600160a01b038116811461032357600080fd5b9396929550929360600135925050565b634e487b7160e01b600052601160045260246000fd5b600081600019048311821515161561036357610363610333565b500290565b634e487b7160e01b600052601260045260246000fd5b60008261038d5761038d610368565b500490565b6000828210156103a4576103a4610333565b500390565b600082198211156103bc576103bc610333565b500190565b6000602082840312156103d357600080fd5b5051919050565b6000826103e9576103e9610368565b50069056fea2646970667358221220da3e1594d233acaa94e77efb611bb7134654ec7f7589f994b5cc5edea1e2791864736f6c634300080e0033",
  "deployedBytecode": "0x73000000000000000000000000000000000000000030146080604052600436106100355760003560e01c8063261cb77a1461003a575b600080fd5b61004d6100483660046102e8565b61005f565b60405190815260200160405180910390f35b600061006a84610130565b1580610074575081155b156100825750600019610128565b600061008e848661016b565b680de0b6b3a76400000003905060006100ac8464e8d4a51000610349565b6100b68389610349565b6100c0919061037e565b90506000610100600160286100d58a43610392565b6100df9190610392565b6100e99190610392565b6100f3919061037e565b6100ff90610100610349565b905080602861010e89856103a9565b61011891906103a9565b61012291906103a9565b93505050505b949350505050565b6000602882014381106101465750600092915050565b43819003610100810660000361016157506101009392505050565b60ff169392505050565b60008061018261017c6028856103a9565b4361026c565b6040516bffffffffffffffffffffffff19606087901b1660208201529040915060009060340160408051601f198184030181528282528051602091820120908301819052908201849052915060009060600160408051808303601f1901815290829052805160209091012063c370ed0960e01b825260048201819052915073__$1cacf4970e0423274c39545237a099b14f$__9063c370ed0990602401602060405180830381865af415801561023c573d6000803e3d6000fd5b505050506040513d601f19601f8201168201806040525081019061026091906103c1565b93505050505b92915050565b6000806102798484610392565b905060006102896101008361037e565b9050610297610100836103da565b6000036102c9576101006102ac600183610392565b6102b69190610349565b6102c090866103a9565b92505050610266565b6102d561010082610349565b6102df90866103a9565b95945050505050565b600080600080608085870312156102fe57600080fd5b843593506020850135925060408501356001600160a01b038116811461032357600080fd5b9396929550929360600135925050565b634e487b7160e01b600052601160045260246000fd5b600081600019048311821515161561036357610363610333565b500290565b634e487b7160e01b600052601260045260246000fd5b60008261038d5761038d610368565b500490565b6000828210156103a4576103a4610333565b500390565b600082198211156103bc576103bc610333565b500190565b6000602082840312156103d357600080fd5b5051919050565b6000826103e9576103e9610368565b50069056fea2646970667358221220da3e1594d233acaa94e77efb611bb7134654ec7f7589f994b5cc5edea1e2791864736f6c634300080e0033",
  "libraries": {
    "UnrolledCordic": "0x9d77bEAb6EA94A4d801Df94da947f4be2A16ed13"
  },
  "devdoc": {
    "kind": "dev",
    "methods": {
      "whenCanProduceBlock(uint256,uint256,address,uint256)": {
        "params": {
          "_difficulty": "difficulty of current selection process",
          "_ethBlockStamp": "ethereum block number when current selection started",
          "_user": "the address that is gonna get checked",
          "_weight": "number that will weight the random number, most likely will be the number of staked tokens"
        }
      }
    },
    "version": 1
  },
  "userdoc": {
    "kind": "user",
    "methods": {
      "whenCanProduceBlock(uint256,uint256,address,uint256)": {
        "notice": "Check when address is allowed to produce block"
      }
    },
    "version": 1
  },
  "storageLayout": {
    "storage": [],
    "types": null
  }
}