{
  "address": "0x31F9Ae392D347AD89769f504A6e364364D5c05a1",
  "abi": [
    {
      "inputs": [
        {
          "internalType": "uint256",
          "name": "_minDifficulty",
          "type": "uint256"
        },
        {
          "internalType": "uint256",
          "name": "_difficulty",
          "type": "uint256"
        },
        {
          "internalType": "uint256",
          "name": "_difficultyAdjustmentParameter",
          "type": "uint256"
        },
        {
          "internalType": "uint256",
          "name": "_targetInterval",
          "type": "uint256"
        },
        {
          "internalType": "uint256",
          "name": "_blocksPassed",
          "type": "uint256"
        }
      ],
      "name": "getNewDifficulty",
      "outputs": [
        {
          "internalType": "uint256",
          "name": "",
          "type": "uint256"
        }
      ],
      "stateMutability": "pure",
      "type": "function"
    }
  ],
  "transactionHash": "0x338ef73a0a121194945b9ed5e52579a8582c5657e8fd14c9abed303abe83b94a",
  "args": [],
  "numDeployments": 2,
  "solcInputHash": "25ab6b1d2063135aa90a8855b6780b25",
  "bytecode": "0x6101c261003a600b82828239805160001a60731461002d57634e487b7160e01b600052600060045260246000fd5b30600052607381538281f3fe73000000000000000000000000000000000000000030146080604052600436106100355760003560e01c8063b602c0be1461003a575b600080fd5b61004d6100483660046100cb565b61005f565b60405190815260200160405180910390f35b600080620f4240610070868861011c565b61007a919061013b565b61008590600161015d565b90508383116100a057610098818761015d565b9150506100c2565b60006100ac8288610175565b90508781116100bb57876100bd565b805b925050505b95945050505050565b600080600080600060a086880312156100e357600080fd5b505083359560208501359550604085013594606081013594506080013592509050565b634e487b7160e01b600052601160045260246000fd5b600081600019048311821515161561013657610136610106565b500290565b60008261015857634e487b7160e01b600052601260045260246000fd5b500490565b6000821982111561017057610170610106565b500190565b60008282101561018757610187610106565b50039056fea2646970667358221220922b29d0f96472e4628b800aa99e637d7c730e3365ee8434f5407edbc3ab588464736f6c634300080e0033",
  "devdoc": {
    "kind": "dev",
    "methods": {},
    "version": 1
  },
  "userdoc": {
    "kind": "user",
    "methods": {
      "getNewDifficulty(uint256,uint256,uint256,uint256,uint256)": {
        "notice": "Calculates new difficulty parameter"
      }
    },
    "version": 1
  },
  "storageLayout": {
    "storage": [],
    "types": null
  }
}