{
  "address": "0x168c31E8A09AB01457Ac3c7dfab034599C57eb86",
  "abi": [
    {
      "inputs": [
        {
          "internalType": "uint256",
          "name": "_difficulty",
          "type": "uint256"
        },
        {
          "internalType": "uint256",
          "name": "_ethBlockStamp",
          "type": "uint256"
        },
        {
          "internalType": "address",
          "name": "_user",
          "type": "address"
        },
        {
          "internalType": "uint256",
          "name": "_weight",
          "type": "uint256"
        }
      ],
      "name": "whenCanProduceBlock",
      "outputs": [
        {
          "internalType": "uint256",
          "name": "",
          "type": "uint256"
        }
      ],
      "stateMutability": "view",
      "type": "function"
    }
  ],
  "transactionHash": "0x0a8f5f9d46e2428999569340c24f3c5e35e31d8e9d88d914337e3a49bf266510",
  "args": [],
  "numDeployments": 1,
  "solcInputHash": "f1974c6906bc5c057a1d6d58e9bdeddb",
  "bytecode": "0x6103a761003a600b82828239805160001a60731461002d57634e487b7160e01b600052600060045260246000fd5b30600052607381538281f3fe73000000000000000000000000000000000000000030146080604052600436106100355760003560e01c8063261cb77a1461003a575b600080fd5b61004d61004836600461026b565b61005f565b60405190815260200160405180910390f35b600061006a846100d2565b1580610074575081155b1561008257506000196100ca565b600061008e848661010d565b680de0b6b3a76400000003905060006100ac8464e8d4a510006102cc565b6100b683896102cc565b6100c09190610301565b8601602801925050505b949350505050565b6000602882014381106100e85750600092915050565b43819003610100810660000361010357506101009392505050565b60ff169392505050565b60008061012361011e602885610315565b61020b565b6040516bffffffffffffffffffffffff19606087901b1660208201529040915060009060340160408051601f198184030181528282528051602091820120908301819052908201849052915060009060600160408051808303601f1901815290829052805160209091012063c370ed0960e01b82526004820181905291507321A46e1D173Fd616B6D44F3b4Ec14e721824C6149063c370ed0990602401602060405180830381865af41580156101dd573d6000803e3d6000fd5b505050506040513d601f19601f82011682018060405250810190610201919061032d565b9695505050505050565b6000806102188343610346565b9050600061022861010083610301565b90506102366101008361035d565b60000361025f5761010061024b600183610346565b61025591906102cc565b6100ca9085610315565b610255610100826102cc565b6000806000806080858703121561028157600080fd5b843593506020850135925060408501356001600160a01b03811681146102a657600080fd5b9396929550929360600135925050565b634e487b7160e01b600052601160045260246000fd5b60008160001904831182151516156102e6576102e66102b6565b500290565b634e487b7160e01b600052601260045260246000fd5b600082610310576103106102eb565b500490565b60008219821115610328576103286102b6565b500190565b60006020828403121561033f57600080fd5b5051919050565b600082821015610358576103586102b6565b500390565b60008261036c5761036c6102eb565b50069056fea2646970667358221220cd2bbea35e83e3678870cfef8685af8c97107d6b1af1581242ef37bd0cbcdbf164736f6c634300080e0033",
  "deployedBytecode": "0x73000000000000000000000000000000000000000030146080604052600436106100355760003560e01c8063261cb77a1461003a575b600080fd5b61004d61004836600461026b565b61005f565b60405190815260200160405180910390f35b600061006a846100d2565b1580610074575081155b1561008257506000196100ca565b600061008e848661010d565b680de0b6b3a76400000003905060006100ac8464e8d4a510006102cc565b6100b683896102cc565b6100c09190610301565b8601602801925050505b949350505050565b6000602882014381106100e85750600092915050565b43819003610100810660000361010357506101009392505050565b60ff169392505050565b60008061012361011e602885610315565b61020b565b6040516bffffffffffffffffffffffff19606087901b1660208201529040915060009060340160408051601f198184030181528282528051602091820120908301819052908201849052915060009060600160408051808303601f1901815290829052805160209091012063c370ed0960e01b825260048201819052915073__$1cacf4970e0423274c39545237a099b14f$__9063c370ed0990602401602060405180830381865af41580156101dd573d6000803e3d6000fd5b505050506040513d601f19601f82011682018060405250810190610201919061032d565b9695505050505050565b6000806102188343610346565b9050600061022861010083610301565b90506102366101008361035d565b60000361025f5761010061024b600183610346565b61025591906102cc565b6100ca9085610315565b610255610100826102cc565b6000806000806080858703121561028157600080fd5b843593506020850135925060408501356001600160a01b03811681146102a657600080fd5b9396929550929360600135925050565b634e487b7160e01b600052601160045260246000fd5b60008160001904831182151516156102e6576102e66102b6565b500290565b634e487b7160e01b600052601260045260246000fd5b600082610310576103106102eb565b500490565b60008219821115610328576103286102b6565b500190565b60006020828403121561033f57600080fd5b5051919050565b600082821015610358576103586102b6565b500390565b60008261036c5761036c6102eb565b50069056fea2646970667358221220cd2bbea35e83e3678870cfef8685af8c97107d6b1af1581242ef37bd0cbcdbf164736f6c634300080e0033",
  "libraries": {
    "UnrolledCordic": "0x21A46e1D173Fd616B6D44F3b4Ec14e721824C614"
  },
  "devdoc": {
    "kind": "dev",
    "methods": {
      "whenCanProduceBlock(uint256,uint256,address,uint256)": {
        "params": {
          "_difficulty": "ethereum block number when current selection started",
          "_ethBlockStamp": "ethereum block number when current selection started",
          "_user": "the address that is gonna get checked",
          "_weight": "number that will weight the random number, most likely will be the number of staked tokens"
        }
      }
    },
    "version": 1
  },
  "userdoc": {
    "kind": "user",
    "methods": {
      "whenCanProduceBlock(uint256,uint256,address,uint256)": {
        "notice": "Check when address is allowed to produce block"
      }
    },
    "version": 1
  },
  "storageLayout": {
    "storage": [],
    "types": null
  }
}