{
  "address": "0x20d9Fe4FbE713500EeE487B828576A8c7A0522B9",
  "abi": [
    {
      "anonymous": false,
      "inputs": [
        {
          "indexed": true,
          "internalType": "address",
          "name": "pos",
          "type": "address"
        },
        {
          "indexed": false,
          "internalType": "address",
          "name": "ctsiAddress",
          "type": "address"
        },
        {
          "indexed": false,
          "internalType": "address",
          "name": "stakingAddress",
          "type": "address"
        },
        {
          "indexed": false,
          "internalType": "address",
          "name": "workerAuthAddress",
          "type": "address"
        },
        {
          "indexed": false,
          "internalType": "uint64",
          "name": "minDifficulty",
          "type": "uint64"
        },
        {
          "indexed": false,
          "internalType": "uint64",
          "name": "initialDifficulty",
          "type": "uint64"
        },
        {
          "indexed": false,
          "internalType": "uint32",
          "name": "difficultyAdjustmentParameter",
          "type": "uint32"
        },
        {
          "indexed": false,
          "internalType": "uint32",
          "name": "targetInterval",
          "type": "uint32"
        },
        {
          "indexed": false,
          "internalType": "uint256",
          "name": "rewardValue",
          "type": "uint256"
        },
        {
          "indexed": false,
          "internalType": "uint32",
          "name": "rewardDelay",
          "type": "uint32"
        },
        {
          "indexed": false,
          "internalType": "uint32",
          "name": "version",
          "type": "uint32"
        }
      ],
      "name": "NewChain",
      "type": "event"
    },
    {
      "anonymous": false,
      "inputs": [
        {
          "indexed": true,
          "internalType": "address",
          "name": "previousOwner",
          "type": "address"
        },
        {
          "indexed": true,
          "internalType": "address",
          "name": "newOwner",
          "type": "address"
        }
      ],
      "name": "OwnershipTransferred",
      "type": "event"
    },
    {
      "inputs": [
        {
          "internalType": "address",
          "name": "_ctsiAddress",
          "type": "address"
        },
        {
          "internalType": "address",
          "name": "_stakingAddress",
          "type": "address"
        },
        {
          "internalType": "address",
          "name": "_workerAuthAddress",
          "type": "address"
        },
        {
          "internalType": "uint64",
          "name": "_minDifficulty",
          "type": "uint64"
        },
        {
          "internalType": "uint64",
          "name": "_initialDifficulty",
          "type": "uint64"
        },
        {
          "internalType": "uint32",
          "name": "_difficultyAdjustmentParameter",
          "type": "uint32"
        },
        {
          "internalType": "uint32",
          "name": "_targetInterval",
          "type": "uint32"
        },
        {
          "internalType": "uint256",
          "name": "_rewardValue",
          "type": "uint256"
        },
        {
          "internalType": "uint32",
          "name": "_rewardDelay",
          "type": "uint32"
        },
        {
          "internalType": "uint32",
          "name": "_version",
          "type": "uint32"
        }
      ],
      "name": "createNewChain",
      "outputs": [
        {
          "internalType": "address",
          "name": "",
          "type": "address"
        }
      ],
      "stateMutability": "nonpayable",
      "type": "function"
    },
    {
      "inputs": [],
      "name": "owner",
      "outputs": [
        {
          "internalType": "address",
          "name": "",
          "type": "address"
        }
      ],
      "stateMutability": "view",
      "type": "function"
    },
    {
      "inputs": [],
      "name": "renounceOwnership",
      "outputs": [],
      "stateMutability": "nonpayable",
      "type": "function"
    },
    {
      "inputs": [
        {
          "internalType": "address",
          "name": "newOwner",
          "type": "address"
        }
      ],
      "name": "transferOwnership",
      "outputs": [],
      "stateMutability": "nonpayable",
      "type": "function"
    }
  ],
  "transactionHash": "0x428e402b57da9d90d296d2b1b321e03da37ab0403016ffb09fe466d44d55f31c",
  "args": [],
  "numDeployments": 1,
  "solcInputHash": "f1974c6906bc5c057a1d6d58e9bdeddb",
  "bytecode": "0x608060405234801561001057600080fd5b50600080546001600160a01b031916339081178255604051909182917f8be0079c531659141344cd1fd0a4f28419497f9722a3daafe3b4186f6b6457e0908290a3506129a7806100616000396000f3fe608060405234801561001057600080fd5b506004361061004c5760003560e01c8063715018a6146100515780637d982ea61461005b5780638da5cb5b1461008a578063f2fde38b1461009b575b600080fd5b6100596100ae565b005b61006e61006936600461039b565b61012b565b6040516001600160a01b03909116815260200160405180910390f35b6000546001600160a01b031661006e565b6100596100a936600461044e565b61025c565b6000546001600160a01b031633146100e15760405162461bcd60e51b81526004016100d890610470565b60405180910390fd5b600080546040516001600160a01b03909116907f8be0079c531659141344cd1fd0a4f28419497f9722a3daafe3b4186f6b6457e0908390a3600080546001600160a01b0319169055565b600080546001600160a01b031633146101565760405162461bcd60e51b81526004016100d890610470565b60008b8b8b8b8b8b8b8b8b8b60405161016e90610346565b6101819a999897969594939291906104a5565b604051809103906000f08015801561019d573d6000803e3d6000fd5b5060405163f2fde38b60e01b81523360048201529091506001600160a01b0382169063f2fde38b90602401600060405180830381600087803b1580156101e257600080fd5b505af11580156101f6573d6000803e3d6000fd5b50505050806001600160a01b03167f8d7dc276cb80789d9293dbc1e29d9fa53957db3e1d2d5a28c2609ab490a769268d8d8d8d8d8d8d8d8d8d6040516102459a999897969594939291906104a5565b60405180910390a29b9a5050505050505050505050565b6000546001600160a01b031633146102865760405162461bcd60e51b81526004016100d890610470565b6001600160a01b0381166102eb5760405162461bcd60e51b815260206004820152602660248201527f4f776e61626c653a206e6577206f776e657220697320746865207a65726f206160448201526564647265737360d01b60648201526084016100d8565b600080546040516001600160a01b03808516939216917f8be0079c531659141344cd1fd0a4f28419497f9722a3daafe3b4186f6b6457e091a3600080546001600160a01b0319166001600160a01b0392909216919091179055565b6124618061051183390190565b80356001600160a01b038116811461036a57600080fd5b919050565b803567ffffffffffffffff8116811461036a57600080fd5b803563ffffffff8116811461036a57600080fd5b6000806000806000806000806000806101408b8d0312156103bb57600080fd5b6103c48b610353565b99506103d260208c01610353565b98506103e060408c01610353565b97506103ee60608c0161036f565b96506103fc60808c0161036f565b955061040a60a08c01610387565b945061041860c08c01610387565b935060e08b0135925061042e6101008c01610387565b915061043d6101208c01610387565b90509295989b9194979a5092959850565b60006020828403121561046057600080fd5b61046982610353565b9392505050565b6020808252818101527f4f776e61626c653a2063616c6c6572206973206e6f7420746865206f776e6572604082015260600190565b6001600160a01b039a8b168152988a1660208a015296909816604088015267ffffffffffffffff948516606088015292909316608086015263ffffffff90811660a086015291821660c085015260e0840152928316610100830152909116610120820152610140019056fe6101806040523480156200001257600080fd5b5060405162002461380380620024618339810160408190526200003591620001c0565b600080546001600160a01b031916339081178255604051899289928992899282917f8be0079c531659141344cd1fd0a4f28419497f9722a3daafe3b4186f6b6457e0908290a3506001600160401b039384166080529190921660015563ffffffff91821660a052811660c0523361016052811660e0526001600160a01b03898116610100528816610140526040518a90309085908590620000d69062000168565b6001600160a01b039485168152939092166020840152604083015263ffffffff166060820152608001604051809103906000f0801580156200011c573d6000803e3d6000fd5b506001600160a01b03166101205250506006805460ff1916600117905550506004805463ffffffff4316600160a01b0263ffffffff60a01b199091161790555062000286945050505050565b610b24806200193d83390190565b80516001600160a01b03811681146200018e57600080fd5b919050565b80516001600160401b03811681146200018e57600080fd5b805163ffffffff811681146200018e57600080fd5b6000806000806000806000806000806101408b8d031215620001e157600080fd5b620001ec8b62000176565b9950620001fc60208c0162000176565b98506200020c60408c0162000176565b97506200021c60608c0162000193565b96506200022c60808c0162000193565b95506200023c60a08c01620001ab565b94506200024c60c08c01620001ab565b935060e08b01519250620002646101008c01620001ab565b9150620002756101208c01620001ab565b90509295989b9194979a5092959850565b60805160a05160c05160e0516101005161012051610140516101605161160462000339600039600081816103bb0152610d6301526000818161037901528181610d8e0152610e5f0152600081816102090152818161031b01528181610457015261091b01526000818161024801528181610571015281816107aa0152610f140152600081816102a10152818161065f015261081f0152600061123e01526000611216015260006111e201526116046000f3fe608060405234801561001057600080fd5b50600436106101375760003560e01c80637aad19ff116100b857806392b228b31161007c57806392b228b314610374578063a5a6cd0b1461039b578063affbbda9146103ae578063c45a0155146103b6578063f2fde38b146103dd578063faab2c90146103f057600080fd5b80637aad19ff146102f557806385425f4f1461030a5780638936b63b1461033d5780638da5cb5b146103505780638e6a81291461036157600080fd5b806350868956116100ff578063508689561461026a57806352e031e51461028b57806354fd4d501461029c57806367faa2b6146102d8578063715018a6146102ed57600080fd5b806301cc7c4d1461013c57806302fb0c5e146101dd5780630c08bf88146101fa5780630f4ef8a6146102045780634cf088d914610243575b600080fd5b6101a761014a366004611340565b60408051606080820183526000808352602080840182905292840181905293845260058252928290208251938401835280546001600160a01b0381168552600160a01b900463ffffffff1691840191909152600101549082015290565b6040805182516001600160a01b0316815260208084015163ffffffff169082015291810151908201526060015b60405180910390f35b6006546101ea9060ff1681565b60405190151581526020016101d4565b610202610422565b005b61022b7f000000000000000000000000000000000000000000000000000000000000000081565b6040516001600160a01b0390911681526020016101d4565b61022b7f000000000000000000000000000000000000000000000000000000000000000081565b61027d610278366004611371565b610530565b6040519081526020016101d4565b6004546001600160a01b031661022b565b6102c37f000000000000000000000000000000000000000000000000000000000000000081565b60405163ffffffff90911681526020016101d4565b600454600160a01b900463ffffffff1661027d565b6102026105e7565b600454600160c01b900463ffffffff1661027d565b61022b610318366004611340565b507f000000000000000000000000000000000000000000000000000000000000000090565b6101ea61034b3660046113ae565b61065b565b6000546001600160a01b031661022b565b6101ea61036f366004611371565b610769565b61022b7f000000000000000000000000000000000000000000000000000000000000000081565b6101ea6103a9366004611340565b61081b565b61027d6109a5565b61022b7f000000000000000000000000000000000000000000000000000000000000000081565b6102026103eb366004611371565b6109c6565b6104036103fe366004611431565b610ab0565b6040805192151583526001600160a01b039091166020830152016101d4565b6000546001600160a01b031633146104555760405162461bcd60e51b815260040161044c90611464565b60405180910390fd5b7f00000000000000000000000000000000000000000000000000000000000000006001600160a01b0316638aec85426040518163ffffffff1660e01b8152600401602060405180830381865afa1580156104b3573d6000803e3d6000fd5b505050506040513d601f19601f820116820180604052508101906104d79190611499565b156105245760405162461bcd60e51b815260206004820152601f60248201527f5265776172644d616e61676572207374696c6c20686f6c64732066756e647300604482015260640161044c565b6006805460ff19169055565b60015460048054604051633a02a42d60e01b81526001600160a01b03808616938201939093526000936105e1939092600160a01b900463ffffffff169186917f00000000000000000000000000000000000000000000000000000000000000001690633a02a42d90602401602060405180830381865afa1580156105b8573d6000803e3d6000fd5b505050506040513d601f19601f820116820180604052508101906105dc9190611499565b610ca9565b92915050565b6000546001600160a01b031633146106115760405162461bcd60e51b815260040161044c90611464565b600080546040516001600160a01b03909116907f8be0079c531659141344cd1fd0a4f28419497f9722a3daafe3b4186f6b6457e0908390a3600080546001600160a01b0319169055565b60007f000000000000000000000000000000000000000000000000000000000000000063ffffffff166002146106cb5760405162461bcd60e51b8152602060048201526015602482015274383937ba37b1b7b6103430b9903a37903132902b1960591b604482015260640161044c565b60006106d5610d46565b9050336001600160a01b0316816001600160a01b03167f940e173156be8ef613108cfeccd9bce20976d05ae59ee16c3b6e1ff74cef935f6107458863ffffffff1685898960405160200161072a9291906114b2565b60405160208183030381529060405280519060200120610fad565b8787604051610756939291906114c2565b60405180910390a3506001949350505050565b60015460048054604051633a02a42d60e01b81526001600160a01b03808616938201939093526000936105e1939092600160a01b900463ffffffff169186917f00000000000000000000000000000000000000000000000000000000000000001690633a02a42d906024015b602060405180830381865afa1580156107f2573d6000803e3d6000fd5b505050506040513d601f19601f820116820180604052508101906108169190611499565b6110b3565b60007f000000000000000000000000000000000000000000000000000000000000000063ffffffff1660011461088b5760405162461bcd60e51b815260206004820152601560248201527470726f746f636f6c2068617320746f20626520563160581b604482015260640161044c565b6000610895610d46565b60045460408051600160c01b90920463ffffffff168083526020830182905260009183019190915291925033906001600160a01b038416907f940e173156be8ef613108cfeccd9bce20976d05ae59ee16c3b6e1ff74cef935f9060600160405180910390a36040516303a7b07f60e61b815263ffffffff821660048201523360248201527f00000000000000000000000000000000000000000000000000000000000000006001600160a01b03169063e9ec1fc090604401600060405180830381600087803b15801561096757600080fd5b505af115801561097b573d6000803e3d6000fd5b5050505061099b828260016109909190611514565b63ffffffff16611153565b5060019392505050565b6004546000906109c190600160a01b900463ffffffff166111bc565b905090565b6000546001600160a01b031633146109f05760405162461bcd60e51b815260040161044c90611464565b6001600160a01b038116610a555760405162461bcd60e51b815260206004820152602660248201527f4f776e61626c653a206e6577206f776e657220697320746865207a65726f206160448201526564647265737360d01b606482015260840161044c565b600080546040516001600160a01b03808516939216917f8be0079c531659141344cd1fd0a4f28419497f9722a3daafe3b4186f6b6457e091a3600080546001600160a01b0319166001600160a01b0392909216919091179055565b6040516301b2a42d60e01b81526002600482015263ffffffff8316602482015260009081908190737a24cD1c71Ef908a904f3978F2da8bfbA2213247906301b2a42d90604401602060405180830381865af4158015610b13573d6000803e3d6000fd5b505050506040513d601f19601f82011682018060405250810190610b379190611499565b6040516334a4425b60e11b8152600260048201529091506000908190737a24cD1c71Ef908a904f3978F2da8bfbA22132479063694884b6906024016040805180830381865af4158015610b8e573d6000803e3d6000fd5b505050506040513d601f19601f82011682018060405250810190610bb2919061153c565b6040516375e6dc3960e11b8152600260048201526024810183905260448101869052919350915063ffffffff881690737a24cD1c71Ef908a904f3978F2da8bfbA22132479063ebcdb87290606401602060405180830381865af4158015610c1d573d6000803e3d6000fd5b505050506040513d601f19601f82011682018060405250810190610c419190611499565b14610c555760008094509450505050610ca2565b63ffffffff8616610c668483611560565b10610c97575050505063ffffffff8316600090815260056020526040902054600191506001600160a01b0316610ca2565b600080945094505050505b9250929050565b60405163130e5bbd60e11b815260048101859052602481018490526001600160a01b03831660448201526064810182905260009073168c31E8A09AB01457Ac3c7dfab034599C57eb869063261cb77a90608401602060405180830381865af4158015610d19573d6000803e3d6000fd5b505050506040513d601f19601f82011682018060405250810190610d3d9190611499565b95945050505050565b6040516332f256cf60e11b81523360048201526001600160a01b037f0000000000000000000000000000000000000000000000000000000000000000811660248301526000917f0000000000000000000000000000000000000000000000000000000000000000909116906365e4ad9e90604401602060405180830381865afa158015610dd7573d6000803e3d6000fd5b505050506040513d601f19601f82011682018060405250810190610dfb9190611577565b610e475760405162461bcd60e51b815260206004820152601c60248201527f6d73672e73656e646572206973206e6f7420617574686f72697a656400000000604482015260640161044c565b60405163fa54416160e01b81523360048201526000907f00000000000000000000000000000000000000000000000000000000000000006001600160a01b03169063fa54416190602401602060405180830381865afa158015610eae573d6000803e3d6000fd5b505050506040513d601f19601f82011682018060405250810190610ed29190611599565b60048054600154604051633a02a42d60e01b81526001600160a01b0380861694820194909452939450600160a01b90910463ffffffff1692610f4392849186917f00000000000000000000000000000000000000000000000000000000000000001690633a02a42d906024016107d5565b610f8f5760405162461bcd60e51b815260206004820152601c60248201527f5573657220636f756c646e742070726f64756365206120626c6f636b00000000604482015260640161044c565b610fa7610fa263ffffffff831643611560565b6111c7565b50919050565b604051634e9319b960e11b815260026004820152602481018490526000908190737a24cD1c71Ef908a904f3978F2da8bfbA221324790639d26337290604401602060405180830381865af4158015611009573d6000803e3d6000fd5b505050506040513d601f19601f8201168201806040525081019061102d9190611499565b604080516060810182526001600160a01b03808816825263ffffffff43811660208085019182528486018a815260008881526005909252959020935184549151909216600160a01b026001600160c01b0319909116919092161717815590516001918201559091506110ab9085906110a69084906115b6565b611153565b949350505050565b60405163130e5bbd60e11b815260048101859052602481018490526001600160a01b03831660448201526064810182905260009073168c31E8A09AB01457Ac3c7dfab034599C57eb869063261cb77a90608401602060405180830381865af4158015611123573d6000803e3d6000fd5b505050506040513d601f19601f820116820180604052508101906111479190611499565b43101595945050505050565b604080516060810182526001600160a01b0390931680845263ffffffff4381166020860181905293169390910183905260048054600160c01b90940263ffffffff60c01b19600160a01b9094026001600160c01b03199095169092179390931791909116179055565b60006105e182611305565b600154604051635b01605f60e11b815267ffffffffffffffff7f0000000000000000000000000000000000000000000000000000000000000000166004820152602481019190915263ffffffff7f0000000000000000000000000000000000000000000000000000000000000000811660448301527f00000000000000000000000000000000000000000000000000000000000000001660648201526084810182905273f055A2142AE38217A7Bc9dB16EaE7debd4A725Fb9063b602c0be9060a401602060405180830381865af41580156112a6573d6000803e3d6000fd5b505050506040513d601f19601f820116820180604052508101906112ca9190611499565b60018190556040519081527f5a790c48cbebdceff3f1fcd445afd12d57302b7196738d61c60dcd491bf3efba9060200160405180910390a150565b60006028820143811061131b5750600092915050565b43819003610100810660000361133657506101009392505050565b60ff169392505050565b60006020828403121561135257600080fd5b5035919050565b6001600160a01b038116811461136e57600080fd5b50565b60006020828403121561138357600080fd5b813561138e81611359565b9392505050565b803563ffffffff811681146113a957600080fd5b919050565b6000806000604084860312156113c357600080fd5b6113cc84611395565b9250602084013567ffffffffffffffff808211156113e957600080fd5b818601915086601f8301126113fd57600080fd5b81358181111561140c57600080fd5b87602082850101111561141e57600080fd5b6020830194508093505050509250925092565b6000806040838503121561144457600080fd5b61144d83611395565b915061145b60208401611395565b90509250929050565b6020808252818101527f4f776e61626c653a2063616c6c6572206973206e6f7420746865206f776e6572604082015260600190565b6000602082840312156114ab57600080fd5b5051919050565b8183823760009101908152919050565b63ffffffff8416815260406020820152816040820152818360608301376000818301606090810191909152601f909201601f1916010192915050565b634e487b7160e01b600052601160045260246000fd5b600063ffffffff808316818516808303821115611533576115336114fe565b01949350505050565b6000806040838503121561154f57600080fd5b505080516020909101519092909150565b600082821015611572576115726114fe565b500390565b60006020828403121561158957600080fd5b8151801515811461138e57600080fd5b6000602082840312156115ab57600080fd5b815161138e81611359565b600082198211156115c9576115c96114fe565b50019056fea2646970667358221220529f9b0f7988e73abfe1365db5cbbf0a0928386f0a4df04dbd8a7c62d4ea379664736f6c634300080e003361010060405234801561001157600080fd5b50604051610b24380380610b2483398101604081905261003091610075565b6001600160a01b0393841660c0529190921660e05260809190915263ffffffff1660a0526100cd565b80516001600160a01b038116811461007057600080fd5b919050565b6000806000806080858703121561008b57600080fd5b61009485610059565b93506100a260208601610059565b925060408501519150606085015163ffffffff811681146100c257600080fd5b939692955090935050565b60805160a05160c05160e0516109fc6101286000396000818160c7015281816102bc015261058b0152600081816104600152818161062b01526106f801526000610333015260008181610777015261079e01526109fc6000f3fe608060405234801561001057600080fd5b50600436106100625760003560e01c806309b290681461006757806312065fe01461008f57806385ac2fa9146100a55780638aec8542146100ba578063c56551b6146100c2578063e9ec1fc014610101575b600080fd5b61007a61007536600461085a565b610114565b60405190151581526020015b60405180910390f35b61009761019d565b604051908152602001610086565b6100b86100b336600461087c565b6101ac565b005b610097610576565b6100e97f000000000000000000000000000000000000000000000000000000000000000081565b6040516001600160a01b039091168152602001610086565b6100b861010f366004610909565b610580565b6040516303fbaf7360e01b815260006004820181905263ffffffff831660248301529073CC075E3e753f5a269781e512A925f9D5059B41D2906303fbaf7390604401602060405180830381865af4158015610173573d6000803e3d6000fd5b505050506040513d601f19601f820116820180604052508101906101979190610950565b92915050565b60006101a76106e0565b905090565b60005b818110156105715773CC075E3e753f5a269781e512A925f9D5059B41D26303fbaf7360008585858181106101e5576101e561096b565b90506020020160208101906101fa919061085a565b6040516001600160e01b031960e085901b168152600481019290925263ffffffff166024820152604401602060405180830381865af4158015610241573d6000803e3d6000fd5b505050506040513d601f19601f820116820180604052508101906102659190610950565b156102b75760405162461bcd60e51b815260206004820152601b60248201527f54686520626c6f636b20686173206265656e207265776172646564000000000060448201526064015b60405180910390fd5b6000807f00000000000000000000000000000000000000000000000000000000000000006001600160a01b031663faab2c908686868181106102fb576102fb61096b565b9050602002016020810190610310919061085a565b60405160e083901b6001600160e01b031916815263ffffffff91821660048201527f000000000000000000000000000000000000000000000000000000000000000090911660248201526044016040805180830381865afa158015610379573d6000803e3d6000fd5b505050506040513d601f19601f8201168201806040525081019061039d9190610981565b91509150816103de5760405162461bcd60e51b815260206004820152600d60248201526c496e76616c696420626c6f636b60981b60448201526064016102ae565b60006103e861076b565b90506000811161043a5760405162461bcd60e51b815260206004820152601a60248201527f5265776172644d616e6167657220686173206e6f2066756e647300000000000060448201526064016102ae565b60405163a9059cbb60e01b81526001600160a01b038381166004830152602482018390527f0000000000000000000000000000000000000000000000000000000000000000169063a9059cbb906044016020604051808303816000875af11580156104a9573d6000803e3d6000fd5b505050506040513d601f19601f820116820180604052508101906104cd9190610950565b506104fd8686868181106104e3576104e361096b565b90506020020160208101906104f8919061085a565b6107c8565b85858581811061050f5761050f61096b565b9050602002016020810190610524919061085a565b63ffffffff167fc03e4bb56a67f4e04f08102325c70cf9e42f888a19d6d634bbee5f2a3a0b73d98260405161055b91815260200190565b60405180910390a28360010193505050506101af565b505050565b60006101a761076b565b336001600160a01b037f000000000000000000000000000000000000000000000000000000000000000016146105f85760405162461bcd60e51b815260206004820152601e60248201527f4f6e6c792074686520706f7320636f6e74726163742063616e2063616c6c000060448201526064016102ae565b600061060261076b565b60405163a9059cbb60e01b81526001600160a01b038481166004830152602482018390529192507f00000000000000000000000000000000000000000000000000000000000000009091169063a9059cbb906044016020604051808303816000875af1158015610676573d6000803e3d6000fd5b505050506040513d601f19601f8201168201806040525081019061069a9190610950565b508263ffffffff167fc03e4bb56a67f4e04f08102325c70cf9e42f888a19d6d634bbee5f2a3a0b73d9826040516106d391815260200190565b60405180910390a2505050565b6040516370a0823160e01b81523060048201526000907f00000000000000000000000000000000000000000000000000000000000000006001600160a01b0316906370a0823190602401602060405180830381865afa158015610747573d6000803e3d6000fd5b505050506040513d601f19601f820116820180604052508101906101a791906109ad565b60006107756106e0565b7f0000000000000000000000000000000000000000000000000000000000000000116107c057507f000000000000000000000000000000000000000000000000000000000000000090565b6101a76106e0565b6040516306449da160e41b81526000600482015263ffffffff821660248201526001604482015273CC075E3e753f5a269781e512A925f9D5059B41D290636449da109060640160006040518083038186803b15801561082657600080fd5b505af415801561083a573d6000803e3d6000fd5b5050505050565b803563ffffffff8116811461085557600080fd5b919050565b60006020828403121561086c57600080fd5b61087582610841565b9392505050565b6000806020838503121561088f57600080fd5b823567ffffffffffffffff808211156108a757600080fd5b818501915085601f8301126108bb57600080fd5b8135818111156108ca57600080fd5b8660208260051b85010111156108df57600080fd5b60209290920196919550909350505050565b6001600160a01b038116811461090657600080fd5b50565b6000806040838503121561091c57600080fd5b61092583610841565b91506020830135610935816108f1565b809150509250929050565b8051801515811461085557600080fd5b60006020828403121561096257600080fd5b61087582610940565b634e487b7160e01b600052603260045260246000fd5b6000806040838503121561099457600080fd5b61099d83610940565b91506020830151610935816108f1565b6000602082840312156109bf57600080fd5b505191905056fea2646970667358221220e63a7530a052412b3327cb84e6c058505f7358cb78ce34fdab0b82dedc4017cc64736f6c634300080e0033a26469706673582212203b48bb4339a89e7cd220710e5bbaf536d0435d22900dcaf3eb597b76d091b93a64736f6c634300080e0033",
  "deployedBytecode": "0x608060405234801561001057600080fd5b506004361061004c5760003560e01c8063715018a6146100515780637d982ea61461005b5780638da5cb5b1461008a578063f2fde38b1461009b575b600080fd5b6100596100ae565b005b61006e61006936600461039b565b61012b565b6040516001600160a01b03909116815260200160405180910390f35b6000546001600160a01b031661006e565b6100596100a936600461044e565b61025c565b6000546001600160a01b031633146100e15760405162461bcd60e51b81526004016100d890610470565b60405180910390fd5b600080546040516001600160a01b03909116907f8be0079c531659141344cd1fd0a4f28419497f9722a3daafe3b4186f6b6457e0908390a3600080546001600160a01b0319169055565b600080546001600160a01b031633146101565760405162461bcd60e51b81526004016100d890610470565b60008b8b8b8b8b8b8b8b8b8b60405161016e90610346565b6101819a999897969594939291906104a5565b604051809103906000f08015801561019d573d6000803e3d6000fd5b5060405163f2fde38b60e01b81523360048201529091506001600160a01b0382169063f2fde38b90602401600060405180830381600087803b1580156101e257600080fd5b505af11580156101f6573d6000803e3d6000fd5b50505050806001600160a01b03167f8d7dc276cb80789d9293dbc1e29d9fa53957db3e1d2d5a28c2609ab490a769268d8d8d8d8d8d8d8d8d8d6040516102459a999897969594939291906104a5565b60405180910390a29b9a5050505050505050505050565b6000546001600160a01b031633146102865760405162461bcd60e51b81526004016100d890610470565b6001600160a01b0381166102eb5760405162461bcd60e51b815260206004820152602660248201527f4f776e61626c653a206e6577206f776e657220697320746865207a65726f206160448201526564647265737360d01b60648201526084016100d8565b600080546040516001600160a01b03808516939216917f8be0079c531659141344cd1fd0a4f28419497f9722a3daafe3b4186f6b6457e091a3600080546001600160a01b0319166001600160a01b0392909216919091179055565b6124618061051183390190565b80356001600160a01b038116811461036a57600080fd5b919050565b803567ffffffffffffffff8116811461036a57600080fd5b803563ffffffff8116811461036a57600080fd5b6000806000806000806000806000806101408b8d0312156103bb57600080fd5b6103c48b610353565b99506103d260208c01610353565b98506103e060408c01610353565b97506103ee60608c0161036f565b96506103fc60808c0161036f565b955061040a60a08c01610387565b945061041860c08c01610387565b935060e08b0135925061042e6101008c01610387565b915061043d6101208c01610387565b90509295989b9194979a5092959850565b60006020828403121561046057600080fd5b61046982610353565b9392505050565b6020808252818101527f4f776e61626c653a2063616c6c6572206973206e6f7420746865206f776e6572604082015260600190565b6001600160a01b039a8b168152988a1660208a015296909816604088015267ffffffffffffffff948516606088015292909316608086015263ffffffff90811660a086015291821660c085015260e0840152928316610100830152909116610120820152610140019056fe6101806040523480156200001257600080fd5b5060405162002461380380620024618339810160408190526200003591620001c0565b600080546001600160a01b031916339081178255604051899289928992899282917f8be0079c531659141344cd1fd0a4f28419497f9722a3daafe3b4186f6b6457e0908290a3506001600160401b039384166080529190921660015563ffffffff91821660a052811660c0523361016052811660e0526001600160a01b03898116610100528816610140526040518a90309085908590620000d69062000168565b6001600160a01b039485168152939092166020840152604083015263ffffffff166060820152608001604051809103906000f0801580156200011c573d6000803e3d6000fd5b506001600160a01b03166101205250506006805460ff1916600117905550506004805463ffffffff4316600160a01b0263ffffffff60a01b199091161790555062000286945050505050565b610b24806200193d83390190565b80516001600160a01b03811681146200018e57600080fd5b919050565b80516001600160401b03811681146200018e57600080fd5b805163ffffffff811681146200018e57600080fd5b6000806000806000806000806000806101408b8d031215620001e157600080fd5b620001ec8b62000176565b9950620001fc60208c0162000176565b98506200020c60408c0162000176565b97506200021c60608c0162000193565b96506200022c60808c0162000193565b95506200023c60a08c01620001ab565b94506200024c60c08c01620001ab565b935060e08b01519250620002646101008c01620001ab565b9150620002756101208c01620001ab565b90509295989b9194979a5092959850565b60805160a05160c05160e0516101005161012051610140516101605161160462000339600039600081816103bb0152610d6301526000818161037901528181610d8e0152610e5f0152600081816102090152818161031b01528181610457015261091b01526000818161024801528181610571015281816107aa0152610f140152600081816102a10152818161065f015261081f0152600061123e01526000611216015260006111e201526116046000f3fe608060405234801561001057600080fd5b50600436106101375760003560e01c80637aad19ff116100b857806392b228b31161007c57806392b228b314610374578063a5a6cd0b1461039b578063affbbda9146103ae578063c45a0155146103b6578063f2fde38b146103dd578063faab2c90146103f057600080fd5b80637aad19ff146102f557806385425f4f1461030a5780638936b63b1461033d5780638da5cb5b146103505780638e6a81291461036157600080fd5b806350868956116100ff578063508689561461026a57806352e031e51461028b57806354fd4d501461029c57806367faa2b6146102d8578063715018a6146102ed57600080fd5b806301cc7c4d1461013c57806302fb0c5e146101dd5780630c08bf88146101fa5780630f4ef8a6146102045780634cf088d914610243575b600080fd5b6101a761014a366004611340565b60408051606080820183526000808352602080840182905292840181905293845260058252928290208251938401835280546001600160a01b0381168552600160a01b900463ffffffff1691840191909152600101549082015290565b6040805182516001600160a01b0316815260208084015163ffffffff169082015291810151908201526060015b60405180910390f35b6006546101ea9060ff1681565b60405190151581526020016101d4565b610202610422565b005b61022b7f000000000000000000000000000000000000000000000000000000000000000081565b6040516001600160a01b0390911681526020016101d4565b61022b7f000000000000000000000000000000000000000000000000000000000000000081565b61027d610278366004611371565b610530565b6040519081526020016101d4565b6004546001600160a01b031661022b565b6102c37f000000000000000000000000000000000000000000000000000000000000000081565b60405163ffffffff90911681526020016101d4565b600454600160a01b900463ffffffff1661027d565b6102026105e7565b600454600160c01b900463ffffffff1661027d565b61022b610318366004611340565b507f000000000000000000000000000000000000000000000000000000000000000090565b6101ea61034b3660046113ae565b61065b565b6000546001600160a01b031661022b565b6101ea61036f366004611371565b610769565b61022b7f000000000000000000000000000000000000000000000000000000000000000081565b6101ea6103a9366004611340565b61081b565b61027d6109a5565b61022b7f000000000000000000000000000000000000000000000000000000000000000081565b6102026103eb366004611371565b6109c6565b6104036103fe366004611431565b610ab0565b6040805192151583526001600160a01b039091166020830152016101d4565b6000546001600160a01b031633146104555760405162461bcd60e51b815260040161044c90611464565b60405180910390fd5b7f00000000000000000000000000000000000000000000000000000000000000006001600160a01b0316638aec85426040518163ffffffff1660e01b8152600401602060405180830381865afa1580156104b3573d6000803e3d6000fd5b505050506040513d601f19601f820116820180604052508101906104d79190611499565b156105245760405162461bcd60e51b815260206004820152601f60248201527f5265776172644d616e61676572207374696c6c20686f6c64732066756e647300604482015260640161044c565b6006805460ff19169055565b60015460048054604051633a02a42d60e01b81526001600160a01b03808616938201939093526000936105e1939092600160a01b900463ffffffff169186917f00000000000000000000000000000000000000000000000000000000000000001690633a02a42d90602401602060405180830381865afa1580156105b8573d6000803e3d6000fd5b505050506040513d601f19601f820116820180604052508101906105dc9190611499565b610ca9565b92915050565b6000546001600160a01b031633146106115760405162461bcd60e51b815260040161044c90611464565b600080546040516001600160a01b03909116907f8be0079c531659141344cd1fd0a4f28419497f9722a3daafe3b4186f6b6457e0908390a3600080546001600160a01b0319169055565b60007f000000000000000000000000000000000000000000000000000000000000000063ffffffff166002146106cb5760405162461bcd60e51b8152602060048201526015602482015274383937ba37b1b7b6103430b9903a37903132902b1960591b604482015260640161044c565b60006106d5610d46565b9050336001600160a01b0316816001600160a01b03167f940e173156be8ef613108cfeccd9bce20976d05ae59ee16c3b6e1ff74cef935f6107458863ffffffff1685898960405160200161072a9291906114b2565b60405160208183030381529060405280519060200120610fad565b8787604051610756939291906114c2565b60405180910390a3506001949350505050565b60015460048054604051633a02a42d60e01b81526001600160a01b03808616938201939093526000936105e1939092600160a01b900463ffffffff169186917f00000000000000000000000000000000000000000000000000000000000000001690633a02a42d906024015b602060405180830381865afa1580156107f2573d6000803e3d6000fd5b505050506040513d601f19601f820116820180604052508101906108169190611499565b6110b3565b60007f000000000000000000000000000000000000000000000000000000000000000063ffffffff1660011461088b5760405162461bcd60e51b815260206004820152601560248201527470726f746f636f6c2068617320746f20626520563160581b604482015260640161044c565b6000610895610d46565b60045460408051600160c01b90920463ffffffff168083526020830182905260009183019190915291925033906001600160a01b038416907f940e173156be8ef613108cfeccd9bce20976d05ae59ee16c3b6e1ff74cef935f9060600160405180910390a36040516303a7b07f60e61b815263ffffffff821660048201523360248201527f00000000000000000000000000000000000000000000000000000000000000006001600160a01b03169063e9ec1fc090604401600060405180830381600087803b15801561096757600080fd5b505af115801561097b573d6000803e3d6000fd5b5050505061099b828260016109909190611514565b63ffffffff16611153565b5060019392505050565b6004546000906109c190600160a01b900463ffffffff166111bc565b905090565b6000546001600160a01b031633146109f05760405162461bcd60e51b815260040161044c90611464565b6001600160a01b038116610a555760405162461bcd60e51b815260206004820152602660248201527f4f776e61626c653a206e6577206f776e657220697320746865207a65726f206160448201526564647265737360d01b606482015260840161044c565b600080546040516001600160a01b03808516939216917f8be0079c531659141344cd1fd0a4f28419497f9722a3daafe3b4186f6b6457e091a3600080546001600160a01b0319166001600160a01b0392909216919091179055565b6040516301b2a42d60e01b81526002600482015263ffffffff831660248201526000908190819073__$e1e819b4790721726f0448d116c4c7b48f$__906301b2a42d90604401602060405180830381865af4158015610b13573d6000803e3d6000fd5b505050506040513d601f19601f82011682018060405250810190610b379190611499565b6040516334a4425b60e11b815260026004820152909150600090819073__$e1e819b4790721726f0448d116c4c7b48f$__9063694884b6906024016040805180830381865af4158015610b8e573d6000803e3d6000fd5b505050506040513d601f19601f82011682018060405250810190610bb2919061153c565b6040516375e6dc3960e11b8152600260048201526024810183905260448101869052919350915063ffffffff88169073__$e1e819b4790721726f0448d116c4c7b48f$__9063ebcdb87290606401602060405180830381865af4158015610c1d573d6000803e3d6000fd5b505050506040513d601f19601f82011682018060405250810190610c419190611499565b14610c555760008094509450505050610ca2565b63ffffffff8616610c668483611560565b10610c97575050505063ffffffff8316600090815260056020526040902054600191506001600160a01b0316610ca2565b600080945094505050505b9250929050565b60405163130e5bbd60e11b815260048101859052602481018490526001600160a01b03831660448201526064810182905260009073__$f5ef60794fd47af037390b6d5a162c7d54$__9063261cb77a90608401602060405180830381865af4158015610d19573d6000803e3d6000fd5b505050506040513d601f19601f82011682018060405250810190610d3d9190611499565b95945050505050565b6040516332f256cf60e11b81523360048201526001600160a01b037f0000000000000000000000000000000000000000000000000000000000000000811660248301526000917f0000000000000000000000000000000000000000000000000000000000000000909116906365e4ad9e90604401602060405180830381865afa158015610dd7573d6000803e3d6000fd5b505050506040513d601f19601f82011682018060405250810190610dfb9190611577565b610e475760405162461bcd60e51b815260206004820152601c60248201527f6d73672e73656e646572206973206e6f7420617574686f72697a656400000000604482015260640161044c565b60405163fa54416160e01b81523360048201526000907f00000000000000000000000000000000000000000000000000000000000000006001600160a01b03169063fa54416190602401602060405180830381865afa158015610eae573d6000803e3d6000fd5b505050506040513d601f19601f82011682018060405250810190610ed29190611599565b60048054600154604051633a02a42d60e01b81526001600160a01b0380861694820194909452939450600160a01b90910463ffffffff1692610f4392849186917f00000000000000000000000000000000000000000000000000000000000000001690633a02a42d906024016107d5565b610f8f5760405162461bcd60e51b815260206004820152601c60248201527f5573657220636f756c646e742070726f64756365206120626c6f636b00000000604482015260640161044c565b610fa7610fa263ffffffff831643611560565b6111c7565b50919050565b604051634e9319b960e11b81526002600482015260248101849052600090819073__$e1e819b4790721726f0448d116c4c7b48f$__90639d26337290604401602060405180830381865af4158015611009573d6000803e3d6000fd5b505050506040513d601f19601f8201168201806040525081019061102d9190611499565b604080516060810182526001600160a01b03808816825263ffffffff43811660208085019182528486018a815260008881526005909252959020935184549151909216600160a01b026001600160c01b0319909116919092161717815590516001918201559091506110ab9085906110a69084906115b6565b611153565b949350505050565b60405163130e5bbd60e11b815260048101859052602481018490526001600160a01b03831660448201526064810182905260009073__$f5ef60794fd47af037390b6d5a162c7d54$__9063261cb77a90608401602060405180830381865af4158015611123573d6000803e3d6000fd5b505050506040513d601f19601f820116820180604052508101906111479190611499565b43101595945050505050565b604080516060810182526001600160a01b0390931680845263ffffffff4381166020860181905293169390910183905260048054600160c01b90940263ffffffff60c01b19600160a01b9094026001600160c01b03199095169092179390931791909116179055565b60006105e182611305565b600154604051635b01605f60e11b815267ffffffffffffffff7f0000000000000000000000000000000000000000000000000000000000000000166004820152602481019190915263ffffffff7f0000000000000000000000000000000000000000000000000000000000000000811660448301527f00000000000000000000000000000000000000000000000000000000000000001660648201526084810182905273__$585bd6ccc1dd1141eeb13fab52b3a8b211$__9063b602c0be9060a401602060405180830381865af41580156112a6573d6000803e3d6000fd5b505050506040513d601f19601f820116820180604052508101906112ca9190611499565b60018190556040519081527f5a790c48cbebdceff3f1fcd445afd12d57302b7196738d61c60dcd491bf3efba9060200160405180910390a150565b60006028820143811061131b5750600092915050565b43819003610100810660000361133657506101009392505050565b60ff169392505050565b60006020828403121561135257600080fd5b5035919050565b6001600160a01b038116811461136e57600080fd5b50565b60006020828403121561138357600080fd5b813561138e81611359565b9392505050565b803563ffffffff811681146113a957600080fd5b919050565b6000806000604084860312156113c357600080fd5b6113cc84611395565b9250602084013567ffffffffffffffff808211156113e957600080fd5b818601915086601f8301126113fd57600080fd5b81358181111561140c57600080fd5b87602082850101111561141e57600080fd5b6020830194508093505050509250925092565b6000806040838503121561144457600080fd5b61144d83611395565b915061145b60208401611395565b90509250929050565b6020808252818101527f4f776e61626c653a2063616c6c6572206973206e6f7420746865206f776e6572604082015260600190565b6000602082840312156114ab57600080fd5b5051919050565b8183823760009101908152919050565b63ffffffff8416815260406020820152816040820152818360608301376000818301606090810191909152601f909201601f1916010192915050565b634e487b7160e01b600052601160045260246000fd5b600063ffffffff808316818516808303821115611533576115336114fe565b01949350505050565b6000806040838503121561154f57600080fd5b505080516020909101519092909150565b600082821015611572576115726114fe565b500390565b60006020828403121561158957600080fd5b8151801515811461138e57600080fd5b6000602082840312156115ab57600080fd5b815161138e81611359565b600082198211156115c9576115c96114fe565b50019056fea2646970667358221220529f9b0f7988e73abfe1365db5cbbf0a0928386f0a4df04dbd8a7c62d4ea379664736f6c634300080e003361010060405234801561001157600080fd5b50604051610b24380380610b2483398101604081905261003091610075565b6001600160a01b0393841660c0529190921660e05260809190915263ffffffff1660a0526100cd565b80516001600160a01b038116811461007057600080fd5b919050565b6000806000806080858703121561008b57600080fd5b61009485610059565b93506100a260208601610059565b925060408501519150606085015163ffffffff811681146100c257600080fd5b939692955090935050565b60805160a05160c05160e0516109fc6101286000396000818160c7015281816102bc015261058b0152600081816104600152818161062b01526106f801526000610333015260008181610777015261079e01526109fc6000f3fe608060405234801561001057600080fd5b50600436106100625760003560e01c806309b290681461006757806312065fe01461008f57806385ac2fa9146100a55780638aec8542146100ba578063c56551b6146100c2578063e9ec1fc014610101575b600080fd5b61007a61007536600461085a565b610114565b60405190151581526020015b60405180910390f35b61009761019d565b604051908152602001610086565b6100b86100b336600461087c565b6101ac565b005b610097610576565b6100e97f000000000000000000000000000000000000000000000000000000000000000081565b6040516001600160a01b039091168152602001610086565b6100b861010f366004610909565b610580565b6040516303fbaf7360e01b815260006004820181905263ffffffff831660248301529073__$f57eb21c11c6dae369da3ca36f4f48eb77$__906303fbaf7390604401602060405180830381865af4158015610173573d6000803e3d6000fd5b505050506040513d601f19601f820116820180604052508101906101979190610950565b92915050565b60006101a76106e0565b905090565b60005b818110156105715773__$f57eb21c11c6dae369da3ca36f4f48eb77$__6303fbaf7360008585858181106101e5576101e561096b565b90506020020160208101906101fa919061085a565b6040516001600160e01b031960e085901b168152600481019290925263ffffffff166024820152604401602060405180830381865af4158015610241573d6000803e3d6000fd5b505050506040513d601f19601f820116820180604052508101906102659190610950565b156102b75760405162461bcd60e51b815260206004820152601b60248201527f54686520626c6f636b20686173206265656e207265776172646564000000000060448201526064015b60405180910390fd5b6000807f00000000000000000000000000000000000000000000000000000000000000006001600160a01b031663faab2c908686868181106102fb576102fb61096b565b9050602002016020810190610310919061085a565b60405160e083901b6001600160e01b031916815263ffffffff91821660048201527f000000000000000000000000000000000000000000000000000000000000000090911660248201526044016040805180830381865afa158015610379573d6000803e3d6000fd5b505050506040513d601f19601f8201168201806040525081019061039d9190610981565b91509150816103de5760405162461bcd60e51b815260206004820152600d60248201526c496e76616c696420626c6f636b60981b60448201526064016102ae565b60006103e861076b565b90506000811161043a5760405162461bcd60e51b815260206004820152601a60248201527f5265776172644d616e6167657220686173206e6f2066756e647300000000000060448201526064016102ae565b60405163a9059cbb60e01b81526001600160a01b038381166004830152602482018390527f0000000000000000000000000000000000000000000000000000000000000000169063a9059cbb906044016020604051808303816000875af11580156104a9573d6000803e3d6000fd5b505050506040513d601f19601f820116820180604052508101906104cd9190610950565b506104fd8686868181106104e3576104e361096b565b90506020020160208101906104f8919061085a565b6107c8565b85858581811061050f5761050f61096b565b9050602002016020810190610524919061085a565b63ffffffff167fc03e4bb56a67f4e04f08102325c70cf9e42f888a19d6d634bbee5f2a3a0b73d98260405161055b91815260200190565b60405180910390a28360010193505050506101af565b505050565b60006101a761076b565b336001600160a01b037f000000000000000000000000000000000000000000000000000000000000000016146105f85760405162461bcd60e51b815260206004820152601e60248201527f4f6e6c792074686520706f7320636f6e74726163742063616e2063616c6c000060448201526064016102ae565b600061060261076b565b60405163a9059cbb60e01b81526001600160a01b038481166004830152602482018390529192507f00000000000000000000000000000000000000000000000000000000000000009091169063a9059cbb906044016020604051808303816000875af1158015610676573d6000803e3d6000fd5b505050506040513d601f19601f8201168201806040525081019061069a9190610950565b508263ffffffff167fc03e4bb56a67f4e04f08102325c70cf9e42f888a19d6d634bbee5f2a3a0b73d9826040516106d391815260200190565b60405180910390a2505050565b6040516370a0823160e01b81523060048201526000907f00000000000000000000000000000000000000000000000000000000000000006001600160a01b0316906370a0823190602401602060405180830381865afa158015610747573d6000803e3d6000fd5b505050506040513d601f19601f820116820180604052508101906101a791906109ad565b60006107756106e0565b7f0000000000000000000000000000000000000000000000000000000000000000116107c057507f000000000000000000000000000000000000000000000000000000000000000090565b6101a76106e0565b6040516306449da160e41b81526000600482015263ffffffff821660248201526001604482015273__$f57eb21c11c6dae369da3ca36f4f48eb77$__90636449da109060640160006040518083038186803b15801561082657600080fd5b505af415801561083a573d6000803e3d6000fd5b5050505050565b803563ffffffff8116811461085557600080fd5b919050565b60006020828403121561086c57600080fd5b61087582610841565b9392505050565b6000806020838503121561088f57600080fd5b823567ffffffffffffffff808211156108a757600080fd5b818501915085601f8301126108bb57600080fd5b8135818111156108ca57600080fd5b8660208260051b85010111156108df57600080fd5b60209290920196919550909350505050565b6001600160a01b038116811461090657600080fd5b50565b6000806040838503121561091c57600080fd5b61092583610841565b91506020830135610935816108f1565b809150509250929050565b8051801515811461085557600080fd5b60006020828403121561096257600080fd5b61087582610940565b634e487b7160e01b600052603260045260246000fd5b6000806040838503121561099457600080fd5b61099d83610940565b91506020830151610935816108f1565b6000602082840312156109bf57600080fd5b505191905056fea2646970667358221220e63a7530a052412b3327cb84e6c058505f7358cb78ce34fdab0b82dedc4017cc64736f6c634300080e0033a26469706673582212203b48bb4339a89e7cd220710e5bbaf536d0435d22900dcaf3eb597b76d091b93a64736f6c634300080e0033",
  "libraries": {
    "Bitmask": "0xCC075E3e753f5a269781e512A925f9D5059B41D2",
    "Difficulty": "0xf055A2142AE38217A7Bc9dB16EaE7debd4A725Fb",
    "Eligibility": "0x168c31E8A09AB01457Ac3c7dfab034599C57eb86",
    "Tree": "0x7a24cD1c71Ef908a904f3978F2da8bfbA2213247"
  },
  "devdoc": {
    "kind": "dev",
    "methods": {
      "createNewChain(address,address,address,uint64,uint64,uint32,uint32,uint256,uint32,uint32)": {
        "params": {
          "_ctsiAddress": "address of token instance being used",
          "_difficultyAdjustmentParameter": "how quickly the difficulty gets updated",
          "_rewardDelay": "number of blocks confirmation before a reward can be claimed",
          "_rewardValue": "reward that reward manager contract pays",
          "_stakingAddress": "address of StakingInterface",
          "_targetInterval": "how often we want to elect a block producer",
          "_version": "protocol version of PoS",
          "_workerAuthAddress": "address of worker manager contract"
        }
      },
      "owner()": {
        "details": "Returns the address of the current owner."
      },
      "renounceOwnership()": {
        "details": "Leaves the contract without owner. It will not be possible to call `onlyOwner` functions anymore. Can only be called by the current owner. NOTE: Renouncing ownership will leave the contract without an owner, thereby removing any functionality that is only available to the owner."
      },
      "transferOwnership(address)": {
        "details": "Transfers ownership of the contract to a new account (`newOwner`). Can only be called by the current owner."
      }
    },
    "version": 1
  },
  "userdoc": {
    "events": {
      "NewChain(address,address,address,address,uint64,uint64,uint32,uint32,uint256,uint32,uint32)": {
        "notice": "Event emmited when a new chain is created"
      }
    },
    "kind": "user",
    "methods": {},
    "version": 1
  },
  "storageLayout": {
    "storage": [
      {
        "astId": 1928,
        "contract": "contracts/v2/PoSV2FactoryImpl.sol:PoSV2FactoryImpl",
        "label": "_owner",
        "offset": 0,
        "slot": "0",
        "type": "t_address"
      }
    ],
    "types": {
      "t_address": {
        "encoding": "inplace",
        "label": "address",
        "numberOfBytes": "20"
      }
    }
  }
}