{
  "abi": [
    {
      "inputs": [
        {
          "internalType": "address",
          "name": "_operator",
          "type": "address"
        },
        {
          "internalType": "address",
          "name": "_ctsiAddress",
          "type": "address"
        },
        {
          "internalType": "uint256",
          "name": "_minimumPrize",
          "type": "uint256"
        },
        {
          "internalType": "uint256",
          "name": "_distNumerator",
          "type": "uint256"
        },
        {
          "internalType": "uint256",
          "name": "_distDenominator",
          "type": "uint256"
        }
      ],
      "stateMutability": "nonpayable",
      "type": "constructor"
    },
    {
      "anonymous": false,
      "inputs": [
        {
          "indexed": false,
          "internalType": "address",
          "name": "_winner",
          "type": "address"
        },
        {
          "indexed": false,
          "internalType": "uint256",
          "name": "_prize",
          "type": "uint256"
        }
      ],
      "name": "WinnerPaid",
      "type": "event"
    },
    {
      "inputs": [],
      "name": "getBalance",
      "outputs": [
        {
          "internalType": "uint256",
          "name": "",
          "type": "uint256"
        }
      ],
      "stateMutability": "view",
      "type": "function"
    },
    {
      "inputs": [],
      "name": "getCurrentPrize",
      "outputs": [
        {
          "internalType": "uint256",
          "name": "",
          "type": "uint256"
        }
      ],
      "stateMutability": "view",
      "type": "function"
    },
    {
      "inputs": [
        {
          "internalType": "address",
          "name": "_winner",
          "type": "address"
        },
        {
          "internalType": "uint256",
          "name": "_amount",
          "type": "uint256"
        }
      ],
      "name": "payWinner",
      "outputs": [],
      "stateMutability": "nonpayable",
      "type": "function"
    }
  ],
  "address": "0x66D9a9a80Fa441f58879b64968C1d8659F297C86",
  "args": [
    "0x15b9aA4B4b97429B04494e1505eae8979a1efdB5",
    "0x52BE964c9a9fd9Ebc2295979F9F8362551413cb5",
    "1000000000000000000",
    5,
    100000
  ],
  "solcInputHash": "0xb592c5c2c0725155a492042e978259083b2945962448698a64b8a2497b9bdf75",
  "bytecode": "0x608060405234801561001057600080fd5b506040516104e83803806104e8833981810160405260a081101561003357600080fd5b508051602082015160408301516060840151608090940151600380546001600160a01b039586166001600160a01b0319918216179091556004805495909416941693909317909155600055600191909155600255610452806100966000396000f3fe608060405234801561001057600080fd5b50600436106100415760003560e01c806312065fe01461004657806340338433146100605780634e958d0514610068575b600080fd5b61004e610096565b60408051918252519081900360200190f35b61004e610116565b6100946004803603604081101561007e57600080fd5b506001600160a01b038135169060200135610172565b005b60048054604080516370a0823160e01b81523093810193909352516000926001600160a01b03909216916370a08231916024808301926020929190829003018186803b1580156100e557600080fd5b505afa1580156100f9573d6000803e3d6000fd5b505050506040513d602081101561010f57600080fd5b5051905090565b60008061013960025461013360015461012d610096565b90610289565b906102eb565b9050600054811161014c5760005461014e565b805b9050610158610096565b8111610164578061016c565b61016c610096565b91505090565b6003546001600160a01b031633146101bb5760405162461bcd60e51b81526004018080602001828103825260318152602001806103cb6031913960400191505060405180910390fd5b600480546040805163a9059cbb60e01b81526001600160a01b0386811694820194909452602481018590529051929091169163a9059cbb916044808201926020929091908290030181600087803b15801561021557600080fd5b505af1158015610229573d6000803e3d6000fd5b505050506040513d602081101561023f57600080fd5b5050604080516001600160a01b03841681526020810183905281517f8cbbe5cd65720098fc8ce6e99a5deb232085117dd486475b49cb11604b528f30929181900390910190a15050565b600082610298575060006102e5565b828202828482816102a557fe5b04146102e25760405162461bcd60e51b81526004018080602001828103825260218152602001806103fc6021913960400191505060405180910390fd5b90505b92915050565b60006102e283836040518060400160405280601a81526020017f536166654d6174683a206469766973696f6e206279207a65726f000000000000815250600081836103b45760405162461bcd60e51b81526004018080602001828103825283818151815260200191508051906020019080838360005b83811015610379578181015183820152602001610361565b50505050905090810190601f1680156103a65780820380516001836020036101000a031916815260200191505b509250505060405180910390fd5b5060008385816103c057fe5b049594505050505056fe4f6e6c7920746865206f70657261746f7220636f6e74726163742063616e2063616c6c20746869732066756e6374696f6e536166654d6174683a206d756c7469706c69636174696f6e206f766572666c6f77a2646970667358221220f33d90642c1531fbdfec853cf89c1387f897e9fd0ed17e3bda8dc970b5ab28fa64736f6c63430007010033",
  "devdoc": {
    "kind": "dev",
    "methods": {
      "constructor": {
        "params": {
          "_ctsiAddress": "address of token instance being used",
          "_distDenominator": "dividing factor to define prize amount",
          "_distNumerator": "multiplier factor to define prize amount",
          "_minimumPrize": "minimum prize that this contract pays",
          "_operator": "address of the operator"
        }
      },
      "payWinner(address,uint256)": {
        "details": "only the pos contract can call this",
        "params": {
          "_winner": "address of round winner"
        }
      }
    },
    "version": 1
  },
  "userdoc": {
    "kind": "user",
    "methods": {
      "constructor": {
        "notice": "Creates contract"
      },
      "getBalance()": {
        "notice": "Get PrizeManager's balance"
      },
      "getCurrentPrize()": {
        "notice": "Get prize of next Lottery round"
      },
      "payWinner(address,uint256)": {
        "notice": "Transfers token to winner of Lottery"
      }
    },
    "version": 1
  },
  "storageLayout": {
    "storage": [
      {
        "astId": 2663,
        "contract": "contracts/PrizeManager.sol:PrizeManager",
        "label": "minimumPrize",
        "offset": 0,
        "slot": "0",
        "type": "t_uint256"
      },
      {
        "astId": 2665,
        "contract": "contracts/PrizeManager.sol:PrizeManager",
        "label": "distNumerator",
        "offset": 0,
        "slot": "1",
        "type": "t_uint256"
      },
      {
        "astId": 2667,
        "contract": "contracts/PrizeManager.sol:PrizeManager",
        "label": "distDenominator",
        "offset": 0,
        "slot": "2",
        "type": "t_uint256"
      },
      {
        "astId": 2669,
        "contract": "contracts/PrizeManager.sol:PrizeManager",
        "label": "operator",
        "offset": 0,
        "slot": "3",
        "type": "t_address"
      },
      {
        "astId": 2671,
        "contract": "contracts/PrizeManager.sol:PrizeManager",
        "label": "ctsi",
        "offset": 0,
        "slot": "4",
        "type": "t_contract(IERC20)1500"
      }
    ],
    "types": {
      "t_address": {
        "encoding": "inplace",
        "label": "address",
        "numberOfBytes": "20"
      },
      "t_contract(IERC20)1500": {
        "encoding": "inplace",
        "label": "contract IERC20",
        "numberOfBytes": "20"
      },
      "t_uint256": {
        "encoding": "inplace",
        "label": "uint256",
        "numberOfBytes": "32"
      }
    }
  },
  "gasEstimates": {
    "creation": {
      "codeDepositCost": "221200",
      "executionCost": "infinite",
      "totalCost": "infinite"
    },
    "external": {
      "getBalance()": "infinite",
      "getCurrentPrize()": "infinite",
      "payWinner(address,uint256)": "infinite"
    }
  }
}