{
  "address": "0x93b0561F7064ADcBd0D7E3dB2B457fbf350BB6a2",
  "abi": [
    {
      "inputs": [
        {
          "internalType": "address",
          "name": "_operator",
          "type": "address"
        },
        {
          "internalType": "address",
          "name": "_ctsiAddress",
          "type": "address"
        },
        {
          "internalType": "uint256",
          "name": "_maxReward",
          "type": "uint256"
        },
        {
          "internalType": "uint256",
          "name": "_minReward",
          "type": "uint256"
        },
        {
          "internalType": "uint256",
          "name": "_distNumerator",
          "type": "uint256"
        },
        {
          "internalType": "uint256",
          "name": "_distDenominator",
          "type": "uint256"
        }
      ],
      "stateMutability": "nonpayable",
      "type": "constructor"
    },
    {
      "inputs": [],
      "name": "getBalance",
      "outputs": [
        {
          "internalType": "uint256",
          "name": "",
          "type": "uint256"
        }
      ],
      "stateMutability": "view",
      "type": "function"
    },
    {
      "inputs": [],
      "name": "getCurrentReward",
      "outputs": [
        {
          "internalType": "uint256",
          "name": "",
          "type": "uint256"
        }
      ],
      "stateMutability": "view",
      "type": "function"
    },
    {
      "inputs": [
        {
          "internalType": "address",
          "name": "_address",
          "type": "address"
        },
        {
          "internalType": "uint256",
          "name": "_amount",
          "type": "uint256"
        }
      ],
      "name": "reward",
      "outputs": [],
      "stateMutability": "nonpayable",
      "type": "function"
    }
  ],
  "transactionHash": "0xbce97c8f489925a8545b9757c6f4dcca402d8fbebfe3bea282f990c733521aed",
  "args": [
    "0xe551220B5D473da1e0478FbAD9FaC1f437639Ada",
    "0x9d2133302B0beB040d2E86D1fbC78Da1Dea9Fa3e",
    "2900000000000000000000",
    "1000000000000000000",
    77,
    1000000
  ],
  "solcInputHash": "9df9f603477043b6e623725126132f7a",
  "bytecode": "0x608060405234801561001057600080fd5b506040516104bc3803806104bc833981810160405260c081101561003357600080fd5b508051602082015160408301516060840151608085015160a090950151600480546001600160a01b039687166001600160a01b031991821617909155600580549690951695169490941790925560009190915560015560029190915560035561041b806100a16000396000f3fe608060405234801561001057600080fd5b50600436106100415760003560e01c806312065fe01461004657806321670f22146100605780638aec85421461008e575b600080fd5b61004e610096565b60408051918252519081900360200190f35b61008c6004803603604081101561007657600080fd5b506001600160a01b038135169060200135610112565b005b61004e6101e1565b600554604080516370a0823160e01b815230600482015290516000926001600160a01b0316916370a08231916024808301926020929190829003018186803b1580156100e157600080fd5b505afa1580156100f5573d6000803e3d6000fd5b505050506040513d602081101561010b57600080fd5b5051905090565b6004546001600160a01b0316331461015b5760405162461bcd60e51b81526004018080602001828103825260318152602001806103946031913960400191505060405180910390fd5b6005546040805163a9059cbb60e01b81526001600160a01b038581166004830152602482018590529151919092169163a9059cbb9160448083019260209291908290030181600087803b1580156101b157600080fd5b505af11580156101c5573d6000803e3d6000fd5b505050506040513d60208110156101db57600080fd5b50505050565b6000806102046003546101fe6002546101f8610096565b90610252565b906102b4565b9050600054811161021757600054610219565b805b9050600154811161022a578061022e565b6001545b9050610238610096565b8111610244578061024c565b61024c610096565b91505090565b600082610261575060006102ae565b8282028284828161026e57fe5b04146102ab5760405162461bcd60e51b81526004018080602001828103825260218152602001806103c56021913960400191505060405180910390fd5b90505b92915050565b60006102ab83836040518060400160405280601a81526020017f536166654d6174683a206469766973696f6e206279207a65726f0000000000008152506000818361037d5760405162461bcd60e51b81526004018080602001828103825283818151815260200191508051906020019080838360005b8381101561034257818101518382015260200161032a565b50505050905090810190601f16801561036f5780820380516001836020036101000a031916815260200191505b509250505060405180910390fd5b50600083858161038957fe5b049594505050505056fe4f6e6c7920746865206f70657261746f7220636f6e74726163742063616e2063616c6c20746869732066756e6374696f6e536166654d6174683a206d756c7469706c69636174696f6e206f766572666c6f77a2646970667358221220773ca5f35ea4a5be7610919e02be78171a9f2a626d2a3cef292278cb9bd677d764736f6c63430007040033",
  "devdoc": {
    "kind": "dev",
    "methods": {
      "constructor": {
        "params": {
          "_ctsiAddress": "address of token instance being used",
          "_distDenominator": "dividing factor to define reward amount",
          "_distNumerator": "multiplier factor to define reward amount",
          "_maxReward": "maximum reward that this contract pays",
          "_minReward": "minimum reward that this contract pays",
          "_operator": "address of the operator"
        }
      },
      "reward(address,uint256)": {
        "details": "only the pos contract can call this",
        "params": {
          "_address": "address be rewarded",
          "_amount": "reward"
        }
      }
    },
    "version": 1
  },
  "userdoc": {
    "kind": "user",
    "methods": {
      "constructor": {
        "notice": "Creates contract"
      },
      "getBalance()": {
        "notice": "Get RewardManager's balance"
      },
      "getCurrentReward()": {
        "notice": "Get current reward amount"
      },
      "reward(address,uint256)": {
        "notice": "Rewards address"
      }
    },
    "version": 1
  },
  "storageLayout": {
    "storage": [
      {
        "astId": 2835,
        "contract": "contracts/RewardManager.sol:RewardManager",
        "label": "minReward",
        "offset": 0,
        "slot": "0",
        "type": "t_uint256"
      },
      {
        "astId": 2837,
        "contract": "contracts/RewardManager.sol:RewardManager",
        "label": "maxReward",
        "offset": 0,
        "slot": "1",
        "type": "t_uint256"
      },
      {
        "astId": 2839,
        "contract": "contracts/RewardManager.sol:RewardManager",
        "label": "distNumerator",
        "offset": 0,
        "slot": "2",
        "type": "t_uint256"
      },
      {
        "astId": 2841,
        "contract": "contracts/RewardManager.sol:RewardManager",
        "label": "distDenominator",
        "offset": 0,
        "slot": "3",
        "type": "t_uint256"
      },
      {
        "astId": 2843,
        "contract": "contracts/RewardManager.sol:RewardManager",
        "label": "operator",
        "offset": 0,
        "slot": "4",
        "type": "t_address"
      },
      {
        "astId": 2845,
        "contract": "contracts/RewardManager.sol:RewardManager",
        "label": "ctsi",
        "offset": 0,
        "slot": "5",
        "type": "t_contract(IERC20)1492"
      }
    ],
    "types": {
      "t_address": {
        "encoding": "inplace",
        "label": "address",
        "numberOfBytes": "20"
      },
      "t_contract(IERC20)1492": {
        "encoding": "inplace",
        "label": "contract IERC20",
        "numberOfBytes": "20"
      },
      "t_uint256": {
        "encoding": "inplace",
        "label": "uint256",
        "numberOfBytes": "32"
      }
    }
  }
}