{
  "address": "0x4D95d9d9206A5Ede945c1354C182E4F2F7965aFF",
  "abi": [
    {
      "inputs": [
        {
          "internalType": "address",
          "name": "_operator",
          "type": "address"
        },
        {
          "internalType": "address",
          "name": "_ctsiAddress",
          "type": "address"
        },
        {
          "internalType": "uint256",
          "name": "_maxPrize",
          "type": "uint256"
        },
        {
          "internalType": "uint256",
          "name": "_minimumPrize",
          "type": "uint256"
        },
        {
          "internalType": "uint256",
          "name": "_distNumerator",
          "type": "uint256"
        },
        {
          "internalType": "uint256",
          "name": "_distDenominator",
          "type": "uint256"
        }
      ],
      "stateMutability": "nonpayable",
      "type": "constructor"
    },
    {
      "inputs": [],
      "name": "getBalance",
      "outputs": [
        {
          "internalType": "uint256",
          "name": "",
          "type": "uint256"
        }
      ],
      "stateMutability": "view",
      "type": "function"
    },
    {
      "inputs": [],
      "name": "getCurrentPrize",
      "outputs": [
        {
          "internalType": "uint256",
          "name": "",
          "type": "uint256"
        }
      ],
      "stateMutability": "view",
      "type": "function"
    },
    {
      "inputs": [
        {
          "internalType": "address",
          "name": "_winner",
          "type": "address"
        },
        {
          "internalType": "uint256",
          "name": "_amount",
          "type": "uint256"
        }
      ],
      "name": "payWinner",
      "outputs": [],
      "stateMutability": "nonpayable",
      "type": "function"
    }
  ],
  "transactionHash": "0x17a47e94bf0c093d6d3199ef6218a2a20966bf5659122317f0c1c791484cd3a5",
  "args": [
    "0x428A35610BE92320b26a1A35db4d7C868a49D07F",
    "0xE33B0cd389D2DCAD374c4ddA3ae205A196E9FDA1",
    "1000000000000000000",
    "270000000000000000000",
    5,
    100000
  ],
  "solcInputHash": "c31e23cc00625f198ce559960a373148",
  "bytecode": "0x608060405234801561001057600080fd5b506040516104bc3803806104bc833981810160405260c081101561003357600080fd5b508051602082015160408301516060840151608085015160a090950151600480546001600160a01b039687166001600160a01b031991821617909155600580549690951695169490941790925560009190915560015560029190915560035561041b806100a16000396000f3fe608060405234801561001057600080fd5b50600436106100415760003560e01c806312065fe01461004657806340338433146100605780634e958d0514610068575b600080fd5b61004e610096565b60408051918252519081900360200190f35b61004e610112565b6100946004803603604081101561007e57600080fd5b506001600160a01b038135169060200135610183565b005b600554604080516370a0823160e01b815230600482015290516000926001600160a01b0316916370a08231916024808301926020929190829003018186803b1580156100e157600080fd5b505afa1580156100f5573d6000803e3d6000fd5b505050506040513d602081101561010b57600080fd5b5051905090565b60008061013560035461012f600254610129610096565b90610252565b906102b4565b905060005481116101485760005461014a565b805b9050600154811161015b578061015f565b6001545b9050610169610096565b8111610175578061017d565b61017d610096565b91505090565b6004546001600160a01b031633146101cc5760405162461bcd60e51b81526004018080602001828103825260318152602001806103946031913960400191505060405180910390fd5b6005546040805163a9059cbb60e01b81526001600160a01b038581166004830152602482018590529151919092169163a9059cbb9160448083019260209291908290030181600087803b15801561022257600080fd5b505af1158015610236573d6000803e3d6000fd5b505050506040513d602081101561024c57600080fd5b50505050565b600082610261575060006102ae565b8282028284828161026e57fe5b04146102ab5760405162461bcd60e51b81526004018080602001828103825260218152602001806103c56021913960400191505060405180910390fd5b90505b92915050565b60006102ab83836040518060400160405280601a81526020017f536166654d6174683a206469766973696f6e206279207a65726f0000000000008152506000818361037d5760405162461bcd60e51b81526004018080602001828103825283818151815260200191508051906020019080838360005b8381101561034257818101518382015260200161032a565b50505050905090810190601f16801561036f5780820380516001836020036101000a031916815260200191505b509250505060405180910390fd5b50600083858161038957fe5b049594505050505056fe4f6e6c7920746865206f70657261746f7220636f6e74726163742063616e2063616c6c20746869732066756e6374696f6e536166654d6174683a206d756c7469706c69636174696f6e206f766572666c6f77a264697066735822122064e1b579a9199c06fe1ee9ebe0a2c051ed5ac95e71fb20d31c2bbe01336d4b3d64736f6c63430007040033",
  "devdoc": {
    "kind": "dev",
    "methods": {
      "constructor": {
        "params": {
          "_ctsiAddress": "address of token instance being used",
          "_distDenominator": "dividing factor to define prize amount",
          "_distNumerator": "multiplier factor to define prize amount",
          "_maxPrize": "max prize that this contract pays",
          "_minimumPrize": "minimum prize that this contract pays",
          "_operator": "address of the operator"
        }
      },
      "payWinner(address,uint256)": {
        "details": "only the pos contract can call this",
        "params": {
          "_winner": "address of round winner"
        }
      }
    },
    "version": 1
  },
  "userdoc": {
    "kind": "user",
    "methods": {
      "constructor": {
        "notice": "Creates contract"
      },
      "getBalance()": {
        "notice": "Get PrizeManager's balance"
      },
      "getCurrentPrize()": {
        "notice": "Get prize of next Lottery round"
      },
      "payWinner(address,uint256)": {
        "notice": "Transfers token to winner of Lottery"
      }
    },
    "version": 1
  },
  "storageLayout": {
    "storage": [
      {
        "astId": 2788,
        "contract": "contracts/PrizeManager.sol:PrizeManager",
        "label": "minimumPrize",
        "offset": 0,
        "slot": "0",
        "type": "t_uint256"
      },
      {
        "astId": 2790,
        "contract": "contracts/PrizeManager.sol:PrizeManager",
        "label": "maxPrize",
        "offset": 0,
        "slot": "1",
        "type": "t_uint256"
      },
      {
        "astId": 2792,
        "contract": "contracts/PrizeManager.sol:PrizeManager",
        "label": "distNumerator",
        "offset": 0,
        "slot": "2",
        "type": "t_uint256"
      },
      {
        "astId": 2794,
        "contract": "contracts/PrizeManager.sol:PrizeManager",
        "label": "distDenominator",
        "offset": 0,
        "slot": "3",
        "type": "t_uint256"
      },
      {
        "astId": 2796,
        "contract": "contracts/PrizeManager.sol:PrizeManager",
        "label": "operator",
        "offset": 0,
        "slot": "4",
        "type": "t_address"
      },
      {
        "astId": 2798,
        "contract": "contracts/PrizeManager.sol:PrizeManager",
        "label": "ctsi",
        "offset": 0,
        "slot": "5",
        "type": "t_contract(IERC20)1500"
      }
    ],
    "types": {
      "t_address": {
        "encoding": "inplace",
        "label": "address",
        "numberOfBytes": "20"
      },
      "t_contract(IERC20)1500": {
        "encoding": "inplace",
        "label": "contract IERC20",
        "numberOfBytes": "20"
      },
      "t_uint256": {
        "encoding": "inplace",
        "label": "uint256",
        "numberOfBytes": "32"
      }
    }
  }
}